:020000040800F2
:10000000000005202D4C00088544000887440008A6
:10001000894400088B4400088D440008000000005B
:100020000000000000000000000000008F440008F5
:100030009144000800000000934400089544000823
:100040007D4C00087D4C00087D4C00087D4C00086C
:100050007D4C00087D4C00087D4C00087D4C00085C
:100060007D4C00087D4C00087D4C00087D4C00084C
:100070007D4C00087D4C000899440008A544000808
:100080007D4C00087D4C00087D4C00087D4C00082C
:100090007D4C00087D4C00087D4C00087D4C00081C
:1000A0007D4C00087D4C00087D4C00087D4C00080C
:1000B0007D4C00087D4C00087D4C00087D4C0008FC
:1000C0007D4C00087D4C00087D4C00087D4C0008EC
:1000D0007D4C0008B14400087D4C00087D4C0008B0
:1000E0007D4C00087D4C00087D4C00087D4C0008CC
:1000F0007D4C00087D4C00087D4C00087D4C0008BC
:100100007D4C00087D4C00087D4C00087D4C0008AB
:100110007D4C00087D4C0008BD4400087D4C000863
:10012000D9440008E5440008F14400087D4C00086B
:100130007D4C00087D4C00087D4C00087D4C00087B
:100140007D4C00087D4C00087D4C00087D4C00086B
:10015000FD4400087D4C0008094500087D4C00085E
:100160007D4C00087D4C00087D4C00087D4C00084B
:100170007D4C00087D4C00080000000000000000DD
:100180007D4C00087D4C00087D4C00087D4C00082B
:100190007D4C00087D4C0008000000007D4C0008EC
:1001A0007D4C00087D4C00080000000000000000AD
:1001B0007D4C000800000000000000007D4C00089D
:1001C0007D4C00087D4C00087D4C00087D4C0008EB
:0801D0007D4C00087D4C000885
:1001E00010B5054C237833B9044B13B10448AFF371
:1001F00000800123237010BDE001002000000000FA
:100200000475000808B5034B1BB103490348AFF35D
:10021000008008BD00000000E40100200475000813
:10022000034613F8012B002AFBD1181A0138704736
:1002300001F0FF01102A2BDB10F0070F08D010F897
:10024000013B013A8B422DD010F0070F42B3F6D19B
:10025000F0B441EA012141EA014122F007047FF0B4
:1002600000070023F0E80256083C85EA010586EA0B
:10027000010685FA47F5A3FA87F586FA47F6A5FA47
:1002800087F68EB9EED1F0BC01F0FF0102F0070253
:1002900032B110F8013B013A83EA010313B1F8D1FE
:1002A0000020704701387047002D06BF35460338DF
:1002B000073815F0010F07D1013015F4807F02BF18
:1002C000013015F4C03F0130F0BC0138704700BF69
:1002D00081F0004102E000BF83F0004330B54FEAF7
:1002E00041044FEA430594EA050F08BF90EA020F64
:1002F0001FBF54EA000C55EA020C7FEA645C7FEAF7
:10030000655C00F0E2804FEA5454D4EB5555B8BF19
:100310006D420CDD2C4480EA020281EA030382EA8A
:10032000000083EA010180EA020281EA0303362D1C
:1003300088BF30BD11F0004F4FEA01314FF4801CEF
:100340004CEA113102D0404261EB410113F0004F01
:100350004FEA03334CEA133302D0524263EB4303B8
:1003600094EA050F00F0A780A4F10104D5F1200E56
:100370000DDB02FA0EFC22FA05F2801841F10001B1
:1003800003FA0EF2801843FA05F359410EE0A5F185
:1003900020050EF1200E012A03FA0EFC28BF4CF0B6
:1003A000020C43FA05F3C01851EBE37101F000456C
:1003B00007D54FF0000EDCF1000C7EEB00006EEB79
:1003C0000101B1F5801F1BD3B1F5001F0CD3490803
:1003D0005FEA30004FEA3C0C04F101044FEA44525A
:1003E00012F5800F80F09A80BCF1004F08BF5FEAE1
:1003F000500C50F1000041EB045141EA050130BDC1
:100400005FEA4C0C404141EB010111F4801FA4F163
:100410000104E9D191F0000F04BF01460020B1FAB8
:1004200081F308BF2033A3F10B03B3F120020CDAF0
:100430000C3208DD02F1140CC2F10C0201FA0CF0CE
:1004400021FA02F10CE002F11402D8BFC2F1200C33
:1004500001FA02F120FA0CFCDCBF41EA0C019040E9
:10046000E41AA2BF01EB0451294330BD6FEA040432
:100470001F3C1CDA0C340EDC04F11404C4F120021D
:1004800020FA04F001FA02F340EA030021FA04F32F
:1004900045EA030130BDC4F10C04C4F1200220FA86
:1004A00002F001FA04F340EA0300294630BD21FAC4
:1004B00004F0294630BD94F0000F83F4801306BF8A
:1004C00081F480110134013D4EE77FEA645C18BF7E
:1004D0007FEA655C29D094EA050F08BF90EA020F15
:1004E00005D054EA000C04BF1946104630BD91EA0D
:1004F000030F1EBF0021002030BD5FEA545C05D110
:100500004000494128BF41F0004130BD14F580044E
:100510003CBF01F5801130BD01F0004545F0FE41C2
:1005200041F470014FF0000030BD7FEA645C1ABFF7
:10053000194610467FEA655C1CBF0B46024650EA2E
:10054000013406BF52EA033591EA030F41F400215A
:1005500030BD00BF90F0000F04BF0021704730B5E0
:100560004FF4806404F132044FF000054FF00001B5
:1005700050E700BF90F0000F04BF0021704730B576
:100580004FF4806404F1320410F0004548BF40424B
:100590004FF000013EE700BF42004FEAE2014FEAA0
:1005A00031014FEA02701FBF12F07F4393F07F4F7B
:1005B00081F06051704792F0000F14BF93F07F4FAD
:1005C000704730B54FF4607401F0004521F00041F0
:1005D00020E700BF50EA010208BF704730B54FF076
:1005E00000050AE050EA010208BF704730B511F07B
:1005F000004502D5404261EB41014FF4806404F1B3
:1006000032045FEA915C3FF4DCAE4FF003025FEA34
:10061000DC0C18BF03325FEADC0C18BF033202EBBC
:10062000DC02C2F1200300FA03FC20FA02F001FA16
:1006300003FE40EA0E0021FA02F11444C1E600BFB5
:1006400070B54FF0FF0C4CF4E06C1CEA11541DBF68
:100650001CEA135594EA0C0F95EA0C0F00F0DEF833
:100660002C4481EA030621EA4C5123EA4C5350EA18
:10067000013518BF52EA033541F4801143F4801369
:1006800038D0A0FB02CE4FF00005E1FB02E506F0FA
:100690000042E0FB03E54FF00006E1FB03569CF04F
:1006A000000F18BF4EF0010EA4F1FF04B6F5007F55
:1006B00064F5407404D25FEA4E0E6D4146EB0606C7
:1006C00042EAC62141EA55514FEAC52040EA5E5050
:1006D0004FEACE2EB4F1FD0C88BFBCF5E06F1ED8FA
:1006E000BEF1004F08BF5FEA500E50F1000041EB31
:1006F000045170BD06F0004646EA010140EA0200DE
:1007000081EA0301B4EB5C04C2BFD4EB0C0541EAFF
:10071000045170BD41F480114FF0000E013C00F314
:10072000AB8014F1360FDEBF002001F0004170BD38
:10073000C4F10004203C35DA0C341BDC04F1140451
:10074000C4F1200500FA05F320FA04F001FA05F2DD
:1007500040EA020001F0004221F0004110EBD370AA
:1007600021FA04F642EB06015EEA430E08BF20EAD6
:10077000D37070BDC4F10C04C4F1200500FA04F379
:1007800020FA05F001FA04F240EA020001F000410B
:1007900010EBD37041F100015EEA430E08BF20EA7E
:1007A000D37070BDC4F1200500FA05F24EEA020EC6
:1007B00020FA04F301FA05F243EA020321FA04F0F5
:1007C00001F0004121FA04F220EA020000EBD370AC
:1007D0005EEA430E08BF20EAD37070BD94F0000FAC
:1007E0000FD101F00046400041EB010111F4801FE0
:1007F00008BF013CF7D041EA060195F0000F18BF91
:10080000704703F00046520043EB030313F4801FCC
:1008100008BF013DF7D043EA0603704794EA0C0F86
:100820000CEA135518BF95EA0C0F0CD050EA41069C
:1008300018BF52EA4306D1D181EA030101F0004119
:100840004FF0000070BD50EA410606BF1046194641
:1008500052EA430619D094EA0C0F02D150EA01364D
:1008600013D195EA0C0F05D152EA03361CBF10468E
:1008700019460AD181EA030101F0004141F0FE412D
:1008800041F470014FF0000070BD41F0FE4141F4B1
:10089000780170BD70B54FF0FF0C4CF4E06C1CEAB1
:1008A00011541DBF1CEA135594EA0C0F95EA0C0F66
:1008B00000F0A7F8A4EB050481EA030E52EA033521
:1008C0004FEA013100F088804FEA03334FF0805542
:1008D00045EA131343EA12634FEA022245EA11156F
:1008E00045EA10654FEA00260EF000419D4208BF20
:1008F000964244F1FD0404F5407402D25B084FEACD
:100900003202B61A65EB03055B084FEA32024FF478
:1009100080104FF4002CB6EB020E75EB030E22BFD5
:10092000B61A754640EA0C005B084FEA3202B6EB95
:10093000020E75EB030E22BFB61A754640EA5C0044
:100940005B084FEA3202B6EB020E75EB030E22BFD4
:10095000B61A754640EA9C005B084FEA3202B6EBD5
:10096000020E75EB030E22BFB61A754640EADC0094
:1009700055EA060E18D04FEA051545EA16754FEAF6
:1009800006164FEAC30343EA52734FEAC2025FEA14
:100990001C1CC0D111F4801F0BD141EA00014FF0A3
:1009A00000004FF0004CB6E711F4801F04BF014374
:1009B0000020B4F1FD0C88BFBCF5E06F3FF6AFAE90
:1009C000B5EB030C04BFB6EB020C5FEA500C50F120
:1009D000000041EB045170BD0EF0004E4EEA1131A3
:1009E00014EB5C04C2BFD4EB0C0541EA045170BDAA
:1009F00041F480114FF0000E013C90E645EA060EEE
:100A00008DE60CEA135594EA0C0F08BF95EA0C0F1B
:100A10003FF43BAF94EA0C0F0AD150EA01347FF463
:100A200034AF95EA0C0F7FF425AF104619462CE73A
:100A300095EA0C0F06D152EA03353FF4FDAE10469D
:100A4000194622E750EA410618BF52EA43067FF4EE
:100A5000C5AE50EA41047FF40DAF52EA43057FF47E
:100A6000EBAE12E74FF0FF3C06E000BF4FF0010C89
:100A700002E000BF4FF0010C4DF804CD4FEA410CED
:100A80007FEA6C5C4FEA430C18BF7FEA6C5C1BD0BA
:100A900001B050EA410C0CBF52EA430C91EA030F3B
:100AA00002BF90EA020F0020704710F1000F91EA98
:100AB000030F58BF994208BF90422CBFD8176FEA66
:100AC000E37040F0010070474FEA410C7FEA6C5C34
:100AD00002D150EA013C07D14FEA430C7FEA6C5C3B
:100AE000D6D152EA033CD3D05DF8040B704700BF67
:100AF0008446104662468C461946634600E000BFB5
:100B000001B5FFF7B7FF002848BF10F1000F01BD86
:100B10004DF808EDFFF7F4FF0CBF012000205DF851
:100B200008FB00BF4DF808EDFFF7EAFF34BF0120D6
:100B300000205DF808FB00BF4DF808EDFFF7E0FF6F
:100B400094BF012000205DF808FB00BF4DF808EDC0
:100B5000FFF7CEFF94BF012000205DF808FB00BF27
:100B60004DF808EDFFF7C4FF34BF012000205DF809
:100B700008FB00BF4FEA410C7FEA6C5C02D150EAEF
:100B8000013C0AD14FEA430C7FEA6C5C02D152EA85
:100B9000033C02D14FF0000070474FF00100704756
:100BA0004FEA410212F5001215D211D56FF4787395
:100BB000B3EB625212D94FEAC12343F0004343EA38
:100BC000505311F0004F23FA02F018BF4042704713
:100BD0004FF00000704750EA013005D111F000409D
:100BE00008BF6FF0004070474FF00000704700BF33
:100BF00080F0004002E000BF81F0004142001FBFD2
:100C00005FEA410392EA030F7FEA226C7FEA236CDA
:100C10006AD04FEA1262D2EB1363C1BFD2184140CF
:100C200048404140B8BF5B42192B88BF704710F065
:100C3000004F40F4000020F07F4018BF404211F008
:100C4000004F41F4000121F07F4118BF494292EA70
:100C5000030F3FD0A2F1010241FA03FC10EB0C009C
:100C6000C3F1200301FA03F100F0004302D5494229
:100C700060EB4000B0F5000F13D3B0F1807F06D3D6
:100C800040084FEA310102F10102FE2A51D2B1F1CE
:100C9000004F40EBC25008BF20F0010040EA0300C3
:100CA0007047490040EB000010F4000FA2F1010270
:100CB000EDD1B0FA80FCACF1080CB2EB0C0200FAFA
:100CC0000CF0AABF00EBC25052421843BCBFD04048
:100CD0001843704792F0000F81F4000106BF80F4C2
:100CE00000000132013BB5E74FEA41037FEA226C85
:100CF00018BF7FEA236C21D092EA030F04D092F050
:100D0000000F08BF0846704790EA010F1CBF002083
:100D1000704712F07F4F04D1400028BF40F00040E0
:100D2000704712F100723CBF00F50000704700F000
:100D3000004343F0FE4040F4000070477FEA226227
:100D400016BF08467FEA23630146420206BF5FEAF8
:100D5000412390EA010F40F4800070474FF00003F8
:100D600004E000BF10F0004348BF40425FEA000CBF
:100D700008BF704743F0964301464FF000001CE067
:100D800050EA010208BF70474FF000030AE000BFBD
:100D900050EA010208BF704711F0004302D54042FB
:100DA00061EB41015FEA010C02BF8446014600206D
:100DB00043F0B64308BFA3F18053A3F50003BCFA88
:100DC0008CF2083AA3EBC25310DB01FA02FC634435
:100DD00000FA02FCC2F12002BCF1004F20FA02F23C
:100DE00043EB020008BF20F00100704702F120022F
:100DF00001FA02FCC2F1200250EA4C0021FA02F290
:100E000043EB020008BF20EADC70704753B94AB9CF
:100E1000002908BF00281CBF4FF0FF314FF0FF3002
:100E200000F07AB9ADF1080C6DE904CE00F006F8D7
:100E3000DDF804E0DDE9022304B070472DE9F04756
:100E40008C460D460446089E002B51D18A42174617
:100E50006DD9B2FA82FEBEF1000F0BD0CEF1200C9C
:100E600001FA0EF520FA0CFC02FA0EF74CEA050C1A
:100E700000FA0EF44FEA174A250CBCFBFAF81FFAE9
:100E800087F90AFB18CC45EA0C4508FB09F3AB428D
:100E90000AD9ED1908F1FF3280F02381AB4240F20C
:100EA0002081A8F102083D44ED1AA4B2B5FBFAF086
:100EB0000AFB105544EA054400FB09F9A14509D98C
:100EC000E41900F1FF3380F00A81A14540F2078167
:100ED00002383C44A4EB090440EA08400021002EFB
:100EE00061D024FA0EF4002334607360BDE8F0870B
:100EF0008B4207D9002E54D0002186E821000846F5
:100F0000BDE8F087B3FA83F1002940F08E80AB4250
:100F100002D3824200F2FA80841A65EB03050120B5
:100F2000AC46002E3FD086E81010BDE8F08712B91D
:100F30000127B7FBF2F7B7FA87FEBEF1000F34D1F5
:100F4000EB1B3A0C1FFA87FC0121B3FBF2F8250CCE
:100F500002FB183345EA03450CFB08F3AB4207D903
:100F6000ED1908F1FF3002D2AB4200F2D180804689
:100F7000ED1AA3B2B5FBF2F002FB105543EA0544AB
:100F80000CFB00FCA44507D9E41900F1FF3302D2A1
:100F9000A44500F2B8801846A4EB0C0440EA0840CF
:100FA0009DE731463046BDE8F087CEF1200405FAD2
:100FB0000EF307FA0EF720FA04F83A0C25FA04F4B7
:100FC00048EA0308B4FBF2F14FEA184502FB11446A
:100FD0001FFA87FC45EA044501FB0CF3AB4200FA1B
:100FE0000EF409D9ED1901F1FF3080F08A80AB428F
:100FF00040F2878002393D44EB1A1FFA88F5B3FBB3
:10100000F2F002FB103345EA034500FB0CF3AB4260
:1010100007D9ED1900F1FF386FD2AB426DD9023814
:101020003D44EB1A40EA01418FE7C1F1200722FA63
:1010300007F88B4005FA01F448EA030320FA07FE9B
:101040004FEA134CFD404EEA040EB5FBFCF94FEAA3
:101050001E440CFB19551FFA83F844EA054509FBA9
:1010600008F4AC4202FA01F200FA01FA08D9ED18CC
:1010700009F1FF3043D2AC4241D9A9F102091D4424
:101080002D1B1FFA8EFEB5FBFCF00CFB10554EEA33
:10109000054400FB08F8A04507D9E41800F1FF3526
:1010A00029D2A04527D902381C4440EA0940A4EBC4
:1010B0000804A0FB02894C45C6464D4615D312D004
:1010C00056B1BAEB0E0364EB050404FA07F7CB4004
:1010D0001F43CC40376074600021BDE8F08718469C
:1010E000F8E69046E0E6C245EAD2B8EB020E69EBBC
:1010F00003050138E4E72846D7E7404691E78146F3
:10110000BEE7014678E702383C4445E7084608E771
:10111000A8F102083D442BE7704700BF38B50E4ADE
:101120000E4B054618784FF47A73B3FBF0F3106852
:10113000B0FBF3F000F0BAFA044658B90F2D09D805
:10114000024629464FF0FF3000F06EFA044B20466D
:101150001D6038BD012038BD0C00002000000020BB
:101160000400002008B50B4B1A6842F400721A60A4
:101170001A6842F480621A601A6842F480721A6037
:10118000032000F03FFA0020FFF7C8FF03F05EF9EC
:10119000002008BD003C0240034A044B11681B7844
:1011A0000B441360704700BF600200200000002065
:1011B000014B1868704700BF6002002038B5044634
:1011C000FFF7F6FF631C1CBF054B1B78054618BFD5
:1011D000E418FFF7EDFF401B8442FAD838BD00BF8A
:1011E0000000002038B50446002800F09B80056C04
:1011F00025B902F00FFA656484F83C50236CDB06D5
:1012000000F18E80236C23F4885323F0020343F013
:1012100002032364444B5A6822F440325A605A68ED
:1012200061680A435A60236821695A6822F480720F
:101230005A605A6842EA01225A605A68A16822F04C
:1012400040725A605A680A435A609A68E16822F408
:1012500000629A609A680A439A603449A26A8A4294
:1012600052D0996821F07061996099680A439A6038
:101270009A68E16A22F040529A609A680A439A603A
:101280009A68217E22F002029A609A6842EA41023C
:101290009A6094F82020002A3ED05A68616A42F48D
:1012A00000625A605A6822F460425A605A680139F2
:1012B00042EA41325A60DA6AE16922F47002DA6283
:1012C000DA6A013942EA0152DA629A6894F8301017
:1012D00022F400729A609A6842EA41229A609A68FF
:1012E000616922F480629A609A68002042EA812251
:1012F0009A606064236C23F0030343F001032364CA
:10130000002384F83C3038BD9A6822F070629A60FD
:101310009A6822F04052B2E75A6822F40062C9E7A4
:101320000120EDE7012038BD002301400100000F3E
:1013300037B513460022019290F83C20012A04465A
:1013400065D00568012280F83C20AA68D20705D53F
:10135000AA68D00715D4002003B030BDAA6842F0B7
:101360000102AA602B4A10682B4AB0FBF2F000EB96
:1013700040000190019A002AEAD0019A013A0192B4
:10138000F8E7206C20F4E06020F0010040F4807069
:1013900020646A68520541BF206C20F4405040F43C
:1013A00080502064226CA06B12F480521CBF626CCF
:1013B00022F006026264002284F83C20174AC263CD
:1013C000174A0264174AC2646FF022022A606A68F0
:1013D00042F080626A60AA6842F48072AA600A469B
:1013E00005F14C0100F00CFA0F4B5B6813F01F0F76
:1013F000236808D1986810F04050ACD19A6842F048
:1014000080429A60A8E7094A9342A4D1F2E70220F9
:10141000A2E700BF0C00002040420F005514000856
:10142000331400083F14000800230140002001404D
:10143000704708B5806BFFF7FBFF08BD7047806BF6
:1014400008B540230364436C43F004034364FFF78F
:10145000F5FF08BD836B1A6C12F0500F10B51A6CB3
:1014600023D142F400721A641A68916811F0405F47
:1014700017D1197EA9B9D16A11F4700F02D0916801
:1014800048050ED4516821F0200151601A6C22F4F5
:1014900080721A641A6CD1045EBF1A6C42F00102A9
:1014A0001A64184602F05EFC10BDD20603D5184639
:1014B000FFF7C4FF10BD9B6BBDE81040DB6C184705
:1014C000F7B50023019390F83C30012B6ED00D68E6
:1014D00004688A680123092D80F83C30AEB22AD90D
:1014E00006EB4603E7681E3B4FF0070E0EFA03FEBD
:1014F00027EA0E07E760E76802FA03F33B43E3607D
:101500004A68062A4FEA820325D81344676B591F9D
:101510001F238B4027EA03036363626B06FA01F122
:1015200011436163324B9C4234D0002380F83C303D
:10153000184603B0F0BD276905EB45034FF0070ED1
:101540000EFA03FE27EA0E072761276902FA03F362
:101550003B432361D4E70C2A0ED81344216BA3F13B
:1015600023021F23934021EA03032363236B06FA1C
:1015700002F21A432263D5E71344E16A413B1F227A
:101580009A4021EA0202E262E26A06FA03F111439A
:10159000E162C7E7122D0BD1164B5A6822F4000204
:1015A0005A605A6842F480025A60BEE70220C0E7DF
:1015B000114B9D4201D0112DB7D10E4B5A6822F428
:1015C00080025A605A6842F400025A600A4B9D42F7
:1015D000ABD10A4B0A4A1B68B3FBF2F20A2353430E
:1015E0000193019B002BA0D0019B013BF8E700BFBA
:1015F0000020014000230140120000100C000020D8
:1016000040420F00074AD36823F4E0631B041B0C1D
:1016100043F0BF63000243F4003300F4E06003438F
:10162000D360704700ED00E0174B30B5DC68C4F3C1
:101630000224C4F10703251D042B28BF0423062D13
:101640004FF0010505FA03F303F1FF338CBF033CB0
:1016500000241940A14005FA04F4013C224000286E
:1016600042EA01024FEA0212ADBF00F1604000F011
:101670000F00064B00F56140B5BFD2B2D2B21A548A
:1016800080F8002330BD00BF00ED00E014ED00E065
:10169000002808DB4209012300F01F0003FA00F0D4
:1016A000014B43F82200704700E100E00138B0F13F
:1016B000807F0AD2064B074A5860F02182F8231037
:1016C0000020072298601A6070470120704700BF11
:1016D00010E000E000ED00E00368DAB223F47F736D
:1016E00023F003031821103AB2FBF1F20449032A54
:1016F00088BF0433895C8365C165806D704700BF16
:101700002075000870B50446FFF752FD0546002C11
:1017100071D0002384F834302268022384F83530F5
:10172000136823F00103136021680B68D8073CD4C9
:101730000B68324D6268A0691D40A3681343E268DC
:1017400013432269134362691343E269034313435A
:10175000226A1343626A042A43EA050301BF266B27
:10176000E56A35432B430B604B69042A23F00703DA
:1017700043EA02030BD1A26AE56A13433DB1F8B90B
:10178000012A2DD001D3022A01D1EA012BD44B61C9
:101790002046FFF7A1FFE26D3F23934083600020C6
:1017A0000123606584F8353070BDFFF701FD401BF3
:1017B0000528B9D920236365032084F8350070BD5E
:1017C000B0F5005F13D1032AE1D801A050F822F050
:1017D000E71700088B170008E7170008E117000853
:1017E000B5F1C07FD3D1402363650120E5E7022A2C
:1017F000F9D9032AC8E7012070BD00BF3F8010E07F
:1018000070B590F83440012C36D0012480F8344073
:1018100090F83540866D012C4FF000054FF0020422
:1018200028D180F8354004684565256825F4802571
:10183000256063608368402B0EBFA260A160E260F8
:10184000C26D08BFE1603F239340B360236843F05B
:1018500016032360636943F080036361036C1BB16B
:10186000236843F008032360236843F001032360E7
:10187000002070BD80F83450022070BD70B5044661
:10188000856DFFF795FC94F83530022B064606D09F
:1018900080236365002384F83430012070BD236801
:1018A0001A6822F016021A605A6922F080025A6100
:1018B000226C0AB9A26C1AB11A6822F008021A60E6
:1018C0001A6822F001021A602368186810F00100FB
:1018D00009D1E26D3F239340AB60012384F83400CB
:1018E00084F8353070BDFFF763FC801B0528EBD909
:1018F000202363650320002384F8343084F8350006
:1019000070BD90F83530022B03D080234365012051
:1019100070470268052380F83530136823F001030F
:101920001360002070470000F7B5002301935A4B65
:10193000856D1F68C36D2E6808229A4016420446C2
:101940000CD001680868400708D5086820F004003A
:101950000860AA60626D42F00102626501229A404D
:10196000164208D021684969090641BFAA60626D24
:1019700042F00202626504229A40164208D02168B1
:101980000968880741BFAA60626D42F0040262657F
:1019900010229A40164210D02368196809070CD506
:1019A000AA601A68500335D51B68190301D4236C4B
:1019B00000E0A36C0BB120469847E16D20228A40DD
:1019C000164238D023681868C60634D5AA6094F841
:1019D0003520052A1A6825D122F016021A605A69A4
:1019E00022F080025A61226C0AB9A26C1AB11A68FC
:1019F00022F008021A603F238B40AB60002384F87A
:101A00003430012384F83530236D0BB120469847DC
:101A100003B0F0BD1A68D2055EBF1A6822F0080252
:101A20001A60C4E7500328D51B68190332D4636CCD
:101A30000BB120469847636D002BE9D0636DDA0740
:101A400019D50523226884F83530136823F0010383
:101A500013604FF41653B7FBF3F7019B01339F421A
:101A6000019302D31368DB07F7D4002384F83430E2
:101A7000012384F83530E36CC7E71A6812F48072EA
:101A800008D1196821F010011960012384F834206D
:101A900084F83530E36BCBE70C00002090F834304D
:101AA000012B10B504461FD0012380F8343090F884
:101AB0003500984213D1052905D8DFE801F0030667
:101AC000080A0C0EE26300200AE02264FBE762646D
:101AD000F9E7A264F7E7E264F5E72265F3E7184661
:101AE000002384F8343010BD022010BD2DE9F04FE2
:101AF00085B00B68DFF8A081654ADFF8A0910193FB
:101B000000234FF0010E019C0EFA03FE0EEA0406BC
:101B1000B64540F0AA804C6824F01007022F16D179
:101B20004FEAD30A00EB8A0A03F0070BDAF82050D9
:101B30004FEA8B0B4FF00F0C0CFA0BFC25EA0C0C48
:101B40000D6905FA0BF545EA0C05CAF820504FEA75
:101B5000430A0325D0F800B005FA0AF5ED4304F076
:101B6000030C0BEA050B0CFA0AFC013F4CEA0B0CC8
:101B7000012FC0F800C011D8876807EA050BCF68AD
:101B800007FA0AFC4CEA0B078760476827EA0E0E43
:101B9000C4F300179F4047EA0E074760C7683D40FF
:101BA0008F6807FA0AF73D43C560E5005DD54FF041
:101BB000000BCDF80CB0D8F84470364D47F4804790
:101BC000C8F84470D8F8447007F480470397039F1F
:101BD00023F0030707F1804707F59C3703F0030C58
:101BE000D7F808A04FEA8C0C4FF00F0E0EFA0CFE3F
:101BF000A8422AEA0E0E3FD005F58065A8423DD0E6
:101C000005F58065A8423BD005F58065A84239D02E
:101C100005F58065A84237D0484537D005F5006501
:101C2000A84214BF0725062505FA0CF545EA0E055E
:101C3000BD601568F74314F4803F0CBF3D40354349
:101C40001560556814F4003F0CBF3D4035435560A6
:101C5000956814F4801F0CBF3D4035439560D568EE
:101C6000A40254BF3D403543D5600133102B7FF4AF
:101C700048AF05B0BDE8F08F5D46D5E70125D3E755
:101C80000225D1E70325CFE70425CDE70525CBE7DE
:101C9000003C0140000002400038024000140240B5
:101CA0000AB1816170470904FBE7436931EA030324
:101CB00008BF090481617047134908B58B6803F0B8
:101CC0000C03042B03D0082B03D0104808BD104888
:101CD00008BD4A684B68496813F4800314BF0C4878
:101CE0000A48C1F3881118BF002302F03F02A1FB8C
:101CF0000001FFF78BF8044B5B68C3F3014301332A
:101D00005B00B0FBF3F008BD003802400024F40093
:101D100040787D012DE9F0410D46044610B90120BF
:101D2000BDE8F081444B1A6802F00F028A4228D3C2
:101D300021688F072DD4C80740D43F4B1A6802F0A2
:101D40000F02954266D3226851076CD4130707D55A
:101D50003A4A2169936823F4604343EAC1039360DC
:101D6000FFF7AAFF354B364A9B68C3F30313D35CD6
:101D7000D840344B18600020FFF7D0F90020BDE8B0
:101D8000F081CAB21A701B6803F00F039942C6D1E2
:101D9000CEE72A4B11F0040F1EBF9A6842F4E052BE
:101DA0009A600E0742BF9A6842F460429A609A684D
:101DB000A06822F0F00202439A60BCE762681F4B01
:101DC000012A1DD11B6813F4003FA8D01B4EB36835
:101DD00023F003031343B360FFF7EAF941F28838B5
:101DE0000746B368626803F00C03B3EB820FA4D01C
:101DF000FFF7DEF9C01B4045F3D90320BDE8F081B1
:101E0000911E01291B6802D813F0007FDDE713F053
:101E1000020FDAE7EAB21A701B6803F00F039D4263
:101E20007FF47DAF8FE70549E0688B6823F4E053CA
:101E300003438B608AE700BF003C02400038024049
:101E4000427600080C000020044B054A9B68C3F34F
:101E50008223D35C034A1068D840704700380240A0
:101E6000527600080C000020044B054A9B68C3F31F
:101E70004233D35C034A1068D840704700380240B0
:101E8000527600080C00002003682DE9F341DD07BD
:101E9000044610D4236898075BD423681A0700F11E
:101EA0009D8023685B0700F1BB80A269002A40F097
:101EB0001C81002015E0A74B9A6802F00C02042A4E
:101EC00007D09A6802F00C02082A0DD15B6859020B
:101ED0000AD5A04B1B689A03DCD56368002BD9D1C7
:101EE000012002B0BDE8F08163689A4DB3F5803FF0
:101EF00011D12B6843F480332B60FFF759F9954DCE
:101F000006462B689B03C5D4FFF752F9801B642853
:101F1000F7D90320E5E7B3F5A02F04D12B6843F4EC
:101F200080232B60E5E72A6822F480322A602A6841
:101F300022F480222A60002BDFD1FFF739F9064610
:101F40002B689F03A6D5FFF733F9801B6428F7D9C8
:101F5000DFE7804B9A6812F00C0F07D09A6802F006
:101F60000C02082A11D15B685E020ED4794B1A6804
:101F7000950702D5E268012AB2D11A68216922F0D8
:101F8000F80242EAC1021A6087E7E268724BB2B116
:101F900001221A60FFF70CF96E4D06462B68980770
:101FA00007D52B68226923F0F80343EAC2032B60AC
:101FB00073E7FFF7FDF8801B0228EFD9A9E71A6045
:101FC000FFF7F6F8634D06462B6899077FF565AF76
:101FD000FFF7EEF8801B0228F6D99AE762695F4B9B
:101FE0007AB101221A60FFF7E3F85A4D06466B6F8B
:101FF0009F073FF556AFFFF7DBF8801B0228F6D9A5
:1020000087E71A60FFF7D4F8524D06466B6F9807C2
:102010007FF547AFFFF7CCF8801B0228F6D978E7A9
:102020004C4B1A6C12F0805228D101921A6C42F07B
:1020300080521A641B6C03F080530193019B0126AC
:10204000474D2B68D9051BD5A368424D012B27D1DD
:102050002B6F43F001032B67FFF7AAF83D4D0746AE
:1020600041F288382B6F9B0739D5002E3FF41DAF06
:10207000384A136C23F08053136416E70026DFE719
:102080002B6843F480732B60FFF792F807462B68A8
:10209000DA05D9D4FFF78CF8C01B0228F7D938E746
:1020A000052B04D12B6F43F004032B67D0E72A6F75
:1020B00022F001022A672A6F22F004022A67002B0D
:1020C000CAD1FFF775F841F2883807462B6F980799
:1020D000CBD5FFF76DF8C01B4045F7D919E7FFF7DF
:1020E00067F8C01B4045BDD913E71A4DAB6803F034
:1020F0000C03082B3FF4F4AE1A4E0023022A33607F
:1021000038D1FFF755F807462B6899012CD4226A7D
:10211000E3691343626A43EA8213E26A43EA0263B1
:10212000226B43EA0273A26A0A4C5208013A43EA5C
:1021300002436B6001233360FFF73AF805462368DA
:102140009A013FF5B6AEFFF733F8401B0228F6D9E7
:10215000DFE600BF0038024000004742800E4742E1
:102160000070004060004742FFF722F8C01B0228C1
:10217000CAD9CEE6FFF71CF804462B689B017FF511
:1021800098AEFFF715F8001B0228F6D9C1E600BF8C
:10219000F8B504460E4615461F4621688A6836EA99
:1021A000020301D00020F8BD6B1CF7D0FFF700F848
:1021B000C01B8542F1D823685A6822F0E0025A60B9
:1021C0006268B2F5827F0AD1A268B2F5004F02D0F0
:1021D000B2F5806F03D11A6822F040021A60A26A39
:1021E000B2F5005F07D11A6822F400521A601A682B
:1021F00042F400521A60012384F85130002384F81D
:1022000050300320F8BD38B513464268B2F5827FDE
:1022100004461FD18268B2F5004F02D0B2F5806F3C
:1022200007D125682868B2F5806F20F0400028604B
:1022300007D00A4680212046FFF7AAFF20B90020D8
:1022400038BD0A460121F6E7636D43F0200363655C
:10225000032038BD0A460121EEE7000073B513469E
:10226000134A144E15684268B5FBF6F64FF47A75BA
:102270007543B2F5827F044601950DD10A4680214F
:10228000FFF786FF10B9002002B070BD636D43F008
:10229000200363650320F7E7019B002BF3D0019B2C
:1022A000013B019323689B681B06F5D4EBE700BF55
:1022B0000C00002000366E0110B50446002836D010
:1022C0000023836290F8513003F0FF021BB980F8BD
:1022D000502002F04BF82168A068A269022384F81C
:1022E00051300B6823F040030B6063680343E068E0
:1022F00003432069034360690343E0690343206AA1
:102300000343A06A034302F4007003430B60120C02
:10231000636A02F004021A434A60CB6923F4006343
:10232000CB6100200123606584F8513010BD01208D
:1023300010BD2DE9F3411E4690F85030012B0446A4
:102340000D46904600F09B80012380F85030FEF748
:102350002FFF074694F85100C0B2012840F08D804D
:10236000002D5DD0B8F1000F5AD0032384F851300E
:102370000020A3686065A063A4F83680A087E0878A
:102380006064206420682563B3F5004F08BF0368CC
:10239000A4F8348004BF43F48043036003685B0601
:1023A0005EBF036843F040030360E368B3F5006F6A
:1023B00063683ED113B1B8F1010F07D135F8023B84
:1023C000C3602563E38E013B9BB2E386E38E9BB241
:1023D000A3B93A4631462046FFF740FF002849D1CD
:1023E000A36833B901932368DA6801929B6801936B
:1023F000019B606D003018BF012011E022689368D6
:10240000980705D5236B33F8021BD1602363D9E706
:10241000FEF7CEFEC01BB042D8D3711CD6D003202D
:10242000012384F85130002384F8503002B0BDE815
:10243000F08113B1B8F1010F08D12B780373236B2E
:1024400001332363E38E013B9BB2E386E38E9BB2B1
:10245000002BBED023689A68920703D5226B1278AE
:102460001A73ECE7FEF7A4FEC01B8642EED8731C7D
:10247000ECD0D4E720236365B2E70220D0E7022046
:10248000D4E7000038B5044690F85000012872D017
:10249000012084F8500094F85100C0B2012808D0FF
:1024A0006568B5F5827F62D1A568002D5FD10428EB
:1024B0005DD100295DD0002A5BD0002B59D094F863
:1024C0005100A38604281CBF052084F85100002079
:1024D0006065E386E387A38794F851302064042B7A
:1024E0006064E06C0CBF254B254B2163A2630BBFDE
:1024F00003640364234B244BC363244BC364002352
:1025000003652168E38F0C319BB2FFF779F903462D
:1025100050B1636D012043F01003636584F85100EE
:10252000002384F8503038BD2268A06C516841F017
:10253000010151600364C363C3640365E38E216BCF
:102540009BB20C32FFF75CF90028E2D123681A68CD
:1025500052065EBF1A6842F040021A605A6842F0A2
:1025600020025A605A6842F002025A60D8E70220FC
:10257000D6E70120D4E7022038BD00BF952500082A
:10258000A1250008CF25000821260008AD25000858
:102590007047704708B5806BFFF7FBFF08BD7047B9
:1025A00008B5806BFFF7FBFF08BD7047806B0268C2
:1025B00008B5536823F003035360436D43F01003E1
:1025C0004365012380F85130FFF7EFFF08BD38B5B0
:1025D0000546846BFEF7ECFD2B681B68DB050246A5
:1025E0001AD42368596821F020015960596821F0F4
:1025F0000301596020466421FFF705FE08B120233E
:1026000063650023E387012384F85130636D1BB1B8
:102610002046FFF7CAFF38BD2046FFF7B9FF38BD97
:1026200038B50546846BFEF7C3FD2B681B68DB05D8
:1026300002461ED421684B6823F020034B602046DD
:102640006421FFF70BFE18B1636D43F0200363654F
:102650002268536823F0030353600023E386E38773
:10266000012384F85130636D1BB12046FFF79DFFB5
:1026700038BD204601F07EFA38BD0000036A23F021
:1026800001030362036A70B5446882690D6822F031
:1026900073022A438D6823F002032B430E4DA84298
:1026A00002D00E4EB04210D1CE6823F0080333435F
:1026B000A84223F0040302D0084DA84205D14D6979
:1026C0008E6924F4407435432C43446082614A6827
:1026D0004263036270BD00BF00000140000401407E
:1026E000036A23F480730362036A70B54468C269A5
:1026F0000D6822F073022A438D6823F4007343EAC5
:102700000523114DA84203D005F58065A84214D1D8
:10271000CD6823F4006343EA05230B4DA84223F45C
:10272000806303D005F58065A84206D14D698E69A6
:1027300024F44054354344EA05144460C2614A68B5
:10274000C263036270BD00BF00000140036A23F44E
:1027500080530362036A30B54468C2690D6822F48D
:10276000E64242EA05228D6823F4005343EA05332A
:10277000084DA84203D005F58065A84204D14D69F3
:1027800024F4804444EA85144460C2614A680264C7
:10279000036230BD000001400368DA6842F00102C4
:1027A000DA609A6802F00702062A1EBF1A6842F031
:1027B00001021A60002070477047036889B104293C
:1027C00007D01A6A22F001021A621A6A42F0010264
:1027D0001A621A6A22F010021A621A6A42F0100291
:1027E00006E01A6A22F001021A621A6A42F0010235
:1027F0001A621A6842F001021A600020704770479E
:10280000704770477047704703681A69910710B5A1
:1028100004460ED5DA6892070BD56FF002021A61F2
:102820009B6901229B07027777D0FFF7EAFF00231D
:10283000237723681A69500710D5DA6851070DD538
:102840006FF004021A619B69022213F4407F227721
:10285000204668D0FFF7D5FF0023237723681A6945
:1028600012070FD5DA6810070CD56FF008021A614D
:10287000DB6904229907227720465AD0FFF7C1FF6F
:102880000023237723681A69D20610D5DA68D006A8
:102890000DD56FF010021A61DB69082213F4407F36
:1028A000227720464BD0FFF7ACFF00232377236825
:1028B0001A69D10708D5DA68D20705D56FF0010289
:1028C0001A612046FFF79BFF23681A69100608D596
:1028D000DA68110605D56FF080021A61204600F013
:1028E000C4FA23681A69520608D5DA68500605D575
:1028F0006FF040021A612046FFF785FF23681A69CE
:10290000910622D5DA6892061FD56FF02002204684
:102910001A61BDE8104000F0A7BAFFF771FF20462A
:10292000FFF770FF83E7FFF76BFF2046FFF76AFFB3
:1029300092E7FFF765FF2046FFF764FFA0E7FFF788
:102940005FFF2046FFF75EFFAFE710BD304A036828
:10295000904212D0B0F1804F0FD0A2F57C4290424D
:102960000BD002F58062904207D002F5806290425F
:1029700003D002F57842904219D14A6823F07003DF
:102980001343234A904229D0B0F1804F26D0A2F5BC
:102990007C42904222D002F5806290421ED002F525
:1029A000806290421AD002F57842904216D0194ABD
:1029B000904213D002F5806290420FD002F58062FF
:1029C00090420BD0A2F59832904207D002F5806277
:1029D000904203D002F58062904203D1CA6823F48A
:1029E000407313434A6923F08003134303608B68E9
:1029F000C3620B688362064B984203D003F5806381
:102A0000984201D10B69036301234361704700BF02
:102A1000000001400040014010B50446A0B190F80C
:102A20003D3003F0FF021BB980F83C2001F0D6FED8
:102A3000022384F83D302068211DFFF787FF012322
:102A400084F83D30002010BD012010BD10B50446B3
:102A5000A0B190F83D3003F0FF021BB980F83C2094
:102A6000FFF7AAFE022384F83D302068211DFFF7FE
:102A70006DFF012384F83D30002010BD012010BD02
:102A8000F8B50C460546002843D090F83D3003F0D9
:102A9000FF021BB980F83C2001F030FF29460223D9
:102AA00051F8040B85F83D30836823F4804323F00C
:102AB00007038360FFF74AFF2868236886688269F6
:102AC000A168076A1E43A36922F4407222F0030240
:102AD00041EA0323134323F47C422369E1691B0188
:102AE00043EA0123E1680B43216A22F0FC0243EA36
:102AF00001331343616927F0AA026768866047EAD9
:102B00000117836117430123076285F83D300020D8
:102B1000F8BD0120F8BD0000036A23F01003036232
:102B2000036A70B5446882690D6822F4E64242EA9D
:102B300005228D6823F0200343EA0513104DA842B7
:102B400003D005F58065A84214D1CD6823F0800339
:102B500043EA05130A4DA84223F0400303D005F5CC
:102B60008065A84206D14D698E6924F440643543DE
:102B700044EA8504446082614A688263036270BDEE
:102B80000000014038B590F83C30012B04464FF06E
:102B9000020025D0012384F83C3084F83D000C2A43
:102BA00018D8DFE802F0071717171E1717172F1787
:102BB000171740002068FFF761FD236809699A69CB
:102BC00042F008029A619A6922F004029A619A69B5
:102BD0000A439A610123002084F83D3084F83C00C8
:102BE00038BD2068FFF798FF236809699A6942F4A5
:102BF00000629A619A6922F480629A619A6942EA53
:102C00000122E6E72068FFF76BFD23680969DA69AE
:102C100042F00802DA61DA6922F00402DA61DA6964
:102C20000A43DA61D6E72068FFF790FD2368096957
:102C3000DA6942F40062DA61DA6922F48062DA6108
:102C4000DA6942EA0122ECE710B584680A4324F409
:102C50007F4442EA03232343836010BD90F83C3055
:102C6000012B70B504464FF0020019D084F83D00E6
:102C70002068012384F83C30836823F47F4323F0E9
:102C8000770383600B68402B65D015D8102B0CD0D0
:102C900007D853B10123002084F83D3084F83C006C
:102CA00070BD202B01D0302BF4D1826843F0070394
:102CB00022F0700213431AE0602B34D019D8502B45
:102CC000E8D14A68CE68016A056A25F00105056207
:102CD000836921F00A0123F0F00343EA06130A4353
:102CE00083610262836823F0700343F057038360BB
:102CF000D0E7702B0CD0B3F5005FCBD1CB684A681E
:102D00008968FFF7A1FF2268936843F4804308E0D5
:102D1000CB684A688968FFF797FF2268936843F099
:102D200077039360B6E74D68CE68016A21F0100121
:102D300001628269036A22F4704223F0A00343EA2D
:102D4000051342EA063282610362836823F070034E
:102D500043F06703CBE74A68CE68016A056A25F04D
:102D600001050562836921F00A0123F0F00343EABB
:102D700006130A4383610262836823F0700343F001
:102D80004703B4E7036A01F01F0110B501248C402A
:102D900023EA04030362036A8A401A43026210BDF5
:102DA00010B5044601220068FFF7ECFF23680B4AC8
:102DB00093420ED002F5806293420AD09A6802F0E4
:102DC0000702062A03D01A6842F001021A600020A6
:102DD00010BD5A6C42F400425A64EFE70000014013
:102DE00090F83C30012B30B54FF0020314D004684A
:102DF00080F83D306268A3680D68496822F070026F
:102E000023F080030B432A436260A360012380F810
:102E10003D30002380F83C30184630BD90F83C30FF
:102E2000012B1FD0CB688A6823F4407313434A6890
:102E300023F4806313430A6823F4006313430A698D
:102E400023F4805313434A6923F400531343CA699C
:102E500023F48043134302685364002380F83C301A
:102E60001846704702207047704770470368DA6859
:102E700022F49072DA605A6922F001025A6120232A
:102E800080F83A30704700002DE9F0470668C268C4
:102E90003369C16923F440531343336104468368A3
:102EA0000069F2680343606922F41642034322F08A
:102EB0000C020B431343F3607369A26923F440735C
:102EC0001343B1F5004F73617A4B7CD19E4203D01E
:102ED00003F580639E4244D1FEF7C6FF192505FB2A
:102EE00000F360684FF064094000B3FBF0F3B3FBFC
:102EF000F9F34FEA0318FEF7B7FF636868435B0016
:102F0000B0FBF3F7FEF7B0FF636868435B00B0FB0C
:102F1000F3F3B3FBF9F309FB1373DB003233B3FBB9
:102F2000F9F35B0003F4F877FEF79EFF62686843ED
:102F30005200B0FBF2FAFEF797FF636868435B004C
:102F4000B0FBF3F3B3FBF9F309FB13A3DB0032335C
:102F5000B3FBF9F303F0070343443B44B360BDE81C
:102F6000F087FEF771FF192505FB00F360684FF04D
:102F700064094000B3FBF0F3B3FBF9F34FEA031825
:102F8000FEF762FF636868435B00B0FBF3F7FEF790
:102F90005BFF636868435B00B0FBF3F3B3FBF9F3DB
:102FA00009FB1373DB003233B3FBF9F35B0003F46B
:102FB000F877FEF749FF626868435200B0FBF2FA07
:102FC000FEF742FFB9E79E4202D03B4B9E4240D102
:102FD000FEF74AFF676819254FF0640905FB00F307
:102FE000BF00B3FBF7F3B3FBF9F31F01FEF73CFFA0
:102FF000636868439B00B0FBF3F8FEF735FF636836
:1030000068439B00B0FBF3F3B3FBF9F309FB1383B5
:103010001B013233B3FBF9F303F0F008FEF724FF92
:10302000626868439200B0FBF2FAFEF71DFF636826
:1030300068439B00B0FBF3F3B3FBF9F309FB13A365
:103040001B013233B3FBF9F303F00F0343EA080328
:1030500083E7FEF7F9FE676819254FF0640905FB61
:1030600000F3BF00B3FBF7F3B3FBF9F31F01FEF767
:10307000EBFE636868439B00B0FBF3F8FEF7E4FEE9
:10308000636868439B00B0FBF3F3B3FBF9F309FB00
:1030900013831B013233B3FBF9F303F0F008FEF79F
:1030A000D3FE626868439200B0FBF2FAFEF7CCFEF2
:1030B000BDE700BF0010014000140140F8B5044610
:1030C0000E4617461D4621680B6836EA030301D1F8
:1030D0000020F8BD6B1CF7D095B92368DA6822F49C
:1030E000D072DA605A6922F001025A61202384F812
:1030F000393084F83A30002384F838300320F8BDA2
:10310000FEF756F8C01B8542DDD2E6E710B504464F
:1031100040B390F8393003F0FF021BB980F8382033
:1031200001F008FD2268242384F83930D36823F4A1
:103130000053D3602046FFF7A7FE23681A6922F4E4
:1031400090421A615A6922F02A025A61DA6842F4FE
:103150000052DA6000202023E06384F8393084F8DC
:103160003A3010BD012010BD2DE9F0411F4690F806
:103170003A30202B04460D46904652D100294DD0BE
:10318000002A4BD090F83830012B4AD0012380F828
:1031900038300023C363222380F83A30FEF708F862
:1031A000A4F82C800646A4F82E80E08D80B230B9B9
:1031B000202384F83A3084F83800BDE8F081E38DAC
:1031C000013B9BB2E385A368B3F5805F32463B4683
:1031D0004FF02001204612D1FFF770FF10B10320FD
:1031E000BDE8F081236822695B6822B9C3F3080354
:1031F00025F8023BD9E7DBB225F8013BD5E7FFF71D
:103200005DFF0028EBD1236821695B686A1C11B956
:103210002B701546C9E703F07F03F9E70120BDE8ED
:10322000F0810220BDE8F08138B50446134694F8D9
:103230003920202A2AD139B333B394F83820012A0F
:1032400024D0012284F83820206BE3840025212239
:10325000E56384F839200E4AA3842162C2630D4AD3
:1032600002640D4AC264226805650432FEF7C8FA9A
:1032700023686FF040021A605A6984F8385042F0AF
:1032800080025A61284638BD012038BD022038BD71
:10329000FB32000829330008B333000803685A6979
:1032A00090F83910212910B5044611D111060FD517
:1032B0005A69006B22F080025A6108B1FEF7DEFA0B
:1032C0002268D36823F0C003D360202384F8393008
:1032D00023685A6994F83A1022290CD152060AD56B
:1032E0005A69606B22F040025A6108B1FEF7C6FAD3
:1032F0002046FFF7BBFD002010BD08B50368826BB8
:103300001B6813F480730AD1D38413685A6922F0BE
:1033100080025A61DA6842F04002DA6008BD104665
:1033200000F096FA08BD704708B5806BFFF7FBFF09
:1033300008BD704790F83A30222B10B536D183681B
:1033400001690268B3F5805F836A23D15268E9B9E5
:10335000C2F3080223F8022B8362C48D013CA4B29D
:10336000C4858CB90368DA6822F02002DA60DA6872
:1033700022F48072DA605A6922F001025A61202335
:1033800080F83A30FFF7D5FF002010BDD2B223F805
:10339000012BE1E721B9591C526881621A70DCE700
:1033A0005268591C816202F07F02F7E7022010BDCB
:1033B0007047816B08B50B685A6991F8390021286C
:1033C0000AD1120608D50022CA84DA6822F0C002A7
:1033D000DA60202281F839205B6991F83A20222AAC
:1033E00006D15B0604D50023CB850846FFF73EFDDA
:1033F000CB6B43F01003CB630846FFF7D9FF08BD42
:1034000003681A68D96870B5160704465D6907D164
:1034100096065AD58D0658D5BDE87040FFF78ABF8D
:1034200015F0010502D111F4907F4ED0D30705D5D8
:10343000CE0542BFE36B43F00103E363500704D5BD
:103440001DB1E36B43F00203E363930704D51DB1A1
:10345000E36B43F00403E363160704D51DB1E36B8C
:1034600043F00803E363E36B002B66D0950604D5B5
:10347000880602D52046FFF75DFF23685D69E26B91
:103480001107204602D415F040051AD0FFF7EEFCD4
:1034900023685A69520610D55A69606B22F04002BF
:1034A0005A6150B1254B0365FEF72BFA002844D032
:1034B000606BBDE87040036D18472046FFF778FF4A
:1034C00070BDFFF775FFE56370BD160627D50D06C5
:1034D00025D594F83920212A2FD1A268B2F5805F32
:1034E000226A17D11188C1F308015960216979B99D
:1034F00002322262E28C013A92B2E284EAB9DA68DC
:1035000022F08002DA60DA6842F04002DA6070BDD0
:103510000132EEE7511C216212785A60EAE7500648
:103520000BD54A0609D5DA6822F04002DA6020237A
:1035300084F83930204600F08BF970BD4135000821
:1035400008B5806B0023C385C384FFF731FF08BD36
:103550001FB510220021684601F04AFD2B482C4A75
:103560004FF4803380E80C004FF08052C2624FF07D
:1035700000720023012482620522836004610376C5
:1035800080F82030C360C26180F830404361FDF7AD
:1035900029FE08B100F0EEFC08238DE8180069460A
:1035A00003231A480293FDF78BFF08B100F0E2FCF9
:1035B00000230224694615488DE81800FDF780FFB6
:1035C00008B100F0D7FC012003238DE8090069460B
:1035D0000E48FDF775FF08B100F0CCFC0221042372
:1035E0008DE80A0009486946FDF76AFF08B100F056
:1035F000C1FC03220523694604488DE80C00FDF751
:103600005FFF08B100F0B6FC04B010BD64020020FA
:103610000020014070B5064688B01422002103A89E
:1036200001F0E6FC32682A4B9A424ED103F58C3306
:10363000002500955A6C274842F480725A645A6CEF
:1036400002F480720092009A01951A6B42F0010216
:103650001A631A6B02F001020192019A02951A6B29
:1036600042F002021A631B6B03F00203029303246D
:10367000029B04940F2303A90393FEF737FA012357
:103680001548039303A904940595144CFEF72EFAEC
:10369000134BA56084E828004FF4806323614FF446
:1036A000006363614FF40053A3614FF48073E361DF
:1036B00020464FF44033E56023626562FEF722F84E
:1036C00008B100F057FCB463A66308B070BD00BF3A
:1036D000002001400000024000040240AC02002033
:1036E0001064024008B500F0BBFB07EE900AF8EE4C
:1036F000677AB1EE080A67EE807A9FED020A27EE3C
:10370000800A08BD0000803913B500230093009B98
:10371000092B1ADDDDED016AB2EE047AC6EE877A76
:10372000CDED017A9DED017ADFED107AB4EEE77A06
:10373000F1EE10FA17D50E4C20464FF46451FEF707
:10374000B4FAC820FDF73AFDF6E70A20FDF736FD8A
:10375000FFF7C8FFDDED017A30EE270A8DED010A93
:10376000009B0133D2E702B010BD00BFCDCC4C406E
:103770000000024007B501231A4601A90348FFF7DC
:10378000F3FC9DF8040003B05DF804FB740700200F
:10379000F8B5194C194E0546274672B63046FFF764
:1037A0007DFDA3889BB23F2B0AD9012214493046E4
:1037B000FFF73AFD62B6BB889BB2402BFBD0ECE72B
:1037C00023880F490D489BB25A1C234492B2EDB294
:1037D00022809D71A38801339BB2A38023889BB272
:1037E0003F2B88BF00234FF0010288BF2380FFF7E3
:1037F0001BFD62B6F8BD00BF520300207407002015
:10380000990300200F4B9A8892B212B90E48FFF725
:1038100045BD5A880C4892B2511C89B21A4459804D
:1038200091790A4A11709A880849013A92B29A80AD
:103830005A8892B23F2A84BF00225A800122FFF7A1
:10384000F3BC00BF5203002074070020990300203E
:103850000268034B9A4201D1FFF7D4BF704700BF03
:103860000010014010B5094C23680021986802F04F
:1038700007F923680021586802F002F92368002143
:10388000D868BDE8104002F0FBB800BF100000206F
:1038900008B540B2FFF77CFF012008BD08B5FFF76F
:1038A00069FF08BD13B5284B002400941A6B42F43D
:1038B00080021A631A6B02F480020092009A01944B
:1038C0001A6B42F400121A631B6B03F400132246B6
:1038D000214601930E20019BFDF7A6FE0E20FDF769
:1038E000D7FE224621460F20FDF79EFE0F20FDF752
:1038F000CFFE224621463820FDF796FE3820FDF700
:10390000C7FE224621463920FDF78EFE3920FDF7FD
:10391000BFFE224621463A20FDF786FE3A20FDF7FB
:10392000B7FE224602214420FDF77EFE4420FDF72B
:10393000AFFE224602214620FDF776FE4620FDF727
:10394000A7FE02B010BD00BF0038024008B53C2100
:103950000448FEF732FF3C210348BDE80840FEF76B
:103960002CBF00BF74060020B40500204FF0804338
:1039700044F620625A627047024B44F620625A6253
:10398000704700BF000400404FF080439FED080ADD
:103990005B6AA3F59C43203B07EE903AF8EEE77A8A
:1039A00067EE807A9FED030A87EE800A704700BFBA
:1039B000DA0FC94000C07F44084B9FED090A5B6ADB
:1039C000C3F59C43203307EE903AF8EEE77A67EEB2
:1039D000807A9FED040A87EE800A70470004004059
:1039E000DA0FC94000C07F442DE9F04188B01422AD
:1039F000002103A801F0FCFA0024224B01941A6B69
:103A0000DFF88880204D42F001021A631A6B02F041
:103A100001020192019A02941A6B42F002021A63A7
:103A20001B6B03F0020302932246404643F6F0115B
:103A3000029BFEF735F9224628464FF48051FEF7E7
:103A40002FF9012643F6F013022703A940460393FA
:103A5000049605940697FEF749F803A928460397AC
:103A600004940594FEF742F84FF48053039303A99E
:103A700003232846049605940693FEF737F808B00A
:103A8000BDE8F0810038024000040240000002401E
:103A90007FB5124D8DF8071004AC00F07F0004F8DC
:103AA000010D0F4E284600224FF48051FEF7F8F822
:103AB00001231A4621463046FEF73BFC01231A46F5
:103AC0000DF107013046FEF734FC01224FF480511E
:103AD0002846FEF7E5F804B070BD00BF00040240C0
:103AE0009C03002010B500217F20FFF7D1FF642048
:103AF000FDF764FB10210320FFF7CAFF0120FDF74B
:103B00005DFB01210620FFF7C3FF6420FDF756FB94
:103B100020217F20FFF7BCFF6420FDF74FFB07212A
:103B20000120FFF7B5FF0120FDF748FB0D21142010
:103B3000FFF7AEFF0120FDF741FB00217F20FFF7DB
:103B4000A7FF6420FDF73AFB00224FF4805105489F
:103B5000FEF7A6F80D23044A04490548BDE81040C5
:103B6000FEF790BC00040240040200200800002080
:103B70009C03002070B5114D114C284601224FF4D2
:103B80008051FEF78DF8E278237943EA02230D4A4B
:103B90001380E27A237B43EA02230B4A28461380F0
:103BA0004FF480510022FEF77BF822460D2307498F
:103BB0000748BDE87040FEF765BC00BF0004024046
:103BC00004020020FE010020020200200800002064
:103BD0009C030020094B0A4AB3F90030B2F90020D7
:103BE0009FED080A9B1A07EE903AF8EEE77A67EE27
:103BF000807A9FED050A27EE800A7047FE010020BB
:103C0000FC0100200AE81C41000080390B4B0C4AE3
:103C1000B3F90030B2F900209FED0A7A9FED0A0A4D
:103C20009B1A07EE903AF8EEE77AC7EE876A9FEDA7
:103C3000077AC6EE877A20EE670A704702020020F4
:103C40000002002033338341DA0F4940000034433F
:103C5000704700000148FEF79FBD00BFF40500203B
:103C6000F8B5154F154A3B68154E5B6A1360154A47
:103C700014681360D6E900011C1BA4B224184FF08D
:103C800000054D41C6E90045FEF7EEF83B680646E3
:103C9000294620469F6AB6FBF7F6FDF771F807EE56
:103CA000906A06EE900AF8EE677A074B86EEA77ADE
:103CB00083ED007AF8BD00BFF4050020200200204B
:103CC0001802002024020020140200200A4B1A6867
:103CD000536AD16A094A12689A1A4FF47A735343A5
:103CE000074AB3FBF1F31360064A116899422CBFEF
:103CF00011601360704700BFF4050020200200200F
:103D0000280200202C020020014B1888704700BFB9
:103D100028020020014B1888704700BF2C020020A9
:103D2000014B93ED000A7047140200200B490B78F9
:103D3000012B0FD00AD3022B0ED00133032293FBA9
:103D4000F2F202EB42029B1A0B7070470020044A09
:103D50001080F2E79020FAE76020F8E73C020020AC
:103D600040020020114B1B78012B11D002D3022BF3
:103D700015D070470E4B0F4A198811800E4A59888A
:103D8000118099889180D9881B891181938170470E
:103D9000074A094B518812895980DA817047044AD1
:103DA000054B9188D288D9805A8170473C02002007
:103DB000300200203A02002042020020094B00217C
:103DC00010B51980084C094B197023686FF0010277
:103DD00020461A61FEF7E4FF20460421BDE81040AA
:103DE000FEF7DEBF40020020340600203C02002027
:103DF00038B5144C144D154AA06A0021FDF74EFE4B
:103E00002A4601231249606AFDF7FAFC01232A467B
:103E10001049A06AFDF7F4FC0F4910480522FDF790
:103E200087FA2368DA6842F4C062DA605A6C42F4B6
:103E300000425A64FFF7C2FF20460821BDE838401F
:103E4000FEF7AEBF34060020140002402D3D0008EE
:103E5000400200203E0200203002002064020020C8
:103E6000014B1888704700BF3A020020044A02EB59
:103E7000800332F820005B88181A00B2704700BF38
:103E80004202002030B595B03422002107A801F08D
:103E9000AFF80021142202A801F0AAF800251A4B5D
:103EA00000951A6C42F080521A641B6C03F0805328
:103EB0000093009B154B01951A6842F440421A602A
:103EC0001B680E9503F440430193019B01230A9361
:103ED000102302240B930F9307A8C0231093079479
:103EE0000D94119412941394FDF7CEFF0F230293B7
:103EF00003214FF4805302A803940495059506937B
:103F0000FDF708FF15B030BD0038024000700040DA
:103F100008B5FDF727F9FFF7B5FFFFF765FDFFF7D8
:103F2000C1FC00F0EBFD00F0FDF9FFF711FB00F024
:103F3000D7FB00F003FC00F079FD00F053FB00F02C
:103F40002BFC01224FF464510948FDF7A9FEFFF74D
:103F500089FC00F045F9FFF7F9FCFFF7C3FDFFF717
:103F600047FFFFF777FEFFF7CFFB00F005F8FEE70E
:103F700000000240704700002DE9F04F2DED048B4A
:103F800085B0FFF7F3FCFFF7F7FC0024DFF848B239
:103F9000DFF848A2864F25462646FFF7C1FE10EE01
:103FA000100AFCF7F9FA02460B46584601F040FDAC
:103FB000FFF7AAFE08EE100AFFF7ACFEF8EE487A0B
:103FC000B2EE048A87EE887A0736B6B208EE900A17
:103FD000F8EE688A17EE100AFCF7DEFAC8EE887A67
:103FE00080468946DFED738A17EE900AFCF7D4FA13
:103FF00042464B46CDE90001504601F019FD07EE5F
:10400000905AF8EEE77A87EE887A17EE100AFCF7F6
:10401000C3FA07EE904AF8EEE77A804687EE887A90
:10402000894617EE100AFCF7B7FA42464B46CDE92F
:104030000001384601F0FCFCFFF7A6FCB0EE408A18
:10404000FFF7BAFCC8EE287A9FED5B8A67EE887AA4
:10405000B0EE409A17EE900AFCF79EFAC9EE287A65
:104060008046894667EE887A17EE900AFCF794FA44
:1040700042464B46CDE90001504801F0D9FCFFF71C
:1040800031FB10EE100AFCF787FA02460B464C484B
:1040900001F0CEFC0320FFF7E9FE80460220FFF787
:1040A000E5FE81460120FFF7E1FE02900020FFF7C8
:1040B000DDFE4A46029B00904146424801F0B8FCB2
:1040C000FFF788FD8DED030AFFF7A0FD03988DED46
:1040D000020AFCF761FA9DED020A804610EE100A12
:1040E0008946FCF759FA4246CDE900014B4636486D
:1040F00001F09EFCFFF73EFB39284DD026D8322830
:104100003DD01CD81B284BD0312833D0284600F096
:1041100089F8204600F0C6F82C4B1B68986800F020
:1041200067FE4FF4FA70FDF749F81B21284801F0AB
:104130007FFC32461B21274801F07AFC2DE7372807
:1041400021D025D83328E1D1643514E0712814D06A
:1041500007D869281ED06F2820D06528D6D1643DA5
:1041600009E0752812D077280BD07228CED1002410
:104170002546CBE701352DB2C8E7013DFBE70A35FF
:10418000F9E70A3DF7E7013424B2BFE7013CFBE75A
:104190000A34F9E70A3CF7E76434F5E7643CF3E7EF
:1041A00005B0BDEC048BBDE8F04F00F02FB800BFA8
:1041B00069750008DA0F4940000034439275000821
:1041C000BC750008D17500080176000810000020B9
:1041D000357600083B760008287500083F75000812
:1041E00010B5094C00212046FEF7DAFD04212046D7
:1041F000FEF7D6FD08212046FEF7D2FD20460C2111
:10420000BDE81040FEF7CCBD14050020044B1B6830
:104210004FF6FF729A635A631A64DA63704700BFFD
:1042200014050020F8B580EAE077A7EBE07740F2CC
:10423000B635AF420646194C12DDFDF715FEB0FB50
:10424000F4F068434FF47A75B0FBF5F0144B002E90
:1042500000F1FF301B6819DD002298635A63F8BD36
:1042600000F11D039BB23A2B0AD8FDF7FDFDB0FB10
:10427000F4F01E2460434FF47A74B0FBF4F0E5E7E9
:10428000FDF7F2FDB0FBF4F07843F4E71BBF00222A
:104290009A639E63586308BF5E63F8BD400D0300D8
:1042A00014050020F8B580EAE077A7EBE07740F24C
:1042B000B635AF420646194C12DDFDF7D5FDB0FB11
:1042C000F4F068434FF47A75B0FBF5F0144B002E10
:1042D00000F1FF301B6819DD00221864DA63F8BDB5
:1042E00000F11D039BB23A2B0AD8FDF7BDFDB0FBD0
:1042F000F4F01E2460434FF47A74B0FBF4F0E5E769
:10430000FDF7B2FDB0FBF4F07843F4E71BBF0022E9
:104310001A641E64D86308BFDE63F8BD400D030055
:10432000140500200F4808B502220F4B02614FF41C
:10433000827E012280E80840426100234FF400722F
:104340008360C360826103622822436283620A231E
:10435000C261C362FDF7B0FF18B1BDE80840FFF7C6
:1043600009BE08BD9C0300200038004070B5064619
:1043700088B01422002103A800F03AFE32682D4BC9
:104380009A4255D1002503F5003301951A6C2A484D
:104390002A4C42F480421A641A6C02F48042019260
:1043A000019A02951A6B42F002021A631B6B03F02A
:1043B00002030293029B4FF460430393022304938E
:1043C0000323069303A905230793FDF78FFB1C4BDB
:1043D000A56084E828004FF48063236120464FF4F1
:1043E0004033E5606561A561E56123626562FDF7C3
:1043F00089F908B1FFF7BEFDF464A663114C124BB6
:1044000023604022A2604FF4806200232261204694
:104410004FF440326360E3606361A361E361226251
:104420006362FDF76FF908B1FFF7A4FDB464A663FA
:1044300008B070BD0038004000040240F4030020C2
:1044400058600240540400207060024082B00C4B5F
:10445000002100915A6C42F480425A645A6C02F472
:1044600080420092009A01911A6C42F080521A64C4
:104470001B6C03F080530193019B02B0704700BF97
:10448000003802407047FEE7FEE7FEE7FEE77047B0
:1044900070477047FCF780BE0148FDF745BA00BF82
:1044A000F40300200148FDF73FBA00BF5404002088
:1044B0000148FEF7A5BF00BF7407002008B50548F6
:1044C000FEF7A2F9FFF7CCFBFFF7C2FBBDE80840FF
:1044D000FFF7FCBBF40500200148FDF725BA00BF3B
:1044E000AC0200200148FDF71FBA00BFB404002051
:1044F0000148FDF719BA00BF540500200148FDF737
:1045000013BA00BF140700200148FDF70DBA00BF21
:10451000B406002070B50E4615460C46A31B9D42FE
:1045200001DC284670BDFFF7B9F904F8010BF5E787
:1045300070B50E4615460C46A31B9D4201DC28466D
:1045400070BD14F8010BFFF7A3F9F5E708B50A4BA6
:104550001968024609B90949196018686946024490
:104560008A4206D900F08CFB0C2303604FF0FF3029
:1045700008BD1A6008BD00BF54020020B807002023
:104580004FF0FF3070474FF400534B6000207047EE
:1045900001207047002070470F49D1F8883043F45C
:1045A0007003C1F888300D4B1A68002042F00102F8
:1045B0001A6098601A6822F0847222F480321A60BD
:1045C000074A5A601A6822F480221A60D8604FF0B5
:1045D00000638B60704700BF00ED00E000380240D0
:1045E0001030002410B596B01022002103A800243A
:1045F00000F0FEFC1C2221460DEB02000194029407
:1046000000F0F6FC202221460EA800F0F1FC324812
:10461000324B846080E8180047F6FF43C3600461B2
:1046200044618461FEF7F8F908B1FFF7A3FC4FF489
:10463000805303A928480393FEF710FB08B1FFF746
:1046400099FC2548FEF702FA08B1FFF793FC002316
:1046500001A9214801930293FEF7C2FB08B1FFF7BD
:1046600089FC60230022079307A901231A480893B5
:1046700009920A920B920C920D92FEF783FA08B1FE
:10468000FFF778FC40F66113042207A9124808934B
:10469000FEF778FA08B1FFF76DFC40F2817308224B
:1046A00007A90D480893FEF76DFA08B1FFF762FC01
:1046B00000234FF400520EA907480E930F93109356
:1046C0001193129313921593FEF7A8FB08B1FFF70D
:1046D00051FC16B010BD00BF3406002000000140A0
:1046E00010B58CB00021242203A800F081FC1248F0
:1046F00000244FF0804380E818004FF6FF73C3603A
:104700000323039303A901230194029484600461A9
:10471000846105930993FEF7B3F908B1FFF72AFC0A
:1047200001A9054801940294FEF75AFB08B1FFF76E
:1047300021FC0CB010BD00BF7406002010B58CB079
:104740000021242203A800F053FC1148114B00243F
:1047500080E818004FF6FF73C3600323039303A997
:104760000123019402948460046184610593099398
:10477000FEF786F908B1FFF7FDFB01A90448019493
:104780000294FEF72DFB08B1FFF7F4FB0CB010BD4F
:10479000B40500200004004013B50E4A0E4804235F
:1047A000002480E80C0045F6C05300940194846016
:1047B000C3608461FEF730F908B1FFF7DBFB69469F
:1047C000054800940194FEF70BFB08B1FFF7D2FBFC
:1047D00002B010BD00100040F405002030B50368A1
:1047E0003E4A934285B0054650D1002302F59C32E3
:1047F0000193516C3A4C3B4841F001015164526CB9
:10480000E36002F001020192019A636240224FF0DC
:10481000406184E807004FF4806222614FF4006237
:1048200062614FF40052A2614FF48072E26120464F
:104830004FF440322262FCF765FF08B1FFF79AFBA4
:104840006C62A563284C294B4FF4806222614FF4BF
:10485000006262614FF400524FF0406C4FF0400E26
:10486000A2614FF4807284E80850E26100234FF4A3
:1048700040322046E36022626362FCF743FF08B1E6
:10488000FFF778FBAC62A56305B030BD184A9342D0
:104890000CD100230293174B1A6C42F004021A64E5
:1048A0001B6C03F004030293029BEDE7124A934250
:1048B000EAD100220F4B0392196C41F010011964E8
:1048C0001B6C03F01003039301213620039BFCF7BC
:1048D000ABFE3620FCF7DCFED6E700BF000001404F
:1048E000B4040020286402405405002040640240C3
:1048F00000080040003802400010004070B514224B
:104900008AB0044600210DEB020000F071FB236821
:10491000B3F1804F37D103F50E33002400941A6CA5
:10492000284842F001021A641A6C02F00102009257
:10493000009A01941A6B42F001021A631A6B02F09A
:1049400001020192019A02941A6B42F002021A6368
:104950001B6B03F002030293029B02264FF40043F9
:10496000012505A9059306960995FDF7BFF80823CB
:104970000593069607940894099505A91248FDF732
:10498000B5F80AB070BD114A9342FAD1104B00211C
:1049900003911A6C42F002021A641A6C02F00202CD
:1049A0000392039A04911A6B42F002021A631B6B82
:1049B00003F002030493049B302305930223069320
:1049C0000993DAE7000002400004024000040040BE
:1049D0000038024010B5044686B01422002101A818
:1049E00000F006FB22680E4B9A4217D10023009379
:1049F0000C4B0D481A6B42F002021A631B6B03F05A
:104A000002030093009B4FF470730193032202236F
:104A100001A9029304920593FDF768F806B010BD52
:104A200000080040003802400004024010B58EB07B
:104A30001022002103A800F0DBFA00241C222146EA
:104A40000DEB02000194029400F0D2FA29482A4B9F
:104A5000846080E8180040F2DF13C3600461846161
:104A6000FDF7DAFF08B1FFF785FA4FF4805303A989
:104A700020480393FEF7F2F808B1FFF77BFA1D48D0
:104A8000FDF7E4FF08B1FFF775FA002401A9194802
:104A900001940294FEF7A4F908B1FFF76BFA7023B2
:104AA000002207A913480793089409940B94FEF772
:104AB00069F808B1FFF75EFA042207A90D48FEF76E
:104AC00061F808B1FFF756FA082207A90948FEF76E
:104AD00059F808B1FFF74EFA0C2207A90548FEF76E
:104AE00051F808B1FFF746FA0248FFF773FF0EB01E
:104AF00010BD00BF140500200008004008B50B4899
:104B00000B4B4FF4613E80E808400C220023836089
:104B1000C360036142618361C361FEF7F7FA18B1B4
:104B2000BDE80840FFF726BA08BD00BF74070020A3
:104B30000010014070B5064688B01422002103A879
:104B400000F056FA3268334B9A4261D1002503F5E2
:104B5000943301955A6C3048304C42F010025A643C
:104B60005A6C02F010020192019A02951A6B42F0FF
:104B700001021A631B6B03F001030293029B4FF4C3
:104B8000C063039302230493012305930323069335
:104B900003A907230793FCF7A9FF214BA5604FF05A
:104BA000006C84E808104FF48063236120464FF4C2
:104BB0008073E5606561A561E36125626562FCF76C
:104BC000A1FD08B1FFF7D6F97463164BA663164C26
:104BD0004FF000654FF0400E84E828404FF48062AB
:104BE00000232046E36022616361A361E3612362E5
:104BF0006362FCF787FD08B1FFF7BCF93463252039
:104C000000220221A663FCF70FFD2520FCF740FDE2
:104C100008B070BD001001400000024014070020E1
:104C200088640240B8640240B4060020DFF834D043
:104C3000002103E00C4B5B58435004310B480C4BF4
:104C400042189A42F6D30B4A02E0002342F8043B92
:104C5000094B9A42F9D3FFF79FFC00F0A5F9FFF743
:104C600057F9704700000520307900080000002047
:104C7000E0010020E0010020B8070020FEE700006E
:104C8000014B1868704700BF100000208A892DE989
:104C9000F041054610070C465AD44B68002B05DC42
:104CA0000B6C002B02DC0020BDE8F081E66A002ED0
:104CB000F9D0002312F480522F682B6033D0606D3E
:104CC000A3895A0705D56368C01A636B0BB1236CBF
:104CD000C01A00230246E66A216A2846B047431CF0
:104CE000A38906D129681D294BD82B4ACA40D6076B
:104CF00047D500226260D9042269226004D5421C93
:104D000001D12B6803B96065616B2F600029CAD09F
:104D100004F14403994202D0284600F071F90020C2
:104D20006063BDE8F081216A01232846B047411C39
:104D3000C6D12B68002BC3D01D2B01D0162B01D15F
:104D40002F60B0E7A38943F04003A381BDE8F08161
:104D50000F69002FA7D093070E6808BF4B690F603B
:104D600018BF0023A6EB07088B60B8F1000F9ADD8F
:104D700043463A46216AA66A2846B047002807DC1F
:104D8000A38943F04003A3814FF0FF30BDE8F081D9
:104D90000744A8EB0008E8E70100402038B50B699C
:104DA00005460C46DBB118B183690BB900F072F807
:104DB0000C4B9C4209D16C68B4F90C307BB1214694
:104DC0002846BDE83840FFF761BF074B9C4201D140
:104DD000AC68F1E7054B9C4208BFEC68ECE70020AB
:104DE00038BD00BF7C7600089C7600085C76000821
:104DF000014620B9044B0549186800F0B7B8044BC8
:104E00001868FFF7CBBF00BFBC7600089D4D0008B7
:104E100010000020014900F0A9B800BF9D4D000816
:104E2000002310B5044603604360836081814366BC
:104E3000C281036143618361194608225C3000F03E
:104E4000D7F8054B6362054BA362054BE362054B44
:104E50002462236310BD00BFED5B00080F5C0008F7
:104E6000475C00086B5C000870B54A1E6825554316
:104E70000E4605F1740100F011F9044640B100211D
:104E800080E842000C30A06005F1680200F0B0F844
:104E9000204670BD836910B5044633BB8364C36488
:104EA0000365124B124A1B688262984204BF0123B9
:104EB000836100F01FF86060204600F01BF8A060DE
:104EC000204600F017F80022E06004216068FFF738
:104ED000A7FF01220921A068FFF7A2FF02221221E9
:104EE000E068FFF79DFF0123A36110BDBC760008B9
:104EF000154E0008F8B51C4B1E68B369074613B978
:104F00003046FFF7C7FF4836B4687368013B03D5E6
:104F1000336833B13668F7E7B4F90C506DB16834D3
:104F2000F4E704213846FFF79FFF30600028F1D1F5
:104F30000C233B6004462046F8BD4FF6FF73E38127
:104F40000123A38165662560A560656025616561B3
:104F5000A5610822294604F15C0000F049F8656368
:104F6000A563A564E564E6E7BC7600082DE9F8438F
:104F70008046894600F14804002614B93046BDE851
:104F8000F883A5686768013F01D52468F5E7AB8918
:104F9000012B07D9B5F90E30013303D0294640461D
:104FA000C84706436835EEE770B50D4E0D4CA41B9F
:104FB000A4100025A54209D10B4E0C4C02F0A2FA18
:104FC000A41BA4100025A54205D170BD56F82530BC
:104FD00098470135EEE756F8253098470135F2E756
:104FE0002879000828790008287900082C79000819
:104FF00002440346934200D1704703F8011BF9E7CE
:1050000038B50546002945D051F8043C0C1F002B4B
:10501000B8BFE41801F041FD1F4A1368104633B9C8
:10502000636014602846BDE8384001F037BDA342F4
:105030000CD921686218934204BF1A685B686360E8
:1050400004BF521822600460ECE713465A680AB1A4
:10505000A242FAD919685818A0420BD1206801441D
:10506000581882421960DDD1106852685A600144B4
:105070001960D7E702D90C232B60D3E720682118E9
:105080008A4204BF11685268626004BF0918216037
:105090005C60C7E738BD00BF5802002070B5CD1C6A
:1050A00025F0030508350C2D38BF0C25002D0646CC
:1050B00001DBA94203D90C233360002070BD01F04D
:1050C000ECFC234A1468214691B9224C23681BB991
:1050D000304600F0C5FC20602946304600F0C0FC98
:1050E000431C26D10C233360304601F0D7FCE4E7A3
:1050F0000B685B1B1AD40B2B0FD90B60CD50CC184F
:10510000304601F0CBFC04F10B00231D20F007001A
:10511000C31A1BD05A42E25070BD8C420DBF636867
:105120004B686360136018BF0C46E9E70C4649689A
:10513000CAE7C41C24F00304A04205D0211A30465B
:1051400000F08EFC0130CDD02560D9E770BD00BFE6
:10515000580200205C0200202DE9FF4755EC104B5F
:105160000D9FDDF830A0002D0E4691461946B8BFC0
:1051700022462B4627F02007BBBF05F100431D4602
:1051800000232D23B8BF1446462F0B7004D0452FA3
:1051900000D10136022100E0032103AB019302ABF1
:1051A00000933246534645EC104B00F011FE472F5A
:1051B000804602D119F0010F26D0462F08EB0609D0
:1051C00011D198F80030302B0AD10022002320465C
:1051D0002946FBF79DFC18B9C6F10106CAF8006024
:1051E000DAF8003099440022002320462946FBF7D4
:1051F0008FFC38B93022039B994505D9591C03917E
:105200001A70F8E7CDF80C90039B0E9AA3EB0803F5
:105210004046136004B0BDE8F087F7B503460029A7
:10522000B8BF494203F8022BB4BF2D222B22092913
:10523000427020DD0DF1070217460A2691FBF6F5B4
:1052400006FB15113031092D02F8011C02F1FF3463
:10525000294609DC3031023A04F8011CBA421C46E6
:1052600004D3201A03B0F0BD2246E7E712F8011B71
:1052700003F8011BF2E730221C46114404F8022B0C
:105280005970EEE72DE9F04F8DB00C46DDF85880EF
:1052900016461F46054601F069FB0368049318464D
:1052A000FAF7BEFF00230A93D8F8003005900733C1
:1052B00023F0070303F1080294F818A0D4F800B013
:1052C000C8F80020D3E90023C4E91223D4E91289E5
:1052D00029F000430793CDF818804FF0FF32A54B1B
:1052E000DDE90601FBF746FC002840F0FB814FF0AA
:1052F000FF32A04BDDE90601FBF71EFC002840F061
:10530000F1810022002340464946FBF70BFC10B117
:105310002D2384F84330984B984ABAF1470F8CBF3D
:105320009046984603232BF00402236122604FF03D
:105330000009009733460BAA2146284600F0E2F9FF
:10534000013040F093804FF0FF300DB0BDE8F08F9A
:1053500061684B1C4BF480623FD1062363600023DD
:1053600003930AAB029309AB009349EC108B0DF148
:1053700023032260CDF804A061682846FFF7ECFE05
:105380000AF0DF03472B804609D1099BD81C02DBBA
:105390006268934257DDAAF1020A5FFA8AFABAF10B
:1053A000650F099934D80139524604F1500009912A
:1053B000FFF733FF0A9A8318012A8146236102DC32
:1053C0002268D10701D5013323619DF82330002BDA
:1053D000AFD02D2384F84330ABE7BAF1670F02D08A
:1053E000BAF1470FBBD189B1002303930AAB0293F3
:1053F00009AB009349EC108B2260CDF804A00DF1AD
:1054000023032846FFF7A8FE8046BEE70123A5E751
:10541000BAF1660F19D1002963680CDD216113B957
:105420002268D20702D501330B442361099BA3658F
:105430004FF00009C9E713B92268D00701D502333C
:10544000F3E70123F1E74FF0670A099B0A9A9342B9
:1054500005DB22682361D107E8D50133E5E7002B9E
:10546000D4BFC3F1020301231344DEE723685A05C6
:1054700007D42369424631462846B84701302BD12C
:1054800061E7BAF1650F40F2E28000220023D4E91F
:105490001201FBF73DFB00283CD00123384A31467E
:1054A0002846B84701303FF44EAF0A9B099A9A420A
:1054B00002DB2368D8070FD5059B049A314628469E
:1054C000B84701303FF43FAF4FF0000804F11A092C
:1054D0000A9B013B984512DB23689B0709D54FF0D7
:1054E000000804F11909E3680B9A9B1A9845C0F269
:1054F000EE80E0680B9B9842B8BF184625E7012371
:105500004A4631462846B84701303FF41CAF08F1FF
:105510000108DDE7099B002B34DC0123184A3146E2
:105520002846B84701303FF40EAF099B23B90A9BC8
:1055300013B92368D907CFD5059B049A314628466D
:10554000B84701303FF4FFAE4FF0000904F11A0AEA
:10555000099B5B42994501DB0A9B8BE7012352467D
:1055600031462846B84701303FF4EDAE09F1010954
:10557000EEE700BFFFFFEF7FC0760008C4760008AB
:10558000D07600080A9AA36D9A42A8BF1A46002A4C
:10559000914638DC04F11A034FF0000B29EAE9794F
:1055A0000693D4F858A0AAEB09039B4533DB0A9B6A
:1055B000099A9A423ADB2368DA0737D40A9B099999
:1055C000A3EB0A02A3EB01099145A8BF9146B9F1EB
:1055D000000F33DC4FF0000829EAE97904F11A0AD8
:1055E000099A0A9B9B1AA3EB09039845BFF674AF6F
:1055F0000123524631462846B84701303FF4A3AE56
:1056000008F10108ECE71346314642462846B84700
:105610000130BFD197E60123069A31462846B847A4
:1056200001303FF490AE0BF1010BBAE7059B049AF1
:1056300031462846B8470130C0D184E64B4608EBD6
:105640000A0231462846B8470130C3D17BE60A9AA0
:10565000012A01DCDB0737D50123424631462846C3
:10566000B84701303FF46FAE059B049A3146284697
:10567000B84701303FF467AE00220023D4E912019D
:10568000FBF746FA58B14FF0000804F11A0A0A9BDA
:10569000013B98450DDB4B4604F15002EBE60A9BBB
:1056A00008F10102013B31462846B8470130F2D1EA
:1056B00049E60123524631462846B84701303FF4B7
:1056C00042AE08F10108E2E701234246EBE701237D
:1056D0004A4631462846B84701303FF434AE08F117
:1056E000010800E742464B4640464946FBF742FA6E
:1056F00000283FF42DAE014B014A0EE6C8760008A3
:10570000CC7600082DE9F04791461F468A680B6960
:10571000DDF820809342B8BF1346C9F8003091F8F5
:10572000432006460C4612B10133C9F80030236805
:10573000990642BFD9F800300233C9F80030256815
:1057400015F0060507D104F1190AE368D9F800201D
:105750009B1A9D4229DB94F843302268003318BF1E
:10576000012392062ED404F1430239463046C04745
:10577000013021D02368E568D9F8002003F0060342
:10578000042B08BFAD1AA36822690CBF25EAE57592
:1057900000259342C4BF9B1AED184FF000091A343C
:1057A0004D451BD10020BDE8F08701235246394604
:1057B0003046C047013003D14FF0FF30BDE8F087DD
:1057C0000135C2E7E1185A1C302081F84300224419
:1057D00094F8451082F843100233C4E701232246AF
:1057E00039463046C0470130E6D009F10109D7E714
:1057F0002DE9F04317460A7E85B06E2A9846064684
:105800000C460C9B01F1430E00F0BC801AD8632AB1
:105810002ED00AD8002A00F0C880582A00F08A80CA
:1058200004F1420584F842202AE0642A01D0692A62
:10583000F6D121681A6811F0800F23D0111D19606C
:10584000136827E0732A00F0B48008D86F2A2AD0A2
:10585000702AE5D10A6842F020020A6003E0752A46
:1058600021D0782ADCD1782284F845206E4964E082
:105870001A6801F14205111D1960136884F842305D
:105880000123A3E011F0400F02F104011960D7D009
:10589000B2F90030002B03DA2D225B4284F843205A
:1058A00062490A2217E02068196810F0800F03D0BF
:1058B000081D18600B6806E010F0400F01F10400AD
:1058C0001860F7D00B8859496F2A14BF0A220822A2
:1058D000002084F843006568A560002DC0F29C801C
:1058E000206820F004002060002B3FD1002D40F004
:1058F00095807546082A0BD12368DA0708D52369F5
:1059000062689A42DEBF302305F8013C05F1FF359D
:10591000AEEB05032361CDF800803B4603AA214688
:105920003046FFF7EFFE013055D14FF0FF3005B0A4
:10593000BDE8F08381F845203C492268186812F0E0
:10594000800F00F104051D6001D0036802E05506D8
:10595000FBD50388D00744BF42F0200222601BB968
:10596000226822F0200222601022B1E77546B3FBC4
:10597000F2F002FB1033CB5C05F8013D0346002832
:10598000F5D1B7E708681A68496910F0800F04D0AC
:10599000101D18601368196007E010F0400F02F145
:1059A000040018601368F6D019800023236175463F
:1059B000B1E71A68111D1960156862680021284650
:1059C000FAF736FC08B1401B60606368236100236E
:1059D00084F843309FE723692A4639463046C0475A
:1059E0000130A2D023689B0707D5002504F11909CF
:1059F000E368039A9B1A9D4205DBE068039B98428B
:105A0000B8BF184693E701234A4639463046C04797
:105A100001308AD00135EBE7002BA7D10B7884F851
:105A2000423004F1420565E7E3760008D2760008CB
:105A30000FB40A4B13B51C6824B1A36913B92046EF
:105A4000FFF728FA05AB049AA1680193204601F0FC
:105A50002FFB02B0BDE8104004B0704710000020DA
:105A600038B5064C0023054608462360FEF76EFD58
:105A7000431C02D1236803B12B6038BDB40700205A
:105A800000294FF480630CBF0222002200F000B80E
:105A90002DE9F7431D46514B1E6804460F469046BC
:105AA00026B1B36913B93046FFF7F4F94C4B9C4269
:105AB00052D17468B8F1020F06D0B8F1010F00F2AC
:105AC0008980002DC0F2868021463046FFF766F9B6
:105AD000616B41B104F14403994202D03046FFF7B3
