:020000040800F2
:100000000000052069360008712A00087F2A0008D0
:10001000852A00088B2A0008912A000800000000A9
:10002000000000000000000000000000972A000807
:10003000A52A000800000000B32A0008C12A000811
:10004000B9360008B9360008B9360008B9360008D4
:10005000B9360008B9360008B9360008B9360008C4
:10006000B9360008B9360008B9360008B9360008B4
:10007000B9360008B9360008CD2A0008E12A000880
:10008000B9360008B9360008B9360008B936000894
:10009000B9360008B9360008B9360008B936000884
:1000A000B9360008B9360008B9360008B936000874
:1000B000B9360008B9360008B9360008B936000864
:1000C000B9360008B9360008B9360008B936000854
:1000D000B9360008F52A0008B9360008B936000814
:1000E000B9360008B9360008B9360008B936000834
:1000F000B9360008B9360008B9360008B936000824
:10010000B9360008B9360008B9360008B936000813
:10011000B9360008B9360008B9360008B936000803
:10012000092B00081D2B0008312B0008B9360008E8
:10013000B9360008B9360008B9360008B9360008E3
:10014000B9360008B9360008B9360008B9360008D3
:10015000452B0008B9360008592B0008B9360008AD
:10016000B9360008B9360008B9360008B9360008B3
:10017000B9360008B9360008000000000000000091
:10018000B9360008B9360008B9360008B936000893
:10019000B9360008B936000800000000B93600087A
:1001A000B9360008B9360008000000000000000061
:1001B000B93600080000000000000000B936000851
:1001C000B9360008B9360008B9360008B936000853
:0801D000B9360008B936000839
:1001E00010B5054C237833B9044B13B10448AFF371
:1001F00000800123237010BD1002002000000000C9
:10020000A4C4000808B5034B1BB103490348AFF36E
:10021000008008BD0000000014020020A4C40008F3
:10022000034613F8012B002AFBD1181A0138704736
:1002300001F0FF01102A2BDB10F0070F08D010F897
:10024000013B013A8B422DD010F0070F42B3F6D19B
:10025000F0B441EA012141EA014122F007047FF0B4
:1002600000070023F0E80256083C85EA010586EA0B
:10027000010685FA47F5A3FA87F586FA47F6A5FA47
:1002800087F68EB9EED1F0BC01F0FF0102F0070253
:1002900032B110F8013B013A83EA010313B1F8D1FE
:1002A0000020704701387047002D06BF35460338DF
:1002B000073815F0010F07D1013015F4807F02BF18
:1002C000013015F4C03F0130F0BC0138704700BF69
:1002D00081F0004102E000BF83F0004330B54FEAF7
:1002E00041044FEA430594EA050F08BF90EA020F64
:1002F0001FBF54EA000C55EA020C7FEA645C7FEAF7
:10030000655C00F0E2804FEA5454D4EB5555B8BF19
:100310006D420CDD2C4480EA020281EA030382EA8A
:10032000000083EA010180EA020281EA0303362D1C
:1003300088BF30BD11F0004F4FEA01314FF4801CEF
:100340004CEA113102D0404261EB410113F0004F01
:100350004FEA03334CEA133302D0524263EB4303B8
:1003600094EA050F00F0A780A4F10104D5F1200E56
:100370000DDB02FA0EFC22FA05F2801841F10001B1
:1003800003FA0EF2801843FA05F359410EE0A5F185
:1003900020050EF1200E012A03FA0EFC28BF4CF0B6
:1003A000020C43FA05F3C01851EBE37101F000456C
:1003B00007D54FF0000EDCF1000C7EEB00006EEB79
:1003C0000101B1F5801F1BD3B1F5001F0CD3490803
:1003D0005FEA30004FEA3C0C04F101044FEA44525A
:1003E00012F5800F80F09A80BCF1004F08BF5FEAE1
:1003F000500C50F1000041EB045141EA050130BDC1
:100400005FEA4C0C404141EB010111F4801FA4F163
:100410000104E9D191F0000F04BF01460020B1FAB8
:1004200081F308BF2033A3F10B03B3F120020CDAF0
:100430000C3208DD02F1140CC2F10C0201FA0CF0CE
:1004400021FA02F10CE002F11402D8BFC2F1200C33
:1004500001FA02F120FA0CFCDCBF41EA0C019040E9
:10046000E41AA2BF01EB0451294330BD6FEA040432
:100470001F3C1CDA0C340EDC04F11404C4F120021D
:1004800020FA04F001FA02F340EA030021FA04F32F
:1004900045EA030130BDC4F10C04C4F1200220FA86
:1004A00002F001FA04F340EA0300294630BD21FAC4
:1004B00004F0294630BD94F0000F83F4801306BF8A
:1004C00081F480110134013D4EE77FEA645C18BF7E
:1004D0007FEA655C29D094EA050F08BF90EA020F15
:1004E00005D054EA000C04BF1946104630BD91EA0D
:1004F000030F1EBF0021002030BD5FEA545C05D110
:100500004000494128BF41F0004130BD14F580044E
:100510003CBF01F5801130BD01F0004545F0FE41C2
:1005200041F470014FF0000030BD7FEA645C1ABFF7
:10053000194610467FEA655C1CBF0B46024650EA2E
:10054000013406BF52EA033591EA030F41F400215A
:1005500030BD00BF90F0000F04BF0021704730B5E0
:100560004FF4806404F132044FF000054FF00001B5
:1005700050E700BF90F0000F04BF0021704730B576
:100580004FF4806404F1320410F0004548BF40424B
:100590004FF000013EE700BF42004FEAE2014FEAA0
:1005A00031014FEA02701FBF12F07F4393F07F4F7B
:1005B00081F06051704732F07F4208BF704793F07E
:1005C0007F4F04BF41F40021704730B54FF4607491
:1005D00001F0004521F000411CE700BF50EA010294
:1005E00008BF704730B54FF000050AE050EA01023D
:1005F00008BF704730B511F0004502D5404261EBAD
:1006000041014FF4806404F132045FEA915C3FF4ED
:10061000D8AE4FF003025FEADC0C18BF03325FEA8A
:10062000DC0C18BF033202EBDC02C2F1200300FA3B
:1006300003FC20FA02F001FA03FE40EA0E0021FA60
:1006400002F11444BDE600BF70B54FF0FF0C4CF44E
:10065000E06C1CEA11541DBF1CEA135594EA0C0F00
:1006600095EA0C0F00F0DEF82C4481EA030621EA3B
:100670004C5123EA4C5350EA013518BF52EA033576
:1006800041F4801143F4801338D0A0FB02CE4FF028
:100690000005E1FB02E506F00042E0FB03E54FF058
:1006A0000006E1FB03569CF0000F18BF4EF0010E50
:1006B000A4F1FF04B6F5007F64F5407404D25FEA4C
:1006C0004E0E6D4146EB060642EAC62141EA5551FF
:1006D0004FEAC52040EA5E504FEACE2EB4F1FD0C41
:1006E00088BFBCF5E06F1ED8BEF1004F08BF5FEABF
:1006F000500E50F1000041EB045170BD06F0004671
:1007000046EA010140EA020081EA0301B4EB5C041D
:10071000C2BFD4EB0C0541EA045170BD41F4801115
:100720004FF0000E013C00F3AB8014F1360FDEBF3A
:10073000002001F0004170BDC4F10004203C35DA16
:100740000C341BDC04F11404C4F1200500FA05F399
:1007500020FA04F001FA05F240EA020001F000423A
:1007600021F0004110EBD37021FA04F642EB0601B0
:100770005EEA430E08BF20EAD37070BDC4F10C04DA
:10078000C4F1200500FA04F320FA05F001FA04F29E
:1007900040EA020001F0004110EBD37041F100018A
:1007A0005EEA430E08BF20EAD37070BDC4F1200595
:1007B00000FA05F24EEA020E20FA04F301FA05F2FD
:1007C00043EA020321FA04F001F0004121FA04F2A5
:1007D00020EA020000EBD3705EEA430E08BF20EA75
:1007E000D37070BD94F0000F0FD101F000464000AF
:1007F00041EB010111F4801F08BF013CF7D041EA31
:10080000060195F0000F18BF704703F00046520034
:1008100043EB030313F4801F08BF013DF7D043EA05
:100820000603704794EA0C0F0CEA135518BF95EABB
:100830000C0F0CD050EA410618BF52EA4306D1D142
:1008400081EA030101F000414FF0000070BD50EA61
:10085000410606BF1046194652EA430619D094EAEB
:100860000C0F02D150EA013613D195EA0C0F05D1D5
:1008700052EA03361CBF104619460AD181EA030129
:1008800001F0004141F0FE4141F470014FF00000E1
:1008900070BD41F0FE4141F4780170BD70B54FF07C
:1008A000FF0C4CF4E06C1CEA11541DBF1CEA1355FC
:1008B00094EA0C0F95EA0C0F00F0A7F8A4EB0504DE
:1008C00081EA030E52EA03354FEA013100F08880D5
:1008D0004FEA03334FF0805545EA131343EA12639E
:1008E0004FEA022245EA111545EA10654FEA002653
:1008F0000EF000419D4208BF964244F1FD0404F50C
:10090000407402D25B084FEA3202B61A65EB030567
:100910005B084FEA32024FF480104FF4002CB6EB24
:10092000020E75EB030E22BFB61A754640EA0C00A4
:100930005B084FEA3202B6EB020E75EB030E22BFE4
:10094000B61A754640EA5C005B084FEA3202B6EB25
:10095000020E75EB030E22BFB61A754640EA9C00E4
:100960005B084FEA3202B6EB020E75EB030E22BFB4
:10097000B61A754640EADC0055EA060E18D04FEA72
:10098000051545EA16754FEA06164FEAC30343EA12
:1009900052734FEAC2025FEA1C1CC0D111F4801FDF
:1009A0000BD141EA00014FF000004FF0004CB6E7D8
:1009B00011F4801F04BF01430020B4F1FD0C88BF77
:1009C000BCF5E06F3FF6AFAEB5EB030C04BFB6EB82
:1009D000020C5FEA500C50F1000041EB045170BD75
:1009E0000EF0004E4EEA113114EB5C04C2BFD4EBA2
:1009F0000C0541EA045170BD41F480114FF0000E26
:100A0000013C90E645EA060E8DE60CEA135594EAA1
:100A10000C0F08BF95EA0C0F3FF43BAF94EA0C0FA4
:100A20000AD150EA01347FF434AF95EA0C0F7FF419
:100A300025AF104619462CE795EA0C0F06D152EA6D
:100A400003353FF4FDAE1046194622E750EA410651
:100A500018BF52EA43067FF4C5AE50EA41047FF462
:100A60000DAF52EA43057FF4EBAE12E74FF0FF3CC7
:100A700006E000BF4FF0010C02E000BF4FF0010C98
:100A80004DF804CD4FEA410C7FEA6C5C4FEA430C11
:100A900018BF7FEA6C5C1BD001B050EA410C0CBF60
:100AA00052EA430C91EA030F02BF90EA020F0020C2
:100AB000704710F1000F91EA030F58BF994208BF29
:100AC00090422CBFD8176FEAE37040F001007047E6
:100AD0004FEA410C7FEA6C5C02D150EA013C07D13D
:100AE0004FEA430C7FEA6C5CD6D152EA033CD3D088
:100AF0005DF8040B704700BF8446104662468C4682
:100B00001946634600E000BF01B5FFF7B7FF0028B4
:100B100048BF10F1000F01BD4DF808EDFFF7F4FFDD
:100B20000CBF012000205DF808FB00BF4DF808ED68
:100B3000FFF7EAFF34BF012000205DF808FB00BF8B
:100B40004DF808EDFFF7E0FF94BF012000205DF8AD
:100B500008FB00BF4DF808EDFFF7CEFF94BF012062
:100B600000205DF808FB00BF4DF808EDFFF7C4FF5B
:100B700034BF012000205DF808FB00BF4FEA410CA4
:100B80007FEA6C5C02D150EA013C0AD14FEA430C87
:100B90007FEA6C5C02D152EA033C02D14FF00000C4
:100BA00070474FF0010070474FEA410212F5001202
:100BB00015D211D56FF47873B3EB625212D94FEAA4
:100BC000C12343F0004343EA505311F0004F23FA8E
:100BD00002F018BF404270474FF00000704750EAE3
:100BE000013005D111F0004008BF6FF000407047A0
:100BF0004FF00000704700BF4A0011D212F50012FA
:100C000011D20DD56FF47873B3EB62520ED44FEA64
:100C1000C12343F0004343EA505323FA02F07047E4
:100C20004FF00000704750EA013002D14FF0FF3022
:100C300070474FF0000070474FEA4102B2F1E043C5
:100C400024BFB3F5001CDCF1FE5C0DD901F0004CB3
:100C50004FEAC0024CEA5070B2F1004F40EB830003
:100C600008BF20F00100704711F0804F21D113F12F
:100C70003872BCBF01F00040704741F480114FEA68
:100C80005252C2F11802C2F1200C10FA0CF320FAF1
:100C900002F018BF40F001004FEAC1234FEAD3230E
:100CA00003FA0CFC40EA0C0023FA02F34FEA430378
:100CB000CCE77FEA625307D150EA01331EBF4FF001
:100CC000FE4040F44000704701F0004040F0FE401C
:100CD00040F40000704700BF80F0004002E000BF19
:100CE00081F0004142001FBF5FEA410392EA030F17
:100CF0007FEA226C7FEA236C6AD04FEA1262D2EB61
:100D00001363C1BFD218414048404140B8BF5B4265
:100D1000192B88BF704710F0004F40F4000020F0FE
:100D20007F4018BF404211F0004F41F4000121F014
:100D30007F4118BF494292EA030F3FD0A2F101025E
:100D400041FA03FC10EB0C00C3F1200301FA03F19C
:100D500000F0004302D5494260EB4000B0F5000FBF
:100D600013D3B0F1807F06D340084FEA310102F17E
:100D70000102FE2A51D2B1F1004F40EBC25008BF30
:100D800020F0010040EA03007047490040EB0000FA
:100D900010F4000FA2F10102EDD1B0FA80FCACF129
:100DA000080CB2EB0C0200FA0CF0AABF00EBC25028
:100DB00052421843BCBFD0401843704792F0000F16
:100DC00081F4000106BF80F400000132013BB5E769
:100DD0004FEA41037FEA226C18BF7FEA236C21D0DF
:100DE00092EA030F04D092F0000F08BF0846704744
:100DF00090EA010F1CBF0020704712F07F4F04D112
:100E0000400028BF40F00040704712F100723CBF24
:100E100000F50000704700F0004343F0FE4040F44E
:100E2000000070477FEA226216BF08467FEA23630C
:100E30000146420206BF5FEA412390EA010F40F4F7
:100E4000800070474FF0000304E000BF10F0004343
:100E500048BF40425FEA000C08BF704743F096432A
:100E600001464FF000001CE050EA010208BF704745
:100E70004FF000030AE000BF50EA010208BF7047CC
:100E800011F0004302D5404261EB41015FEA010CE1
:100E900002BF84460146002043F0B64308BFA3F1D9
:100EA0008053A3F50003BCFA8CF2083AA3EBC253BB
:100EB00010DB01FA02FC634400FA02FCC2F12002DA
:100EC000BCF1004F20FA02F243EB020008BF20F011
:100ED0000100704702F1200201FA02FCC2F1200277
:100EE00050EA4C0021FA02F243EB020008BF20EA6C
:100EF000DC70704753B94AB9002908BF00281CBFED
:100F00004FF0FF314FF0FF3000F072B9ADF1080C37
:100F10006DE904CE00F006F8DDF804E0DDE9022317
:100F200004B070472DE9F047089E04468846002B20
:100F30004BD18A42154667D9B2FA82F24AB1C2F160
:100F4000200701FA02F320FA07F7954047EA030861
:100F500094404FEA154E230CB8FBFEF71FFA85FCB0
:100F60000EFB178843EA084307FB0CF1994209D9A5
:100F7000EB1807F1FF3080F01B81994240F2188195
:100F8000023F2B445B1AA4B2B3FBFEF00EFB1033FE
:100F900044EA034400FB0CFCA44509D92C1900F1D8
:100FA000FF3380F00781A44540F2048102382C44CD
:100FB00040EA0740A4EB0C0400271EB1D4400023F4
:100FC000C6E900433946BDE8F0878B4209D9002EB7
:100FD00000F0EB800027C6E9000138463946BDE83D
:100FE000F087B3FA83F7002F47D18B4202D38242B6
:100FF00000F2FA80841A61EB030301209846002E68
:10100000E0D0C6E90048DDE702B9FFDEB2FA82F2BD
:10101000002A40F08F80491B4FEA154E1FFA85F8D1
:101020000127B1FBFEFC230C0EFB1C1143EA01431C
:1010300008FB0CF1994207D9EB180CF1FF3002D2F2
:10104000994200F2CD808446591AA3B2B1FBFEF05A
:101050000EFB101443EA044408FB00F8A04507D92E
:101060002C1900F1FF3302D2A04500F2B6801846D9
:10107000A4EB080440EA0C409FE7C7F1200CBB40FA
:1010800022FA0CFE4EEA030E01FA07F420FA0CF5E0
:1010900021FA0CF34FEA1E482543B3FBF8F92C0C58
:1010A00008FB19331FFA8EFA44EA034309FB0AF4DA
:1010B0009C4202FA07F200FA07F10BD91EEB030378
:1010C00009F1FF3080F087809C4240F28480A9F1D2
:1010D000020973441B1BADB2B3FBF8F008FB1033DD
:1010E00045EA034400FB0AFAA24508D91EEB0404B2
:1010F00000F1FF336BD2A24569D90238744440EA4B
:101100000940A0FB0289A4EB0A044C45C2464B46A9
:1011100054D351D0002E69D0B1EB0A0564EB03041F
:1011200004FA0CFCFD40FC404CEA0505C6E90054FD
:10113000002747E7C2F1200320FA03F7954001FAA0
:1011400002F021FA03F34FEA154E3843010CB3FBCA
:10115000FEF71FFA85F80EFB173341EA034107FB40
:1011600008F38B4204FA02F407D9691807F1FF3C2F
:101170002FD28B422DD9023F2944CB1A81B2B3FB27
:10118000FEF00EFB103341EA034100FB08F38B42F3
:1011900007D9691800F1FF3C17D28B4215D90238E4
:1011A0002944C91A40EA07473BE73746304609E772
:1011B0000746E7E61846FBE64145ABD2B8EB020A24
:1011C00069EB0E0201381346A4E76046E9E71846CA
:1011D00095E76746D1E781467CE702382C4447E72C
:1011E000ACF1020C2B442FE7384608E73746E9E616
:1011F000704700BF80B584B000AF3B4600221A6044
:101200005A609A60DA606B4B6B4A1A60694B4FF414
:1012100080325A60674B00229A60664B01221A6145
:10122000644B00221A76634B012283F82020614B25
:1012300001225A625F4B4FF08052DA625D4B4FF0F1
:1012400000729A625B4B0022DA605A4B0C22DA6120
:10125000584B012283F83020564B00225A615548E2
:1012600002F0C0FA0346002B01D000F049FF08232A
:101270003B6001237B600523BB603B4619464D481C
:1012800002F0DCFB0346002B01D000F039FF022303
:101290007B603B461946474802F0D0FB0346002BD3
:1012A00001D000F02DFF00233B6003237B603B4611
:1012B0001946404802F0C2FB0346002B01D000F063
:1012C0001FFF04237B603B4619463A4802F0B6FBF9
:1012D0000346002B01D000F013FF03233B600523DE
:1012E0007B603B461946334802F0A8FB0346002BBF
:1012F00001D000F005FF06237B603B4619462D48D0
:1013000002F09CFB0346002B01D000F0F9FE012304
:101310003B6007237B603B461946264802F08EFB64
:101320000346002B01D000F0EBFE08237B603B4618
:101330001946204802F082FB0346002B01D000F042
:10134000DFFE02233B6009237B603B4619461948B8
:1013500002F074FB0346002B01D000F0D1FE0A23FB
:101360007B603B461946134802F068FB0346002B9E
:1013700001D000F0C5FE08233B600B237B603B4699
:1013800019460C4802F05AFB0346002B01D000F02E
:10139000B7FE0C237B603B461946064802F04EFB25
:1013A0000346002B01D000F0ABFE00BF1037BD4656
:1013B00080BD00BFB40200200020014080B58AB08B
:1013C00000AF786007F1140300221A605A609A6037
:1013D000DA601A617B681B683C4A934272D1002331
:1013E0003B613B4B5B6C3A4A43F480735364384B2C
:1013F0005B6C03F480733B613B690023FB60344BFF
:101400001B6B334A43F001031363314B1B6B03F037
:101410000103FB60FB680023BB602D4B1B6B2C4A58
:1014200043F0020313632A4B1B6B03F00203BB6000
:10143000BB680F237B610323BB610023FB6107F1C2
:1014400014031946234803F0BBFA01237B610323ED
:10145000BB610023FB6107F1140319461E4803F02A
:10146000AFFA1E4B1E4A1A601C4B00225A601B4BDF
:1014700000229A60194B0022DA60184B4FF4806208
:101480001A61164B4FF400625A61144B4FF400522C
:101490009A61124B4FF48072DA61104B4FF4803234
:1014A0001A620E4B00225A620C4802F089FE034673
:1014B000002B01D000F024FE7B68084A9A63074A9B
:1014C0007B68936300BF2837BD4680BD0020014084
:1014D000003802400000024000040240FC020020EC
:1014E0001064024080B500AF00F012FD034607EE25
:1014F000903AF8EE677AB1EE087A67EE877A9FED58
:10150000047AC7EE876AF0EE667AB0EE670A80BDAD
:101510000000804580B582B000AF00237B600FE003
:101520000A2002F03DF9FFF7DDFFB0EE407AD7ED7B
:10153000007A77EE277AC7ED007A7B6801337B600B
:101540007B68092BECDD97ED007AF2EE046AC7EEBA
:10155000267AC7ED007AD7ED007A9FED0A7AF4EE8D
:10156000C77AF1EE10FA00D408E04FF4645106484F
:1015700003F0D1FBC82002F013F9F6E70837BD46A7
:1015800080BD00BFCDCC4C400000024080B582B091
:1015900000AF391D01230122034805F0C6FB3B794A
:1015A00018460837BD4680BD4408002080B400AF0F
:1015B000134B9B889BB27F2B1CD8114B1B889BB273
:1015C0005A1C91B20E4A118019460E4B1A780C4BD8
:1015D0000B449A710A4B9B889BB201339AB2084B19
:1015E0009A80074B1B889BB27F2B04D9044B0022A7
:1015F0001A8000E000BFBD465DF8047B704700BF65
:101600005C0300206A04002080B582B000AF72B68F
:10161000184B9B889BB2002B0BD162B604E00122D1
:101620001549164805F094FC124B9B889BB2002B81
:10163000F5D0104B5B889BB25A1C91B20D4A518079
:101640001A460C4B13449B79FB710A4B9B889BB247
:10165000013B9AB2074B9A80064B5B889BB27F2B6B
:1016600002D9044B00225A8062B6FB79184608372B
:10167000BD4680BD5C0300206A04002044080020B1
:1016800080B582B000AF0346FB7172B61E4B1B6B78
:10169000184602F09BFE1D4B9B889BB27F2B0CD9FA
:1016A00001221B49184805F0E7FB62B600BF174B43
:1016B0009B889BB2802BFAD0E7E700BF134B1B88B7
:1016C0009BB25A1C91B2114A11801946FA790F4BFC
:1016D0000B449A710D4B9B889BB201339AB20B4B12
:1016E0009A800A4B1B889BB27F2B02D9074B0022A2
:1016F0001A8001220649044805F0BEFB62B600BF0D
:101700000837BD4680BD00BF44080020E403002028
:101710006B04002080B500AF154B9B889BB2002B5B
:1017200003D1144805F094FC20E0114B5B889BB278
:101730005A1C91B20E4A51801A460D4B13449A79A5
:101740000D4B1A700A4B9B889BB2013B9AB2084B17
:101750009A80074B5B889BB27F2B02D9044B0022F7
:101760005A8001220449034805F086FB00BF80BD72
:10177000E4030020440800206B04002080B582B000
:1017800000AF78607B681B68044A934201D1FFF781
:101790000DFF00BF0837BD4680BD00BF00100140EF
:1017A00080B582B000AF78607B681B68044A9342C2
:1017B00001D1FFF7AFFF00BF0837BD4680BD00BFB6
:1017C0000010014080B500AF044B1B689B680021EE
:1017D000184607F05FFC00BF80BD00BF400000203E
:1017E00080B582B000AF78607B685BB21846FFF7C7
:1017F00047FF012318460837BD4680BD80B500AFBE
:10180000FFF702FF0346184680BD000080B582B096
:1018100000AF00237B602B4B1B6B2A4A43F48003F1
:101820001363284B1B6B03F480037B607B680023EE
:101830003B60244B1B6B234A43F400131363214B7F
:101840001B6B03F400133B603B68002200210E2059
:1018500002F07FFC0E2002F098FC002200210F20F5
:1018600002F077FC0F2002F090FC002201213820CA
:1018700002F06FFC382002F088FC002200213920A1
:1018800002F067FC392002F080FC002200213A209F
:1018900002F05FFC3A2002F078FC00220221442092
:1018A00002F057FC442002F070FC00220221462086
:1018B00002F04FFC462002F068FC00BF0837BD462E
:1018C00080BD00BF0038024080B500AF3C21044815
:1018D00004F04AFC3C21034804F046FC00BF80BDF4
:1018E00044070020C406002080B400AF4FF08043BE
:1018F00044F620625A6200BFBD465DF8047B704723
:1019000080B400AF044B44F620625A6200BFBD466B
:101910005DF8047B704700BF0004004080B400AF56
:101920004FF080435B6AA3F59C43203B07EE903A5F
:10193000F8EEE77A9FED077A67EE877A9FED067AF1
:10194000C7EE876AF0EE667AB0EE670ABD465DF8CC
:10195000047B7047DA0FC94000C07F4480B400AFF9
:101960000C4B5B6AC3F59C43203307EE903AF8EECC
:10197000E77A9FED097A67EE877A9FED087AC7EEDE
:10198000876AF0EE667AB0EE670ABD465DF8047BC2
:10199000704700BF00040040DA0FC94000C07F4418
:1019A00080B588B000AF07F10C0300221A605A60BE
:1019B0009A60DA601A610023BB60314B1B6B304ABE
:1019C00043F0010313632E4B1B6B03F00103BB6059
:1019D000BB6800237B602A4B1B6B294A43F0020340
:1019E0001363274B1B6B03F002037B607B680022B1
:1019F00043F6F011234803F075F900224FF48051AB
:101A0000214803F06FF9F023FB6001233B610023C1
:101A10007B610223BB6107F10C031946194802F0F0
:101A2000CFFF0223FB6000233B6100237B6107F1B2
:101A30000C031946144802F0C3FF4FF48053FB60B7
:101A400001233B6100237B610023BB6107F10C0391
:101A500019460D4802F0B4FF4FF46453FB600123B4
:101A60003B6100237B610023BB6107F10C03194636
:101A7000044802F0A5FF00BF2037BD4680BD00BF6F
:101A800000380240000002400004024080B584B0EB
:101A900000AF03460A46FB711346BB71FB7903F0A6
:101AA0007F03DBB2FB7300224FF480510C4803F03C
:101AB00019F907F10F01012301220A4803F0B8FDCB
:101AC000B91D01230122074803F0B2FD01224FF4A2
:101AD0008051034803F006F900BF1037BD4680BDB2
:101AE000000402406C04002080B500AF00217F207C
:101AF000FFF7CCFF642001F053FE10210320FFF715
:101B0000C5FF012001F04CFE01210620FFF7BEFFBA
:101B1000642001F045FE20217F20FFF7B7FF6420FD
:101B200001F03EFE07210120FFF7B0FF012001F088
:101B300037FE0D211420FFF7A9FF012001F030FE30
:101B400000217F20FFF7A2FF642001F029FE002280
:101B50004FF48051054803F0C5F80D23044A0549A8
:101B6000054803F099FE00BF80BD00BF000402409D
:101B70002C020020000000206C04002080B582B000
:101B800000AF786001224FF48051144803F0AAF8A6
:101B9000134BDB781B021AB2114B1B791BB2134398
:101BA0001AB2104B1A800E4BDB7A1B021AB20C4B86
:101BB0001B7B1BB213431AB20B4B1A8000224FF44B
:101BC0008051064803F08EF80D23054A074908485E
:101BD00003F062FE00BF0837BD4680BD000402402E
:101BE0002C0200203A0200203E02002000000020CB
:101BF0006C04002080B400AF0D4BB3F900301A46DE
:101C00000C4BB3F90030D31A07EE903AF8EEE77AAE
:101C10009FED097A67EE877A9FED087AC7EE876AAB
:101C2000F0EE667AB0EE670ABD465DF8047B704759
:101C30003A0200203C0200200AE81C4100008045D6
:101C400080B400AF0F4BB3F900301A460E4BB3F916
:101C50000030D31A07EE903AF8EEE77ADFED0B6A20
:101C600087EEA67ADFED0A6AC7EE267A9FED097A3B
:101C700067EE877AF1EE677AB0EE670ABD465DF8E7
:101C8000047B70473E020020400200203333834132
:101C900000003443DA0F494080B400AF00BFBD46B6
:101CA0005DF8047B7047000080B500AF024804F087
:101CB00032F900BF80BD00BF840600202DE99048A6
:101CC0002DED028B00AF1F4B1B685B6A1E4A136031
:101CD0001D4B1B689AB21D4B1B689BB2D31A9BB25B
:101CE00099B24FF000021A4BD3E900BC1BEB010381
:101CF0004CEB0204164AC2E90034134B1B68134A2A
:101D00001360134BD3E9003418462146FFF7ACF8B3
:101D100008EE100A03F0D2F902460A4B1B689B6AD0
:101D2000B2FBF3F307EE903AB8EE677AC8EE077AA3
:101D3000084BC3ED007A00BFBD46BDEC028BBDE889
:101D4000908800BF84060020440200205402002036
:101D5000580200205002002080B400AF0F4B1B68D7
:101D60005A6A0F4B1B68D31A4FF47A7202FB03F2C4
:101D70000A4B1B68DB6AB2FBF3F30A4A1360094B98
:101D80001A68094B1B68934238BF1346064A136012
:101D900000BFBD465DF8047B704700BF840600208D
:101DA00044020020480200204C02002080B400AF12
:101DB000034B1B689BB21846BD465DF8047B704719
:101DC0004802002080B400AF034B1B689BB218464A
:101DD000BD465DF8047B70474C02002080B400AF24
:101DE000044B1B6807EE903AB0EE670ABD465DF8FB
:101DF000047B70475002002080B582B000AF78604D
:101E0000FFF75CFFFFF748FFFFF7A6FF00BF0837AB
:101E1000BD4680BD80B483B000AF0023FB710BE0F2
:101E200097F90730094A002142F8231097F9073043
:101E3000DBB20133DBB2FB7197F907300B2BEFDD1F
:101E400000BF0C37BD465DF8047B70476002002080
:101E500080B500AFFFF7DEFF064B80225A61054BCD
:101E600040225A62034B2022DA61024B1022DA60D0
:101E700000BF80BD6002002080B500AF174B1B681B
:101E8000DA68164B1B6842F4C062DA60134B1B68B9
:101E90005A6C124B1B6842F400425A640F4B1B6889
:101EA0006FF001021A61FFF7D3FF0C4B586A0C491F
:101EB0000C230C4A02F032FA084B986A0A490C23A8
:101EC000084A02F02BFA0C220849094801F0CEFC1E
:101ED0000821024804F078F800BF80BD0407002004
:101EE0006002002018000240040000209002002040
:101EF000B402002080B500AF0021044804F064F86B
:101F00000421024804F060F800BF80BD04070020EF
:101F100080B400AF0A4B1B881A46094B5B881344F8
:101F2000074A928A1344064AD28A1344002B00DAE5
:101F300003339B109BB21846BD465DF8047B704787
:101F40009002002080B483B000AF0346FB71FB79A0
:101F5000032B2BD801A252F823F000BF8D1F0008DD
:101F60009D1F00087D1F00086D1F0008134B5A8934
:101F7000124B1B89D31A9BB21BB219E00F4B5A8A22
:101F80000E4B1B8AD31A9BB21BB211E00B4BDA89A2
:101F90000A4B9B89D31A9BB21BB209E0074BDA8824
:101FA000064B9B88D31A9BB21BB201E04FF0FF3364
:101FB00018460C37BD465DF8047B70479002002040
:101FC00080B500AF01F07AFB00F030F8FFF7E8FCD5
:101FD000FFF71CFCFFF70EF900F03EFC00F07EFE60
:101FE00000F048FF00F09AFF00F0ECFF01F082F8EB
:101FF00001F05AFA01224FF464510B4802F072FECC
:10200000FFF7E0FB00F0ECFAFFF75EFCFFF76CFD7A
:10201000FFF732FFFFF748FEFFF77CFAFFF76AFF92
:1020200000F076F8FEE700BF0000024080B594B0F3
:1020300000AF07F11C0334220021184606F014F902
:1020400007F1080300221A605A609A60DA601A6188
:1020500000237B60284B1B6C274A43F0805313649A
:10206000254B1B6C03F080537B607B6800233B6037
:10207000224B1B68214A43F4404313601F4B1B68EB
:1020800003F440433B603B680223FB610123BB62D6
:102090001023FB6202237B630023BB631023FB63DB
:1020A000C0233B6402237B640223BB640223FB64E2
:1020B00007F11C03184603F015F80346002B01D066
:1020C00000F01EF80F23BB600223FB6000233B617E
:1020D0004FF480537B610023BB6107F108030321A8
:1020E000184602F033FE0346002B01D000F008F83A
:1020F00000BF5037BD4680BD003802400070004030
:1021000080B400AF00BFBD465DF8047B704700009F
:10211000F0B585B002AF0023FB800023BB80002315
:102120007B80E14B5B6B184602F050F9FFF7DCFB5C
:10213000FFF7E6FBFFF752FE10EE103A1846FEF7E7
:102140002BFA03460C461A462346D84806F07AFF77
:10215000FB880133FB80FFF729FE034607EE903A28
:10216000F8EE677AB2EE047AC7EE876A16EE900A46
:10217000FEF712FA05460E46FFF724FE034607EE69
:10218000903AF8EE677AB2EE047AC7EE876A16EEF6
:10219000900AFEF701FA03460C46CDE900342A46C0
:1021A0003346C34806F04EFFFB880133FB80B7F986
:1021B000043007EE903AF8EEE77AB2EE047AC7EE12
:1021C000876A16EE900AFEF7E7F905460E46B7F95C
:1021D000023007EE903AF8EEE77AB2EE047AC7EEF4
:1021E000876A16EE900AFEF7D7F903460C46CDE94A
:1021F00000342A463346AF4806F024FFFB880133FB
:10220000FB80FFF78BFBF0EE406A9FEDAB7AC6EEEA
:10221000877A9FEDAA7A67EE877A17EE900AFEF723
:10222000BBF905460E46FFF799FBF0EE406A9FEDBD
:10223000A27AC6EE877A9FEDA17A67EE877A17EECB
:10224000900AFEF7A9F903460C46CDE900342A4668
:1022500033469B4806F0F6FEFB880133FB80FFF710
:1022600041F910EE103A1846FEF796F903460C466F
:102270001A462346934806F0E5FEFB880133FB80AF
:102280000320FFF75FFE03461C460220FFF75AFEBD
:1022900003461D460120FFF755FE03461E4600205B
:1022A000FFF750FE0346009333462A4621468648F0
:1022B00006F0C8FEFB880133FB80FFF79BFC10EEA5
:1022C000103A1846FEF768F905460E46FFF7B8FCC7
:1022D00010EE103A1846FEF75FF903460C46CDE9BA
:1022E00000342A463346794806F0ACFEFB880133B9
:1022F000FB80FFF74BF903467B707B781B3B5C2B25
:1023000000F2138101A252F823F000BFC525000896
:102310002B2500082B2500082B2500082B2500085D
:102320002B2500082B2500082B2500082B2500084D
:102330002B2500082B2500082B2500082B2500083D
:102340002B2500082B2500082B2500082B2500082D
:102350002B2500082B2500082B2500082B2500081D
:102360002B2500088124000895240008D1240008AA
:102370002B2500082B2500082B250008E524000844
:10238000F92400080D2500082B2500082B2500083E
:102390002B2500082B2500082B2500082B250008DD
:1023A0002B2500082B2500082B2500082B250008CD
:1023B0002B2500082B2500082B2500082B250008BD
:1023C0002B2500082B2500082B2500082B250008AD
:1023D0002B2500082B2500082B2500082B2500089D
:1023E0002B2500082B2500082B2500082B2500088D
:1023F0002B2500082B2500082B2500082B2500087D
:102400002B2500082B2500082B2500082B2500086C
:102410002B2500082B2500082B2500082B2500085C
:102420002B2500082B2500082B2500082B2500084C
:102430002B250008DB2400082B2500082B2500088D
:102440002B250008032500082B2500082B25000854
:102450002B2500082B2500082B2500081725000830
:102460002B2500088B240008212500082B250008B7
:102470002B250008EF2400082B2500089F240008C6
:10248000BB8801339BB2BB804FE0BB88013B9BB252
:10249000BB804AE0BB880A339BB2BB8045E0BB8867
:1024A0000A3B9BB2BB8040E044080020C0C4000847
:1024B000D8C4000804C50008DA0F494000003443BE
:1024C00030C500085CC5000874C50008A4C5000834
:1024D000BB8864339BB2BB8027E0BB88643B9BB264
:1024E000BB8022E07B8801339BB27B801DE07B8830
:1024F000013B9BB27B8018E07B880A339BB27B80D8
:1025000013E07B880A3B9BB27B800EE07B886433C0
:102510009BB27B8009E07B88643B9BB27B8004E0BC
:1025200000237B807B88BB8000BFB7F90430002B81
:1025300002DA4FF6FF7200E00122B7F90430002BF7
:10254000B8BF5B4240F2B6318B42A8BF0B469BB28C
:1025500012FB03F39BB2BB80B7F90230002B02DA07
:102560004FF6FF7200E00122B7F90230002BB8BF2E
:102570005B4240F2B6318B42A8BF0B469BB212FBC6
:1025800003F39BB27B80B7F90430184600F05CF887
:10259000B7F90230184600F0DBF80E4B1B689B6859
:1025A000184605F061FD4FF4FA7001F0F9F81B21AF
:1025B000094806F047FDFB881A461B21074806F02C
:1025C00041FDB7E500BF00F021F800BF0C37BD4664
:1025D000F0BD00BF40000020D8C50008E0C50008DD
:1025E00080B500AF0021084803F0EEFC0421064846
:1025F00003F0EAFC0821044803F0E6FC0C21024841
:1026000003F0E2FC00BF80BDE405002080B400AF11
:102610000C4B1B684FF6FF729A630A4B1B684FF610
:10262000FF725A63074B1B684FF6FF721A64054B23
:102630001B684FF6FF72DA6300BFBD465DF8047B8E
:10264000704700BFE405002080B584B000AF0346AA
:10265000FB80B7F90630002BB8BF5B4240F2B632C0
:10266000934212DD02F016FD03465B09354AA2FBD8
:102670000323DB0940F2B63202FB03F3324AA2FB2A
:1026800003239B09013BFB6036E0B7F9063013F1E9
:102690001D0F17DBB7F906301D2B13DC02F0FAFC17
:1026A00003465B09274AA2FB0323DA0913461B01F1
:1026B0009B1A5B001A46244BA3FB02239B09013B98
:1026C000FB6019E002F0E6FC03465B091D4AA2FB31
:1026D0000323DA09B7F90630002B03DAB7F906301D
:1026E0005B4201E0B7F9063002FB03F3164AA2FB96
:1026F00003239B09013BFB60B7F90630002B08DD83
:10270000124B1B68FA689A63104B1B6800225A63CD
:1027100014E0B7F90630002B08DA0C4B1B680022D6
:102720009A630A4B1B68FA685A6307E0074B1B68F9
:1027300000229A63054B1B6800225A6300BF1037C2
:10274000BD4680BDC55A7C0AD34D6210E405002009
:1027500080B584B000AF0346FB80B7F90630002B8C
:10276000B8BF5B4240F2B632934212DD02F092FCF7
:1027700003465B09354AA2FB0323DB0940F2B6326C
:1027800002FB03F3324AA2FB03239B09013BFB60DC
:1027900036E0B7F9063013F11D0F17DBB7F9063035
:1027A0001D2B13DC02F076FC03465B09274AA2FBD3
:1027B0000323DA0913461B019B1A5B001A46244BBC
:1027C000A3FB02239B09013BFB6019E002F062FCC2
:1027D00003465B091D4AA2FB0323DA09B7F9063059
:1027E000002B03DAB7F906305B4201E0B7F9063097
:1027F00002FB03F3164AA2FB03239B09013BFB6088
:10280000B7F90630002B08DD124B1B68FA681A6412
:10281000104B1B680022DA6314E0B7F90630002B76
:1028200008DA0C4B1B6800221A640A4B1B68FA6812
:10283000DA6307E0074B1B6800221A64054B1B682C
:102840000022DA6300BF1037BD4680BDC55A7C0A3E
:10285000D34D6210E405002080B500AF174B184A35
:102860001A60164B4FF482725A60144B00229A6021
:10287000124B0022DA60114B02221A610F4B012227
:102880005A610E4B4FF400729A610C4B2822DA61A8
:102890000A4B00221A62094B00225A62074B00229F
:1028A0009A62064B0A22DA62044802F05DFE034691
:1028B000002B01D0FFF724FC00BF80BD6C0400207A
:1028C0000038004080B58AB000AF786007F114038B
:1028D00000221A605A609A60DA601A617B681B688D
:1028E000484A934240F0898000233B61464B1B6C71
:1028F000454A43F480431364434B1B6C03F4804309
:102900003B613B690023FB603F4B1B6B3E4A43F03E
:10291000020313633C4B1B6B03F00203FB60FB6879
:102920004FF460437B610223BB610023FB610323FF
:102930003B6205237B6207F114031946334802F01A
:102940003FF8334B334A1A60314B00225A60304B08
:1029500000229A602E4B0022DA602D4B4FF48062E9
:102960001A612B4B00225A61294B00229A61284B95
:102970000022DA61264B4FF440321A62244B0022C7
:102980005A62234801F01CFC0346002B01D0FFF7DC
:10299000B7FB7B681E4ADA641D4A7B6893631E4B53
:1029A0001E4A1A601C4B00225A601B4B40229A6040
:1029B000194B0022DA60184B4FF480621A61164BF3
:1029C00000225A61144B00229A61134B0022DA61F3
:1029D000114B4FF440321A620F4B00225A620E48DC
:1029E00001F0EEFB0346002B01D0FFF789FB7B686B
:1029F000094A9A64084A7B68936300BF2837BD463A
:102A000080BD00BF00380040003802400004024092
:102A1000C404002058600240240500207060024079
:102A200080B483B000AF00237B60104B5B6C0F4A17
:102A300043F4804353640D4B5B6C03F480437B6031
:102A40007B6800233B60094B1B6C084A43F08053B2
:102A50001364064B1B6C03F080533B603B6800BF64
:102A60000C37BD465DF8047B704700BF003802405C
:102A700080B400AF00BFBD465DF8047B704780B4F2
:102A800000AFFEE780B400AFFEE780B400AFFEE722
:102A900080B400AFFEE780B400AF00BFBD465DF874
:102AA000047B704780B400AF00BFBD465DF8047B77
:102AB000704780B400AF00BFBD465DF8047B70472F
:102AC00080B500AF00F04CFE00BF80BD80B500AF08
:102AD000024801F00DFD00BF80BD00BFC40400200E
:102AE00080B500AF024801F003FD00BF80BD00BF0C
:102AF0002405002080B500AF024804F005FB00BFAC
:102B000080BD00BF4408002080B500AF024801F03E
:102B1000EFFC00BF80BD00BFFC02002080B500AF0D
:102B2000024801F0E5FC00BF80BD00BF8405002025
:102B300080B500AF024801F0DBFC00BF80BD00BFE4
:102B40002406002080B500AF024801F0D1FC00BF90
:102B500080BD00BFE407002080B500AF024801F04F
:102B6000C7FC00BF80BD00BF8407002080B586B0D1
:102B700000AFF860B9607A6000237B610EE0FEF779
:102B80003DFE0346DAB2BB681A70BB685A1CBA60D5
:102B90001B780A2B07D07B6901337B617A697B68DC
:102BA0009A42ECDB00E000BF7B6901337B617B690B
:102BB00018461837BD4680BD80B586B000AFF860B6
:102BC000B9607A6000237B6109E0BB685A1CBA6077
:102BD0001B781846FEF704FE7B6901337B617A6936
:102BE0007B689A42F1DB7B6818461837BD4680BD8A
:102BF00080B483B000AF78604FF0FF3318460C37D5
:102C0000BD465DF8047B704780B483B000AF786048
:102C100039603B684FF400525A60002318460C3765
:102C2000BD465DF8047B704780B483B000AF786028
:102C3000012318460C37BD465DF8047B704780B40D
:102C400085B000AFF860B9607A6000231846143789
:102C5000BD465DF8047B704780B584B000AF7860F6
:102C6000114B1B68002B02D10F4B104A1A600E4B00
:102C70001B68FB600C4B1A687B6813446A469342DE
:102C800007D905F03BF902460C2313604FF0FF33E0
:102C900006E0054B1A687B681344034A1360FB681F
:102CA00018461037BD4680BDA802002090080020BD
:102CB00080B400AF084BD3F88830074A43F4700360
:102CC000C2F88830044B4FF000629A6000BFBD46E6
:102CD0005DF8047B704700BF00ED00E080B596B062
:102CE00000AF07F1480300221A605A609A60DA6068
:102CF00007F1400300221A605A6007F12403002202
:102D00001A605A609A60DA601A615A619A613B1DD2
:102D100020220021184605F0A7FA544B544A1A60A5
:102D2000524B00225A60514B00229A604F4B41F6A1
:102D30003F72DA604D4B00221A614C4B00225A61FF
:102D40004A4B00229A61494803F0BAF80346002B27
:102D500001D0FFF7D5F94FF48053BB6407F1480366
:102D60001946424803F0FEFA0346002B01D0FFF754
:102D7000C7F93E4803F0F3F80346002B01D0FFF7F4
:102D8000BFF900233B6400237B6407F1400319462D
:102D9000364803F0AFFE0346002B01D0FFF7B0F931
:102DA00070237B620123BB620023FB6200233B6331
:102DB00000237B630023BB630023FB6307F1240331
:102DC00000221946294803F007FA0346002B01D0D8
:102DD000FFF796F9254B1B689A69244B1B6822F074
:102DE00008029A6140F66113BB6207F124030422D2
:102DF00019461E4803F0F0F90346002B01D0FFF7F7
:102E00007FF91A4B1B689A69184B1B6822F4006201
:102E10009A6140F28173BB6207F1240308221946CC
:102E2000124803F0D9F90346002B01D0FFF768F9E7
:102E300000237B600023BB600023FB6000233B6119
:102E400000237B614FF40053BB614FF480433B622E
:102E50003B1D1946054803F0C9FE0346002B01D06F
:102E6000FFF74EF900BF5837BD4680BD040700206C
:102E70000000014080B58CB000AF07F10C032422A4
:102E80000021184605F0F0F93B1D00221A605A6037
:102E9000214B4FF080421A601F4B00225A601E4B9C
:102EA00000229A601C4B4FF6FF72DA601A4B002228
:102EB0001A61194B00229A610323FB6000233B61D6
:102EC00001237B610023BB610023FB6100233B6284
:102ED00001237B620023BB620023FB6207F10C032A
:102EE00019460D4803F0AEF80346002B01D0FFF75A
:102EF00007F900237B600023BB603B1D1946064891
:102F000003F0F8FD0346002B01D0FFF7F9F800BFEE
:102F10003037BD4680BD00BF4407002080B58CB06F
:102F200000AF07F10C0324220021184605F09CF99C
:102F30003B1D00221A605A60204B214A1A601F4B29
:102F400000225A601D4B00229A601C4B4FF6FF7204
:102F5000DA601A4B00221A61184B00229A6103238F
:102F6000FB6000233B6101237B610023BB610023E5
:102F7000FB6100233B6201237B620023BB620023D1
:102F8000FB6207F10C0319460C4803F05BF803469B
:102F9000002B01D0FFF7B4F800237B600023BB6057
:102FA0003B1D1946054803F0A5FD0346002B01D043
:102FB000FFF7A6F800BF3037BD4680BDC40600202D
:102FC0000004004080B58EB000AF07F12803002256
:102FD0001A605A609A60DA6007F1200300221A60D2
:102FE0005A603B1D00221A605A609A60DA601A61CA
:102FF0005A619A613D4B3E4A1A603C4B00225A602E
:103000003A4B00229A60394B40F2DF12DA60374BBC
:1030100000221A61354B00229A61344802F050FFB9
:103020000346002B01D0FFF76BF84FF48053BB62CF
:1030300007F1280319462D4803F094F90346002BA5
:1030400001D0FFF75DF8294802F089FF0346002B05
:1030500001D0FFF755F800233B6200237B6207F1A4
:1030600020031946214803F045FD0346002B01D0FB
:10307000FFF746F870237B600023BB600023FB60F2
:1030800000237B613B1D00221946184803F0A4F879
:103090000346002B01D0FFF733F83B1D04221946ED
:1030A000124803F099F80346002B01D0FFF728F8E7
:1030B0003B1D082219460D4803F08EF80346002BED
:1030C00001D0FFF71DF83B1D0C221946074803F0FD
:1030D00083F80346002B01D0FFF712F8034800F0F5
:1030E000A9F900BF3837BD4680BD00BFE405002008
:1030F0000008004080B586B000AF07F10803002249
:103100001A605A609A60DA603B4600221A605A6080
:103110001D4B1E4A1A601C4B1F225A601A4B00227C
:103120009A60194B4FF6FF72DA60174B00221A6152
:10313000154B00229A61144802F0C2FE0346002B90
:1031400001D0FEF7DDFF4FF48053BB6007F10803A9
:1031500019460D4803F006F90346002B01D0FEF78F
:10316000CFFF00233B6000237B603B4619460648A7
:1031700003F0C0FC0346002B01D0FEF7C1FF00BFE7
:103180001837BD4680BD00BF84060020000C0040FB
:1031900080B586B000AF78607B681B68504A934268
:1031A00072D100237B614F4B5B6C4E4A43F00103AD
:1031B00053644C4B5B6C03F001037B617B694A4BAE
:1031C0004A4A1A60484B4FF040625A60464B4022D0
:1031D0009A60454B0022DA60434B4FF480621A61DB
:1031E000414B4FF480525A613F4B4FF480429A61F9
:1031F0003D4B4FF48072DA613B4B4FF440321A6220
:10320000394B00225A62384800F0DAFF0346002B9F
:1032100001D0FEF775FF7B68334A5A62324A7B68F9
:103220009363334B334A1A60314B4FF040625A601C
:103230002F4B40229A602E4B0022DA602C4B4FF429
:1032400080621A612A4B4FF480525A61284B4FF426
:1032500080429A61264B4FF48072DA61244B4FF41E
:1032600040321A62224B00225A62214800F0A8FF25
:103270000346002B01D0FEF743FF7B681C4A9A628D
:103280001B4A7B68936326E07B681B681A4A93425B
:103290000ED100233B61134B1B6C124A43F0040315
:1032A0001364104B1B6C03F004033B613B6912E099
:1032B0007B681B68114A93420DD10023FB60094BC8
:1032C0001B6C084A43F008031364064B1B6C03F0A5
:1032D0000803FB60FB6800BF1837BD4680BD00BF18
:1032E00000000140003802408405002028640240AC
:1032F000240600204064024000080040000C00400A
:1033000080B58CB000AF786007F11C0300221A6012
:103310005A609A60DA601A617B681B68B3F1804F6B
:103320004BD10023BB613F4B1B6C3E4A43F0010372
:1033300013643C4B1B6C03F00103BB61BB690023AE
:103340007B61384B1B6B374A43F001031363354BEA
:103350001B6B03F001037B617B6900233B61314BF5
:103360001B6B304A43F0020313632E4B1B6B03F0BD
:1033700002033B613B694FF40043FB6102233B6264
:1033800000237B620023BB620123FB6207F11C0365
:103390001946254801F014FB0823FB6102233B6218
:1033A00000237B620023BB620123FB6207F11C0345
:1033B00019461E4801F004FB30E07B681B681C4A7C
:1033C00093422BD10023FB60164B1B6C154A43F034
:1033D00002031364134B1B6C03F00203FB60FB68D6
:1033E0000023BB600F4B1B6B0E4A43F002031363B9
:1033F0000C4B1B6B03F00203BB60BB683023FB610B
:1034000002233B6200237B620023BB620223FB6238
:1034100007F11C031946054801F0D2FA00BF303706
:10342000BD4680BD0038024000000240000402405A
:103430000004004080B588B000AF786007F10C034D
:1034400000221A605A609A60DA601A617B681B6811
:10345000124A93421ED10023BB60114B1B6B104AD2
:1034600043F0020313630E4B1B6B03F00203BB60BC
:10347000BB684FF47073FB6002233B6100237B61E8
:103480000223BB610223FB6107F10C0319460548C7
:1034900001F096FA00BF2037BD4680BD000800400D
:1034A000003802400004024080B500AF114B124AC0
:1034B0001A60104B4FF461325A600E4B00229A6032
:1034C0000C4B0022DA600B4B00221A61094B0C22D4
:1034D0005A61084B00229A61064B0022DA610548C6
:1034E00003F0D6FB0346002B01D0FEF709FE00BF18
:1034F00080BD00BF440800200010014080B58AB0A4
:1035000000AF786007F1140300221A605A609A60D5
:10351000DA601A617B681B684C4A934240F09280E3
:1035200000233B614A4B5B6C494A43F010035364F0
:10353000474B5B6C03F010033B613B690023FB606E
:10354000434B1B6B424A43F001031363404B1B6B1D
:1035500003F00103FB60FB684FF4C0637B6102234F
:10356000BB610023FB6103233B6207237B6207F1FE
:1035700014031946374801F023FA374B374A1A60CB
:10358000354B4FF000625A60334B00229A60324B49
:103590000022DA60304B4FF480621A612E4B002219
:1035A0005A612D4B00229A612B4B4FF48072DA61E5
:1035B000294B00221A62284B00225A62264800F04A
:1035C000FFFD0346002B01D0FEF79AFD7B68224ADF
:1035D0005A63214A7B689363214B224A1A60204B2D
:1035E0004FF000625A601E4B40229A601C4B002232
:1035F000DA601B4B4FF480621A61194B00225A614A
:10360000174B00229A61164B0022DA61144B0022FC
:103610001A62134B00225A62114800F0D1FD034692
:10362000002B01D0FEF76CFD7B680D4A1A630C4A33
:103630007B68936300220221252000F08AFD25206B
:1036400000F0A3FD00BF2837BD4680BD001001403B
:103650000038024000000240E40700208864024075
:1036600084070020B8640240DFF834D0002103E072
:103670000C4B5B58435004310B480C4B42189A4298
:10368000F6D30B4A02E0002342F8043B094B9A426E
:10369000F9D3FFF70DFB04F0C3FDFEF791FC704773
:1036A0000000052030C900080000002010020020A2
:1036B000100200208C080020FEE7000080B500AF5B
:1036C0000E4B1B680D4A43F4007313600B4B1B68D1
:1036D0000A4A43F480631360084B1B68074A43F4AB
:1036E00080731360032000F029FD002000F008F82B
:1036F000FFF796F90023184680BD00BF003C02404A
:1037000080B582B000AF7860124B1A68124B1B78FC
:1037100019464FF47A73B3FBF1F3B2FBF3F3184697
:1037200000F041FD0346002B01D001230EE07B6831
:103730000F2B0AD8002279684FF0FF3000F009FD06
:10374000064A7B681360002300E00123184608370F
:10375000BD4680BD340000203C0000203800002021
:1037600080B400AF064B1B781A46064B1B68134407
:10377000044A136000BFBD465DF8047B704700BF7C
:103780003C0000208408002080B400AF034B1B687D
:103790001846BD465DF8047B704700BF84080020D2
:1037A00080B584B000AF7860FFF7EEFFB8607B684B
:1037B000FB60FB68B3F1FF3F05D0094B1B781A464D
:1037C000FB681344FB6000BFFFF7DEFF0246BB68E7
:1037D000D31AFA689A42F7D800BF1037BD4680BDA9
:1037E0003C00002080B584B000AF78600023FB73FC
:1037F0007B68002B01D1012333E07B681B6C002B1D
:1038000009D17868FDF7DAFD7B6800225A647B688D
:10381000002283F83C207B681B6C03F01003002B14
:1038200018D17B681B6C23F4885323F0020343F008
:1038300002027B681A64786800F032FA7B68002222
:103840005A647B681B6C23F0030343F001027B681E
:103850001A6401E00123FB737B68002283F83C209B
:10386000FB7B18461037BD4680BD000080B586B092
:1038700000AFF860B9607A6000233B61FB6893F8A1
:103880003C30012B01D10223B1E0FB68012283F817
:103890003C20FB681B689B6803F00103012B18D0D8
:1038A000FB681B689A68FB681B6842F001029A601B
:1038B000514B1B68514AA2FB03239A0C13465B0031
:1038C00013443B6102E03B69013B3B613B69002BD8
:1038D000F9D1FB681B689B6803F00103012B40F0E2
:1038E0008580FB681B6C23F4E06323F0010343F441
:1038F0008072FB681A64FB681B685B6803F4806372
:10390000002B07D0FB681B6C23F4405343F4805218
:10391000FB681A64FB681B6C03F48053B3F5805F8B
:1039200006D1FB685B6C23F00602FB685A6402E078
:10393000FB6800225A64FB68002283F83C20304B6D
:103940007B61FB689B6B2F4ADA63FB689B6B2E4A9B
:103950001A64FB689B6B2D4ADA64FB681B686FF086
:1039600022021A60FB681B685A68FB681B6842F0F9
:1039700080625A60FB681B689A68FB681B6842F4A7
:1039800080729A60FB68986BFB681B684C33194621
:10399000BA687B6800F0C2FC7B695B6803F01F03B8
:1039A000002B0FD1FB681B689B6803F04053002B72
:1039B0001CD1FB681B689A68FB681B6842F0804258
:1039C0009A6013E0FB681B68114A93420ED1FB68B2
:1039D0001B689B6803F04053002B07D1FB681B68F2
:1039E0009A68FB681B6842F080429A600023184680
:1039F0001837BD4680BD00BF3400002083DE1B4366
:103A000000230140993E0008533F00086F3F000823
:103A10000020014080B483B000AF786000BF0C3755
:103A2000BD465DF8047B704780B483B000AF78601A
:103A300000BF0C37BD465DF8047B704780B485B08D
:103A400000AF786039600023BB607B6893F83C303E
:103A5000012B01D1022313E17B68012283F83C2072
:103A60003B681B68092B25D97B681B68D9683B68B4
:103A70001B689BB21A4613465B0013441E3B072289
:103A800002FA03F3DA437B681B680A40DA607B685A
:103A90001B68D9683B689A683B681B689BB21846EC
:103AA00003465B0003441E3B9A407B681B680A4345
:103AB000DA6022E07B681B6819693B681B689BB26F
:103AC0001A4613465B001344072202FA03F3DA4353
:103AD0007B681B680A401A617B681B6819693B6830
:103AE0009A683B681B689BB2184603465B00034418
:103AF0009A407B681B680A431A613B685B68062B27
:103B000024D87B681B68596B3B685A6813469B0036
:103B10001344053B1F2202FA03F3DA437B681B6858
:103B20000A405A637B681B68596B3B681B689BB2F1
:103B300018463B685A6813469B001344053B00FA3D
:103B400003F27B681B680A435A634CE03B685B687E
:103B50000C2B24D87B681B68196B3B685A6813468A
:103B60009B001344233B1F2202FA03F3DA437B68D2
:103B70001B680A401A637B681B68196B3B681B68EB
:103B80009BB218463B685A6813469B001344233B7C
:103B900000FA03F27B681B680A431A6323E07B6820
:103BA0001B68D96A3B685A6813469B001344413B23
:103BB0001F2202FA03F3DA437B681B680A40DA62C9
:103BC0007B681B68D96A3B681B689BB218463B68D8
:103BD0005A6813469B001344413B00FA03F27B688A
:103BE0001B680A43DA62294BFB607B681B68284A22
:103BF00093420FD13B681B68122B0BD1FB685B68AB
:103C000023F40002FB685A60FB685B6843F480029F
:103C1000FB685A607B681B681D4A93422BD13B6846
:103C20001B681C4A934203D03B681B68112B22D1AE
:103C3000FB685B6823F48002FB685A60FB685B6882
:103C400043F40002FB685A603B681B68114A9342C8
:103C500011D1114B1B68114AA2FB03239A0C134686
:103C60009B0013445B00BB6002E0BB68013BBB6090
:103C7000BB68002BF9D17B68002283F83C2000232D
:103C800018461437BD465DF8047B70470023014099
:103C900000200140120000103400002083DE1B438E
:103CA00080B485B000AF7860794BFB60FB685B68DF
:103CB00023F44032FB685A60FB685A687B685B6893
:103CC0001A43FB685A607B681B685A687B681B68EC
:103CD00022F480725A607B681B6859687B681B6994
:103CE0001A027B681B680A435A607B681B685A6823
:103CF0007B681B6822F040725A607B681B685968B9
:103D00007B689A687B681B680A435A607B681B68FB
:103D10009A687B681B6822F400629A607B681B6863
:103D200099687B68DA687B681B680A439A607B68DD
:103D30009B6A584A934222D07B681B689A687B68CA
:103D40001B6822F070629A607B681B6899687B68C8
:103D50009A6A7B681B680A439A607B681B689A684A
:103D60007B681B6822F040529A607B681B689968E8
:103D70007B68DA6A7B681B680A439A600FE07B689D
:103D80001B689A687B681B6822F070629A607B6887
:103D90001B689A687B681B6822F040529A607B68B7
:103DA0001B689A687B681B6822F002029A607B6835
:103DB0001B6899687B681B7E5A007B681B680A43F6
:103DC0009A607B6893F82030002B1BD07B681B68BF
:103DD0005A687B681B6842F400625A607B681B6803
:103DE0005A687B681B6822F460425A607B681B68D3
:103DF00059687B685B6A013B5A037B681B680A430E
:103E00005A6007E07B681B685A687B681B6822F46D
:103E100000625A607B681B68DA6A7B681B6822F460
:103E20007002DA627B681B68D96A7B68DB69013BD8
:103E30001A057B681B680A43DA627B681B689A680C
:103E40007B681B6822F400729A607B681B68996823
:103E50007B6893F830305A027B681B680A439A608B
:103E60007B681B689A687B681B6822F480629A6092
:103E70007B681B6899687B685B699A027B681B6832
:103E80000A439A6000BF1437BD465DF8047B704753
:103E9000002301400100000F80B584B000AF7860BE
:103EA0007B689B6BFB60FB681B6C03F05003002B73
:103EB0003CD1FB681B6C43F40072FB681A64FB681E
:103EC0001B689B6803F04053002B2BD1FB681B7EC3
:103ED000002B27D1FB681B68DB6A03F47003002BFF
:103EE00006D0FB681B689B6803F48063002B19D124
:103EF000FB681B685A68FB681B6822F020025A6046
:103F0000FB681B6C23F48072FB681A64FB681B6CF3
:103F100003F48053002B05D1FB681B6C43F00102B6
:103F2000FB681A64F868FDF767FF0EE0FB681B6C1E
:103F300003F01003002B03D0F868FFF775FD04E0D1
:103F4000FB689B6BDB6C7868984700BF1037BD46F9
:103F500080BD80B584B000AF78607B689B6BFB60F0
:103F6000F868FFF757FD00BF1037BD4680BD80B52C
:103F700084B000AF78607B689B6BFB60FB6840227D
:103F80001A64FB685B6C43F00402FB685A64F868CF
:103F9000FFF74AFD00BF1037BD4680BD80B485B035
:103FA00000AF78607B6803F00703FB600C4BDB68B5
:103FB000BB60BA684FF6FF031340BB60FB681A0290
:103FC000BB68134343F0BF6343F40033BB60044A50
:103FD000BB68D36000BF1437BD465DF8047B7047F3
:103FE00000ED00E080B400AF044BDB681B0A03F077
:103FF00007031846BD465DF8047B704700ED00E0FE
:1040000080B483B000AF0346FB7197F90730002BF3
:104010000BDBFB7903F01F02074997F907305B09B7
:10402000012000FA02F241F8232000BF0C37BD4600
:104030005DF8047B704700BF00E100E080B483B00E
:1040400000AF03463960FB7197F90730002B0ADB9C
:104050003B68DAB20C4997F907301201D2B20B442F
:1040600083F800230AE03B68DAB20849FB7903F0E1
:104070000F03043B1201D2B20B441A7600BF0C3777
:10408000BD465DF8047B704700E100E000ED00E014
:1040900080B489B000AFF860B9607A60FB6803F063
:1040A0000703FB61FB69C3F10703042B28BF04234B
:1040B000BB61FB690433062B02D9FB69033B00E0BB
:1040C00000237B614FF0FF32BB6902FA03F3DA434E
:1040D000BB681A407B699A404FF0FF317B6901FA57
:1040E00003F3D9437B680B40134318462437BD467E
:1040F0005DF8047B7047000080B582B000AF786047
:104100007B68013BB3F1807F01D301230FE00A4AB2
:104110007B68013B53600F214FF0FF30FFF78EFFAC
:10412000054B00229A60044B07221A6000231846B0
:104130000837BD4680BD00BF10E000E080B582B00A
:1041400000AF78607868FFF729FF00BF0837BD46E9
:1041500080BD80B586B000AF0346B9607A60FB735E
:1041600000237B61FFF73EFF78617A68B968786960
:10417000FFF78EFF024697F90F3011461846FFF7FA
:104180005DFF00BF1837BD4680BD80B582B000AF6F
:104190000346FB7197F907301846FFF731FF00BF60
:1041A0000837BD4680BD80B582B000AF78607868C2
:1041B000FFF7A2FF034618460837BD4680BD000042
:1041C00080B586B000AF786000237B61FFF7DCFA32
:1041D00038617B68002B01D1012399E07B680022C4
:1041E00083F834207B68022283F835207B681B68C3
:1041F0001A687B681B6822F001021A600FE0FFF763
:10420000C3FA02463B69D31A052B08D97B682022E2
:104210005A657B68032283F83520032378E07B68A6
:104220001B681B6803F00103002BE8D17B681B6847
:104230001B687B617A69384B13407B617B685A68E5
:104240007B689B681A437B68DB681A437B681B6941
:104250001A437B685B691A437B689B691A437B68D6
:10426000DB691A437B681B6A13437A6913437B61DA
:104270007B685B6A042B07D17B68DA6A7B681B6BFF
:1042800013437A6913437B617B681B687A691A6000
:104290007B681B685B697B617B6923F007037B613B
:1042A0007B685B6A7A6913437B617B685B6A042B7A
:1042B00017D17B689B6A7A6913437B617B68DB6AF1
:1042C000002B0ED0786800F001FB0346002B08D0CD
:1042D0007B6840225A657B68012283F835200123E0
:1042E00016E07B681B687A695A61786800F0B8FA52
:1042F0000346FB607B68DB6D3F229A40FB689A6057
:104300007B6800225A657B68012283F835200023F0
:1043100018461837BD4680BD3F8010E080B586B096
:1043200000AFF860B9607A603B600023FB75FB6802
:104330009B6D3B61FB6893F83430012B01D1022364
:1043400040E0FB68012283F83420FB6893F83530A5
:10435000DBB2012B2FD1FB68022283F83520FB68EA
:1043600000225A653B687A68B968F86800F04AFA32
:10437000FB68DB6D3F229A403B699A60FB681B68D3
:104380001A68FB681B6842F016021A60FB681B6C17
:10439000002B07D0FB681B681A68FB681B6842F09B
:1043A00008021A60FB681B681A68FB681B6842F009
:1043B00001021A6005E0FB68002283F83420022322
:1043C000FB75FB7D18461837BD4680BD80B584B0AF
:1043D00000AF78607B689B6DFB60FFF7D5F9B86034
:1043E0007B6893F83530DBB2022B08D07B688022E3
:1043F0005A657B68002283F83420012352E07B68F1
:104400001B681A687B681B6822F016021A607B68BA
:104410001B685A697B681B6822F080025A617B68BE
:104420001B6C002B03D17B689B6C002B07D07B6837
:104430001B681A687B681B6822F008021A607B6898
:104440001B681A687B681B6822F001021A6013E07F
:10445000FFF79AF90246BB68D31A052B0CD97B6883
:1044600020225A657B68002283F834207B6803226F
:1044700083F83520032315E07B681B681B6803F075
:104480000103002BE4D17B68DB6D3F229A40FB687F
:104490009A607B68002283F834207B68012283F8CD
:1044A0003520002318461037BD4680BD80B483B048
:1044B00000AF78607B6893F83530DBB2022B04D014
:1044C0007B6880225A6501230CE07B68052283F813
:1044D00035207B681B681A687B681B6822F0010224
:1044E0001A60002318460C37BD465DF8047B704700
:1044F00080B586B000AF78600023BB60924B1B682C
:10450000924AA2FB03239B0A7B617B689B6D3B6104
:104510003B691B68FB607B68DB6D08229A40FB6887
:104520001340002B1AD07B681B681B6803F0040340
:10453000002B13D07B681B681A687B681B6822F00D
:1045400004021A607B68DB6D08229A403B699A601E
:104550007B685B6D43F001027B685A657B68DB6DAD
:1045600001229A40FB681340002B12D07B681B6825
:104570005B6903F08003002B0BD07B68DB6D0122AD
:104580009A403B699A607B685B6D43F002027B68EE
:104590005A657B68DB6D04229A40FB681340002B50
:1045A00012D07B681B681B6803F00203002B0BD042
:1045B0007B68DB6D04229A403B699A607B685B6D87
:1045C00043F004027B685A657B68DB6D10229A40D9
:1045D000FB681340002B43D07B681B681B6803F00B
:1045E0000803002B3CD07B68DB6D10229A403B69AE
:1045F0009A607B681B681B6803F48023002B18D02B
:104600007B681B681B6803F40023002B08D17B68C0
:104610001B6C002B24D07B681B6C786898471FE0CC
:104620007B689B6C002B1BD07B689B6C78689847E1
:1046300016E07B681B681B6803F48073002B07D1AE
:104640007B681B681A687B681B6822F008021A6086
:104650007B681B6C002B03D07B681B6C78689847C9
:104660007B68DB6D20229A40FB681340002B00F032
:104670008E807B681B681B6803F01003002B00F022
:1046800086807B68DB6D20229A403B699A607B685C
:1046900093F83530DBB2052B36D17B681B681A687E
:1046A0007B681B6822F016021A607B681B685A69D7
:1046B0007B681B6822F080025A617B681B6C002BB0
:1046C00003D17B689B6C002B07D07B681B681A6842
:1046D0007B681B6822F008021A607B68DB6D3F2252
:1046E0009A403B699A607B68002283F834207B689B
:1046F000012283F835207B681B6D002B7DD07B6801
:104700001B6D7868984778E07B681B681B6803F42A
:104710008023002B1CD07B681B681B6803F40023DC
:10472000002B08D17B685B6C002B30D07B685B6C06
:10473000786898472BE07B68DB6B002B27D07B6881
:10474000DB6B7868984722E034000020B5814E1B6F
:104750007B681B681B6803F48073002B0FD17B6898
:104760001B681A687B681B6822F010021A607B685D
:10477000002283F834207B68012283F835207B688F
:10478000DB6B002B03D07B68DB6B786898477B681A
:104790005B6D002B32D07B685B6D03F00103002B57
:1047A00022D07B68052283F835207B681B681A6855
:1047B0007B681B6822F001021A60BB680133BB6092
:1047C0007A699A4207D37B681B681B6803F0010370
:1047D000002BF2D100E000BF7B68002283F8342078
:1047E0007B68012283F835207B68DB6C002B05D0C9
:1047F0007B68DB6C7868984700E000BF1837BD46DF
:1048000080BD00BF80B485B000AFF860B9607A6049
:104810003B60FB681B681A68FB681B6822F48022F7
:104820001A60FB681B683A685A60FB689B68402BFB
:1048300008D1FB681B687A689A60FB681B68BA68D5
:10484000DA6007E0FB681B68BA689A60FB681B685F
:104850007A68DA6000BF1437BD465DF8047B7047A4
:1048600080B485B000AF78607B681B68DBB2103B1A
:10487000144AA2FB03231B09FB60134AFB68134481
:104880001B781A467B68DA65FB68032B09D97B68BD
:104890001B6823F47F7323F003031A1D7B689A655A
:1048A00007E07B681B6823F47F7323F003037A68B7
:1048B00093657B689B6D18461437BD465DF8047B95
:1048C000704700BFABAAAAAA00C6000880B485B092
:1048D00000AF78600023FB737B689B6ABB607B68DA
:1048E0009B69002B1FD1BB68032B55D801A252F83E
:1048F00023F000BF054900081749000805490008D2
:10490000994900087B68DB6A03F08073002B45D06F
:104910000123FB7342E07B68DB6AB3F1C07F3FD1C8
:104920000123FB733CE07B689B69B3F5005F21D1F9
:10493000BB68032B36D801A252F823F04D4900087A
:10494000534900084D490008654900080123FB73DD
:104950002FE07B68DB6A03F08073002B24D00123F7
:10496000FB7321E07B68DB6AB3F1C07F1ED10123BA
:10497000FB731BE0BB68022B02D9032B03D018E0AA
:104980000123FB7315E07B68DB6A03F08073002B67
:104990000ED00123FB730BE000BF0AE000BF08E06C
:1049A00000BF06E000BF04E000BF02E000BF00E07F
:1049B00000BFFB7B18461437BD465DF8047B70478B
:1049C00080B489B000AF7860396000237B61002338
:1049D0003B610023BB610023FB6165E10122FB69B0
:1049E00002FA03F37B613B681B687A6913403B6101
:1049F0003A697B699A4240F054813B685B68012BBD
:104A00000BD03B685B68022B07D03B685B68112BBF
:104A100003D03B685B68122B30D17B689B68BB611D
:104A2000FB695B00032202FA03F3DB43BA6913401C
:104A3000BB613B68DA68FB695B0002FA03F3BA69A1
:104A40001343BB617B68BA699A607B685B68BB6132
:104A50000122FB6902FA03F3DB43BA691340BB612D
:104A60003B685B681B0903F00102FB6902FA03F370
:104A7000BA691343BB617B68BA695A607B68DB68BB
:104A8000BB61FB695B00032202FA03F3DB43BA69F3
:104A90001340BB613B689A68FB695B0002FA03F351
:104AA000BA691343BB617B68BA69DA603B685B68CB
:104AB000022B03D03B685B68122B23D1FB69DA0819
:104AC0007B68083253F82230BB61FB6903F00703AF
:104AD0009B000F2202FA03F3DB43BA691340BB6168
:104AE0003B681A69FB6903F007039B0002FA03F3B2
:104AF000BA691343BB61FB69DA087B680832B9699C
:104B000043F822107B681B68BB61FB695B000322D2
:104B100002FA03F3DB43BA691340BB613B685B688D
:104B200003F00302FB695B0002FA03F3BA69134363
:104B3000BB617B68BA691A603B685B6803F08053AD
:104B4000002B00F0AE800023FB605C4B5B6C5B4A8B
:104B500043F480435364594B5B6C03F48043FB6024
:104B6000FB68574AFB699B08023352F82330BB614C
:104B7000FB6903F003039B000F2202FA03F3DB43FC
:104B8000BA691340BB617B684E4A934225D07B686B
:104B90004D4A93421FD07B684C4A934219D07B68A0
:104BA0004B4A934213D07B684A4A93420DD07B68AC
:104BB000494A934207D07B68484A934201D1062371
:104BC0000CE007230AE0052308E0042306E00323A2
:104BD00004E0022302E0012300E00023FA6902F06E
:104BE000030292009340BA691343BB613449FB69E5
:104BF0009B080233BA6941F82320394B1B68BB611B
:104C00003B69DB43BA691340BB613B685B6803F4F3
:104C10008033002B03D0BA693B691343BB61304A30
:104C2000BB6913602E4B5B68BB613B69DB43BA69B0
:104C30001340BB613B685B6803F40033002B03D077
:104C4000BA693B691343BB61254ABB695360244B76
:104C50009B68BB613B69DB43BA691340BB613B683E
:104C60005B6803F48013002B03D0BA693B691343DC
:104C7000BB611B4ABB699360194BDB68BB613B6935
:104C8000DB43BA691340BB613B685B6803F4001304
:104C9000002B03D0BA693B691343BB61104ABB695F
:104CA000D360FB690133FB61FB690F2B7FF696AE86
:104CB00000BF2437BD465DF8047B704700380240D2
:104CC0000038014000000240000402400008024099
:104CD000000C024000100240001402400018024084
:104CE000003C014080B483B000AF78600B467B800D
:104CF00013467B707B78002B03D07A887B689A619F
:104D000003E07B881A047B689A6100BF0C37BD46BC
:104D10005DF8047B704780B483B000AF78600B46C9
:104D20007B807B685A697B881A407B889A4204D1D1
:104D30007B881A047B689A6102E07A887B689A61B2
:104D400000BF0C37BD465DF8047B704780B584B06A
:104D500000AF786039607B68002B01D10123CCE083
:104D6000684B1B6803F00F033A689A420CD9654BF5
:104D70003A68D2B21A70634B1B6803F00F033A68AB
:104D80009A4201D00123B8E07B681B6803F002035C
:104D9000002B20D07B681B6803F00403002B05D098
:104DA000594B9B68584A43F4E05393607B681B68F7
:104DB00003F00803002B05D0534B9B68524A43F481
:104DC00060439360504B9B6823F0F0027B689B68C4
:104DD0004D4913438B607B681B6803F00103002B74
:104DE00044D07B685B68012B07D1474B1B6803F4F9
:104DF0000033002B19D101237FE07B685B68022B15
:104E000003D07B685B68032B07D13F4B1B6803F023
:104E10000073002B09D101236FE03B4B1B6803F0AB
:104E20000203002B01D1012367E0374B9B6823F07D
:104E300003027B685B68344913438B60FEF7A4FC74
:104E4000F8600AE0FEF7A0FC0246FB68D31A41F2C4
:104E50008832934201D903234FE02B4B9B6803F028
:104E60000C027B685B689B009A42EBD1254B1B6868
:104E700003F00F033A689A420CD2224B3A68D2B23E
:104E80001A70204B1B6803F00F033A689A4201D056
:104E9000012332E07B681B6803F00403002B08D079
:104EA000194B9B6823F4E0527B68DB681649134377
:104EB0008B607B681B6803F00803002B09D0124B42
:104EC0009B6823F460427B681B69DB000E49134337
:104ED0008B6000F021F801460B4B9B681B0903F027
:104EE0000F030A4AD35C21FA03F3094A1360094B02
:104EF0001B681846FEF704FC002318461037BD4611
:104F000080BD00BF003C024000380240E8C50008F8
:104F10003400002038000020F0B585B000AF002339
:104F20007B600023FB6000233B600023BB60504B91
:104F30009B6803F00C03042B07D0082B08D0002B30
:104F400040F08D804B4BBB608CE04B4BBB6089E0ED
:104F5000474B5B6803F03F037B60454B5B6803F4A2
:104F60008003002B23D0424B5B689B094FF0000469
:104F700040F2FF114FF0000203EA010504EA0206C5
:104F80003D4A02FB06F1002202FB05F20A443A49BF
:104F9000A5FB0101531819467B684FF000041A461F
:104FA0002346FBF7A7FF03460C46FB6049E0304B66
:104FB0005B689B094FF0000440F2FF114FF00002C4
:104FC00003EA010504EA0206294632464FF00003CF
:104FD0004FF00004540144EAD1644B0119462246C3
:104FE000491B62EB06024FF000034FF000049401EE
:104FF00044EA91648B015B1A64EB02044FF00001F8
:105000004FF00002E20042EA5372D9000B46144608
:105010005B1944EB06044FF000014FF00002A202BE
:1050200042EA935299020B461446184621467B6881
:105030004FF000041A462346FBF75CFF03460C467C
:10504000FB600B4B5B681B0C03F0030301335B003D
:105050003B60FA683B68B2FBF3F3BB6002E0054BD0
:10506000BB6000BFBB6818461437BD46F0BD00BF2B
:10507000003802400024F40040787D0180B400AF85
:10508000034B1B681846BD465DF8047B704700BFA4
:105090003400002080B500AFFFF7F0FF0146054B5C
:1050A0009B689B0A03F00703034AD35C21FA03F3CE
:1050B000184680BD00380240F8C5000880B500AF32
:1050C000FFF7DCFF0146054B9B685B0B03F0070312
:1050D000034AD35C21FA03F3184680BD003802402E
:1050E000F8C5000880B586B000AF786000233B614A
:1050F0007B681B6803F00103002B75D0A24B9B68F3
:1051000003F00C03042B0CD09F4B9B6803F00C03A3
:10511000082B12D19C4B5B6803F48003B3F5800F1E
:105120000BD1994B1B6803F40033002B5BD07B68D9
:105130005B68002B57D101230BE27B685B68B3F5FA
:10514000803F06D1904B1B688F4A43F48033136035
:105150001DE07B685B68B3F5A02F0CD18A4B1B6800
:10516000894A43F480231360874B1B68864A43F4C3
:10517000803313600BE0844B1B68834A23F4803335
:105180001360814B1B68804A23F4802313607B6883
:105190005B68002B13D0FEF7F7FA386108E0FEF7E2
:1051A000F3FA02463B69D31A642B01D90323D0E1F9
:1051B000754B1B6803F40033002BF0D014E0FEF7AE
:1051C000E3FA386108E0FEF7DFFA02463B69D31ADA
:1051D000642B01D90323BCE16B4B1B6803F4003340
:1051E000002BF0D100E000BF7B681B6803F00203D6
:1051F000002B63D0644B9B6803F00C03002B0BD097
:10520000614B9B6803F00C03082B1CD15E4B5B6861
:1052100003F48003002B16D15B4B1B6803F00203E1
:10522000002B05D07B68DB68012B01D0012390E1C6
:10523000554B1B6823F0F8027B681B69DB00524961
:1052400013430B603AE07B68DB68002B20D04F4BA8
:1052500001221A60FEF798FA386108E0FEF794FA26
:1052600002463B69D31A022B01D9032371E1464B55
:105270001B6803F00203002BF0D0434B1B6823F0A4
:10528000F8027B681B69DB003F4913430B6015E0A4
:105290003E4B00221A60FEF777FA386108E0FEF70D
:1052A00073FA02463B69D31A022B01D9032350E15A
:1052B000354B1B6803F00203002BF0D17B681B68A1
:1052C00003F00803002B30D07B685B69002B16D0FD
:1052D0002F4B01221A60FEF757FA386108E0FEF7FB
:1052E00053FA02463B69D31A022B01D9032330E15A
:1052F000254B5B6F03F00203002BF0D015E0244B2D
:1053000000221A60FEF740FA386108E0FEF73CFA26
:1053100002463B69D31A022B01D9032319E11A4B28
:105320005B6F03F00203002BF0D17B681B6803F076
:105330000403002B00F09F800023FB75124B1B6CB5
:1053400003F08053002B0FD10023FB600E4B1B6C2E
:105350000D4A43F0805313640B4B1B6C03F08053D6
:10536000FB60FB680123FB750A4B1B6803F4807329
:10537000002B20D1074B1B68064A43F4807313604F
:10538000FEF702FA386110E00038024000004742A0
:10539000800E474200700040FEF7F6F902463B6976
:1053A000D31A022B01D90323D3E06C4B1B6803F4FF
:1053B0008073002BF0D07B689B68012B06D1684B73
:1053C0001B6F674A43F0010313671CE07B689B680F
:1053D000052B0CD1624B1B6F614A43F0040313672A
:1053E0005F4B1B6F5E4A43F0010313670BE05C4B9E
:1053F0001B6F5B4A23F001031367594B1B6F584A1D
:1054000023F0040313677B689B68002B15D0FEF71D
:10541000BBF938610AE0FEF7B7F902463B69D31AD7
:1054200041F28832934201D9032392E04C4B1B6F27
:1054300003F00203002BEED014E0FEF7A5F938616B
:105440000AE0FEF7A1F902463B69D31A41F288321D
:10545000934201D903237CE0414B1B6F03F002030D
:10546000002BEED1FB7D012B05D13D4B1B6C3C4A43
:1054700023F0805313647B689B69002B68D0384B02
:105480009B6803F00C03082B60D07B689B69022BA0
:1054900045D1344B00221A60FEF776F9386108E0F6
:1054A000FEF772F902463B69D31A022B01D9032396
:1054B0004FE02B4B1B6803F00073002BF0D17B688F
:1054C000DA697B681B6A1A437B685B6A9B011A4333
:1054D0007B689B6A5B08013B1B041A437B68DB6AA1
:1054E0001B061A437B681B6B1B071D4913434B604C
:1054F0001C4B01221A60FEF747F9386108E0FEF7FD
:1055000043F902463B69D31A022B01D9032320E059
:10551000134B1B6803F00073002BF0D018E0114B05
:1055200000221A60FEF730F9386108E0FEF72CF926
:1055300002463B69D31A022B01D9032309E0084B29
:105540001B6803F00073002BF0D101E0012300E0A1
:10555000002318461837BD4680BD00BF00700040CC
:10556000003802406000474280B582B000AF7860EA
:105570007B68002B01D1012356E07B6800229A62F0
:105580007B6893F85130DBB2002B06D17B68002298
:1055900083F850207868FDF795F97B68022283F83C
:1055A00051207B681B681A687B681B6822F04002E8
:1055B0001A607B685A687B689B681A437B68DB6863
:1055C0001A437B681B691A437B685B691A437B68D3
:1055D0009B6903F400731A437B68DB691A437B6899
:1055E0001B6A42EA03017B689A6A7B681B680A436C
:1055F0001A607B689B691B0C03F004017B685A6A84
:105600007B681B680A435A607B681B68DA697B68A1
:105610001B6822F40062DA617B6800225A657B68AD
:10562000012283F85120002318460837BD4680BD6B
:1056300080B588B000AFF860B9603B601346FB806E
:105640000023FB77FB6893F85030012B01D1022334
:105650001EE1FB68012283F85020FEF795F8B8613F
:10566000FB88FB82FB6893F85130DBB2012B02D040
:105670000223FB7703E1BB68002B02D0FB88002BE1
:1056800002D10123FB77FAE0FB68032283F8512063
:10569000FB6800225A65FB68BA681A63FB68FA88DF
:1056A0009A86FB68FA88DA86FB6800229A63FB68B0
:1056B00000229A87FB680022DA87FB6800225A647E
:1056C000FB6800221A64FB689B68B3F5004F07D1A2
:1056D000FB681B681A68FB681B6842F480421A600A
:1056E000FB681B681B6803F04003402B07D0FB6876
:1056F0001B681A68FB681B6842F040021A60FB686E
:10570000DB68B3F5006F4BD1FB685B68002B02D000
:10571000FB8A012B3ED1FB681B6B1A88FB681B6858
:10572000DA60FB681B6B9A1CFB681A63FB68DB8EF4
:105730009BB2013B9AB2FB68DA862BE0FB681B68E0
:105740009B6803F00203022B12D1FB681B6B1A88C3
:10575000FB681B68DA60FB681B6B9A1CFB681A63AA
:10576000FB68DB8E9BB2013B9AB2FB68DA8611E0E4
:10577000FEF70AF80246BB69D31A3A689A4203D880
:105780003B68B3F1FF3F02D13B68002B02D10323FA
:10579000FB7774E0FB68DB8E9BB2002BCED14CE034
:1057A000FB685B68002B02D0FB8A012B40D1FB68B1
:1057B0001A6BFB681B680C3312781A70FB681B6B42
:1057C0005A1CFB681A63FB68DB8E9BB2013B9AB2E2
:1057D000FB68DA862CE0FB681B689B6803F0020319
:1057E000022B13D1FB681A6BFB681B680C33127811
:1057F0001A70FB681B6B5A1CFB681A63FB68DB8E14
:105800009BB2013B9AB2FB68DA8611E0FDF7BCFF60
:105810000246BB69D31A3A689A4203D83B68B3F18F
:10582000FF3F02D13B68002B02D10323FB7726E028
:10583000FB68DB8E9BB2002BCDD1BA693968F86862
:1058400000F0FCFA0346002B02D0FB6820225A65C8
:10585000FB689B68002B0AD100233B61FB681B6837
:10586000DB683B61FB681B689B683B613B69FB68CD
:105870005B6D002B02D00123FB7700E000BFFB68CB
:10588000012283F85120FB68002283F85020FB7F1F
:1058900018462037BD4680BD80B586B000AFF860A1
:1058A000B9607A607B800023FB75FB6893F8503009
:1058B000012B01D10223E3E0FB68012283F8502091
:1058C000FB6893F85130BB75FB685B683B61BB7D3F
:1058D000012B0DD03B69B3F5827F06D1FB689B6835
:1058E000002B02D1BB7D042B02D00223FB75C2E04A
:1058F000BB68002B05D07B68002B02D07B88002B77
:1059000002D10123FB75B6E0FB6893F85130DBB29E
:10591000042B03D0FB68052283F85120FB6800228A
:105920005A65FB68BA681A63FB687A889A86FB68CE
:105930007A88DA86FB687A689A63FB687A889A873D
:10594000FB687A88DA87FB6800221A64FB68002209
:105950005A64FB6893F85130DBB2042B08D1FB6822
:10596000DB6C494A1A64FB68DB6C484ADA6307E07F
:10597000FB68DB6C464A1A64FB68DB6C454ADA63F9
:10598000FB68DB6C444ADA64FB68DB6C00221A6556
:10599000FB68D86CFB681B680C331946FB689B6B73
:1059A0001A46FB68DB8F9BB2FEF7B8FC0346002B60
:1059B0000CD0FB685B6D43F01002FB685A65012355
:1059C000FB75FB68012283F8512054E0FB681B68DB
:1059D0005A68FB681B6842F001025A60FB689B6CC6
:1059E00000221A64FB689B6C0022DA63FB689B6CE4
:1059F0000022DA64FB689B6C00221A65FB68986CD5
:105A0000FB681B6B1946FB681B680C331A46FB6866
:105A1000DB8E9BB2FEF782FC0346002B0CD0FB68AA
:105A20005B6D43F01002FB685A650123FB75FB6850
:105A3000012283F851201EE0FB681B681B6803F0FD
:105A40004003402B07D0FB681B681A68FB681B6883
:105A500042F040021A60FB681B685A68FB681B68CA
:105A600042F020025A60FB681B685A68FB681B689A
:105A700042F002025A60FB68002283F85020FB7D4E
:105A800018461837BD4680BD255C0008ED5A000851
:105A9000415C0008955B00085D5C000880B483B041
:105AA00000AF786000BF0C37BD465DF8047B7047DF
:105AB00080B483B000AF786000BF0C37BD465DF89E
:105AC000047B704780B483B000AF786000BF0C37B0
:105AD000BD465DF8047B704780B483B000AF78604A
