:020000040800F2
:1000000000000220C9A40008E1980008E798000851
:10001000ED980008F3980008F99800080000000027
:10002000000000000000000000000000FF98000831
:100030000D990008000000001B990008299900088C
:1000400019A5000819A5000819A5000819A5000898
:1000500019A5000819A5000819A5000819A5000888
:1000600019A5000819A5000819A5000819A5000878
:1000700019A5000819A50008359900084999000834
:1000800019A5000819A5000819A50008000000001E
:1000900000000000000000000000000019A500089A
:1000A00019A5000819A5000819A5000819A5000838
:1000B00019A5000819A5000819A5000819A5000828
:1000C00019A5000819A5000819A5000819A5000818
:1000D00019A5000819A5000819A5000800000000CE
:1000E00019A5000819A5000819A5000800000000BE
:1000F00000000000000000000000000019A500083A
:100100000000000019A5000819A5000819A500089D
:1001100000000000000000000000000000000000DF
:100120005D990008719900088599000819A50008D3
:1001300019A50008000000000000000000000000F9
:1001400000000000000000000000000019A50008E9
:100150009999000819A50008AD99000819A500088B
:1001600019A5000819A50008000000000000000003
:10017000000000000000000000000000000000007F
:100180000000000019A500080000000000000000A9
:0801900019A5000819A50008DB
:1080000010B5054C237833B9044B13B10448AFF3D2
:1080100000800123237010BDD80100200000000063
:108020004862010808B5034B1BB103490348AFF38D
:10803000008008BD00000000DC010020486201084B
:1080400001F0FF01102A2BDB10F0070F08D010F809
:10805000013B013A8B422DD010F0070F42B3F6D10D
:10806000F0B441EA012141EA014122F007047FF026
:1080700000070023F0E80256083C85EA010586EA7D
:10808000010685FA47F5A3FA87F586FA47F6A5FAB9
:1080900087F68EB9EED1F0BC01F0FF0102F00702C5
:1080A00032B110F8013B013A83EA010313B1F8D170
:1080B0000020704701387047002D06BF3546033851
:1080C000073815F0010F07D1013015F4807F02BF8A
:1080D000013015F4C03F0130F0BC0138704700BFDB
:1080E000034613F8012B002AFBD1181A01387047F8
:1080F00081F0004102E000BF83F0004330B54FEA59
:1081000041044FEA430594EA050F08BF90EA020FC5
:108110001FBF54EA000C55EA020C7FEA645C7FEA58
:10812000655C00F0E2804FEA5454D4EB5555B8BF7B
:108130006D420CDD2C4480EA020281EA030382EAEC
:10814000000083EA010180EA020281EA0303362D7E
:1081500088BF30BD11F0004F4FEA01314FF4801C51
:108160004CEA113102D0404261EB410113F0004F63
:108170004FEA03334CEA133302D0524263EB43031A
:1081800094EA050F00F0A780A4F10104D5F1200EB8
:108190000DDB02FA0EFC22FA05F2801841F1000113
:1081A00003FA0EF2801843FA05F359410EE0A5F1E7
:1081B00020050EF1200E012A03FA0EFC28BF4CF018
:1081C000020C43FA05F3C01851EBE37101F00045CE
:1081D00007D54FF0000EDCF1000C7EEB00006EEBDB
:1081E0000101B1F5801F1BD3B1F5001F0CD3490865
:1081F0005FEA30004FEA3C0C04F101044FEA4452BC
:1082000012F5800F80F09A80BCF1004F08BF5FEA42
:10821000500C50F1000041EB045141EA050130BD22
:108220005FEA4C0C404141EB0101013C28BFB1F534
:10823000801FE9D291F0000F04BF01460020B1FA7F
:1082400081F308BF2033A3F10B03B3F120020CDA52
:108250000C3208DD02F1140CC2F10C0201FA0CF030
:1082600021FA02F10CE002F11402D8BFC2F1200C95
:1082700001FA02F120FA0CFCDCBF41EA0C0190404B
:10828000E41AA2BF01EB0451294330BD6FEA040494
:108290001F3C1CDA0C340EDC04F11404C4F120027F
:1082A00020FA04F001FA02F340EA030021FA04F391
:1082B00045EA030130BDC4F10C04C4F1200220FAE8
:1082C00002F001FA04F340EA0300294630BD21FA26
:1082D00004F0294630BD94F0000F83F4801306BFEC
:1082E00081F480110134013D4EE77FEA645C18BFE0
:1082F0007FEA655C29D094EA050F08BF90EA020F77
:1083000005D054EA000C04BF1946104630BD91EA6E
:10831000030F1EBF0021002030BD5FEA545C05D171
:108320004000494128BF41F0004130BD14F58004B0
:108330003CBF01F5801130BD01F0004545F0FE4124
:1083400041F470014FF0000030BD7FEA645C1ABF59
:10835000194610467FEA655C1CBF0B46024650EA90
:10836000013406BF52EA033591EA030F41F40021BC
:1083700030BD00BF90F0000F04BF0021704730B542
:108380004FF4806404F132044FF000054FF0000117
:1083900050E700BF90F0000F04BF0021704730B5D8
:1083A0004FF4806404F1320410F0004548BF4042AD
:1083B0004FF000013EE700BF42004FEAE2014FEA02
:1083C00031014FEA02701FBF12F07F4393F07F4FDD
:1083D00081F06051704732F07F4208BF704793F0E0
:1083E0007F4F04BF41F40021704730B54FF46074F3
:1083F00001F0004521F000411CE700BF50EA0102F6
:1084000008BF704730B54FF000050AE050EA01029E
:1084100008BF704730B511F0004502D5404261EB0E
:1084200041014FF4806404F132045FEA915C3FF44F
:10843000D8AE4FF003025FEADC0C18BF03325FEAEC
:10844000DC0C18BF033202EBDC02C2F1200300FA9D
:1084500003FC20FA02F001FA03FE40EA0E0021FAC2
:1084600002F11444BDE600BF70B54FF0FF0C4CF4B0
:10847000E06C1CEA11541DBF1CEA135594EA0C0F62
:1084800095EA0C0F00F0DEF82C4481EA030621EA9D
:108490004C5123EA4C5350EA013518BF52EA0335D8
:1084A00041F4801143F4801338D0A0FB02CE4FF08A
:1084B0000005E1FB02E506F00042E0FB03E54FF0BA
:1084C0000006E1FB03569CF0000F18BF4EF0010EB2
:1084D000A4F1FF04B6F5007F64F5407404D25FEAAE
:1084E0004E0E6D4146EB060642EAC62141EA555161
:1084F0004FEAC52040EA5E504FEACE2EB4F1FD0CA3
:1085000088BFBCF5E06F1ED8BEF1004F08BF5FEA20
:10851000500E50F1000041EB045170BD06F00046D2
:1085200046EA010140EA020081EA0301B4EB5C047F
:10853000C2BFD4EB0C0541EA045170BD41F4801177
:108540004FF0000E013C00F3AB8014F1360FDEBF9C
:10855000002001F0004170BDC4F10004203C35DA78
:108560000C341BDC04F11404C4F1200500FA05F3FB
:1085700020FA04F001FA05F240EA020001F000429C
:1085800021F0004110EBD37021FA04F642EB060112
:108590005EEA430E08BF20EAD37070BDC4F10C043C
:1085A000C4F1200500FA04F320FA05F001FA04F200
:1085B00040EA020001F0004110EBD37041F10001EC
:1085C0005EEA430E08BF20EAD37070BDC4F12005F7
:1085D00000FA05F24EEA020E20FA04F301FA05F25F
:1085E00043EA020321FA04F001F0004121FA04F207
:1085F00020EA020000EBD3705EEA430E08BF20EAD7
:10860000D37070BD94F0000F0FD101F00046400010
:1086100041EB010111F4801F08BF013CF7D041EA92
:10862000060195F0000F18BF704703F00046520096
:1086300043EB030313F4801F08BF013DF7D043EA67
:108640000603704794EA0C0F0CEA135518BF95EA1D
:108650000C0F0CD050EA410618BF52EA4306D1D1A4
:1086600081EA030101F000414FF0000070BD50EAC3
:10867000410606BF1046194652EA430619D094EA4D
:108680000C0F02D150EA013613D195EA0C0F05D137
:1086900052EA03361CBF104619460AD181EA03018B
:1086A00001F0004141F0FE4141F470014FF0000043
:1086B00070BD41F0FE4141F4780170BD70B54FF0DE
:1086C000FF0C4CF4E06C1CEA11541DBF1CEA13555E
:1086D00094EA0C0F95EA0C0F00F0A7F8A4EB050440
:1086E00081EA030E52EA03354FEA013100F0888037
:1086F0004FEA03334FF0805545EA131343EA126300
:108700004FEA022245EA111545EA10654FEA0026B4
:108710000EF000419D4208BF964244F1FD0404F56D
:10872000407402D25B084FEA3202B61A65EB0305C9
:108730005B084FEA32024FF480104FF4002CB6EB86
:10874000020E75EB030E22BFB61A754640EA0C0006
:108750005B084FEA3202B6EB020E75EB030E22BF46
:10876000B61A754640EA5C005B084FEA3202B6EB87
:10877000020E75EB030E22BFB61A754640EA9C0046
:108780005B084FEA3202B6EB020E75EB030E22BF16
:10879000B61A754640EADC0055EA060E18D04FEAD4
:1087A000051545EA16754FEA06164FEAC30343EA74
:1087B00052734FEAC2025FEA1C1CC0D111F4801F41
:1087C0000BD141EA00014FF000004FF0004CB6E73A
:1087D00011F4801F04BF01430020B4F1FD0C88BFD9
:1087E000BCF5E06F3FF6AFAEB5EB030C04BFB6EBE4
:1087F000020C5FEA500C50F1000041EB045170BDD7
:108800000EF0004E4EEA113114EB5C04C2BFD4EB03
:108810000C0541EA045170BD41F480114FF0000E87
:10882000013C90E645EA060E8DE60CEA135594EA03
:108830000C0F08BF95EA0C0F3FF43BAF94EA0C0F06
:108840000AD150EA01347FF434AF95EA0C0F7FF47B
:1088500025AF104619462CE795EA0C0F06D152EACF
:1088600003353FF4FDAE1046194622E750EA4106B3
:1088700018BF52EA43067FF4C5AE50EA41047FF4C4
:108880000DAF52EA43057FF4EBAE12E74FF0FF3C29
:1088900006E000BF4FF0010C02E000BF4FF0010CFA
:1088A0004DF804CD4FEA410C7FEA6C5C4FEA430C73
:1088B00018BF7FEA6C5C1BD001B050EA410C0CBFC2
:1088C00052EA430C91EA030F02BF90EA020F002024
:1088D000704710F1000F91EA030F58BF994208BF8B
:1088E00090422CBFD8176FEAE37040F00100704748
:1088F0004FEA410C7FEA6C5C02D150EA013C07D19F
:108900004FEA430C7FEA6C5CD6D152EA033CD3D0E9
:108910005DF8040B704700BF8446104662468C46E3
:108920001946634600E000BF01B5FFF7B7FF002816
:1089300048BF10F1000F01BD4DF808EDFFF7F4FF3F
:108940000CBF012000205DF808FB00BF4DF808EDCA
:10895000FFF7EAFF34BF012000205DF808FB00BFED
:108960004DF808EDFFF7E0FF94BF012000205DF80F
:1089700008FB00BF4DF808EDFFF7CEFF94BF0120C4
:1089800000205DF808FB00BF4DF808EDFFF7C4FFBD
:1089900034BF012000205DF808FB00BF4FEA410C06
:1089A0007FEA6C5C02D150EA013C0AD14FEA430CE9
:1089B0007FEA6C5C02D152EA033C02D14FF0000026
:1089C00070474FF0010070474FEA410212F5001264
:1089D00015D211D56FF47873B3EB625212D94FEA06
:1089E000C12343F0004343EA505311F0004F23FAF0
:1089F00002F018BF404270474FF00000704750EA45
:108A0000013005D111F0004008BF6FF00040704701
:108A10004FF00000704700BF4A0011D212F500125B
:108A200011D20DD56FF47873B3EB62520ED44FEAC6
:108A3000C12343F0004343EA505323FA02F0704746
:108A40004FF00000704750EA013002D14FF0FF3084
:108A500070474FF0000070474FEA4102B2F1E04327
:108A600024BFB3F5001CDCF1FE5C0DD901F0004C15
:108A70004FEAC0024CEA5070B2F1004F40EB830065
:108A800008BF20F00100704711F0804F21D113F191
:108A90003872BCBF01F00040704741F480114FEACA
:108AA0005252C2F11802C2F1200C10FA0CF320FA53
:108AB00002F018BF40F001004FEAC1234FEAD32370
:108AC00003FA0CFC40EA0C0023FA02F34FEA4303DA
:108AD000CCE77FEA625307D150EA01331EBF4FF063
:108AE000FE4040F44000704701F0004040F0FE407E
:108AF00040F40000704700BF80F0004002E000BF7B
:108B000081F0004142001FBF5FEA410392EA030F78
:108B10007FEA226C7FEA236C6AD04FEA1262D2EBC2
:108B20001363C1BFD218414048404140B8BF5B42C7
:108B3000192B88BF704710F0004F40F4000020F060
:108B40007F4018BF404211F0004F41F4000121F076
:108B50007F4118BF494292EA030F3FD0A2F10102C0
:108B600041FA03FC10EB0C00C3F1200301FA03F1FE
:108B700000F0004302D5494260EB4000B0F5000F21
:108B800013D3B0F1807F06D340084FEA310102F1E0
:108B90000102FE2A51D2B1F1004F40EBC25008BF92
:108BA00020F0010040EA03007047490040EB00005C
:108BB000013A28BFB0F5000FEDD2B0FA80FCACF15D
:108BC000080CB2EB0C0200FA0CF0AABF00EBC2508A
:108BD00052421843BCBFD0401843704792F0000F78
:108BE00081F4000106BF80F400000132013BB5E7CB
:108BF0004FEA41037FEA226C18BF7FEA236C21D041
:108C000092EA030F04D092F0000F08BF08467047A5
:108C100090EA010F1CBF0020704712F07F4F04D173
:108C2000400028BF40F00040704712F100723CBF86
:108C300000F50000704700F0004343F0FE4040F4B0
:108C4000000070477FEA226216BF08467FEA23636E
:108C50000146420206BF5FEA412390EA010F40F459
:108C6000800070474FF0000304E000BF10F00043A5
:108C700048BF40425FEA000C08BF704743F096438C
:108C800001464FF000001CE050EA010208BF7047A7
:108C90004FF000030AE000BF50EA010208BF70472E
:108CA00011F0004302D5404261EB41015FEA010C43
:108CB00002BF84460146002043F0B64308BFA3F13B
:108CC0008053A3F50003BCFA8CF2083AA3EBC2531D
:108CD00010DB01FA02FC634400FA02FCC2F120023C
:108CE000BCF1004F20FA02F243EB020008BF20F073
:108CF0000100704702F1200201FA02FCC2F12002D9
:108D000050EA4C0021FA02F243EB020008BF20EACD
:108D1000DC70704753B94AB9002908BF00281CBF4E
:108D20004FF0FF314FF0FF3000F0A6B9ADF1080C65
:108D30006DE904CE00F03CF8DDF804E0DDE9022343
:108D400004B0704738B50022002304460D46FFF7F3
:108D5000FDFD28B920462946BDE8384000F00AB894
:108D6000204605F1004100F005F8404261EB410169
:108D700038BD00BFD0B50C4B002206460F46FFF7AA
:108D800073FBFFF749FE0446FFF7F4FA074B002296
:108D9000FFF76AFB02460B4630463946FFF7ACF94F
:108DA000FFF73AFE2146D0BD0000F03D0000F04143
:108DB0002DE9F047089E0D4604460F46002B4AD188
:108DC0008A42944665D9B2FA82F343B102FA03FCAF
:108DD000C3F120029F4020FA02F217439C404FEA61
:108DE0001C4E1FFA8CF5B7FBFEF1220C0EFB11771F
:108DF00042EA074201FB05F090420AD91CEB02024D
:108E000001F1FF3780F01C81904240F21981023954
:108E10006244121AA4B2B2FBFEF00EFB102244EA26
:108E2000024400FB05F5A5420AD91CEB040400F13D
:108E3000FF3280F00781A54240F204816444023889
:108E400040EA0140641B00211EB1DC400023C6E95A
:108E50000043BDE8F0878B4208D9002E00F0ED807A
:108E60000021C6E900050846BDE8F087B3FA83F1A2
:108E7000002949D1AB4202D3824200F2F880841A21
:108E800065EB030201201746002EE2D0C6E9004739
:108E9000DFE702B9FFDEB2FA82F3002B40F09080E8
:108EA0008A1A4FEA1C471FFA8CFE0121B2FBF7F524
:108EB00007FB1520220C42EA00420EFB05F090420F
:108EC00008D91CEB020205F1FF3802D2904200F2F1
:108ED000CB804546121AA4B2B2FBF7F007FB102272
:108EE00044EA02440EFB00FEA64508D91CEB04042C
:108EF00000F1FF3202D2A64500F2BB801046A4EB7F
:108F00000E0440EA05409FE7C1F120078B4022FA9A
:108F100007FC4CEA030C05FA01F420FA07F3FD40C4
:108F20004FEA1C492343B5FBF9F81FFA8CFE09FBF5
:108F300018551C0C44EA054408FB0EF5A54202FA3C
:108F400001F200FA01F00BD91CEB040408F1FF3A1E
:108F500080F08880A54240F28580A8F10208644430
:108F6000641B9DB2B4FBF9F309FB134445EA0444C6
:108F700003FB0EFEA64508D91CEB040403F1FF35E4
:108F80006CD2A6456AD9023B644443EA0843A3FB7A
:108F90000295A4EB0E04AC42C846AE4656D353D05D
:108FA00056B1B0EB080264EB0E0404FA07F7CA40AE
:108FB000CC401743C6E9007418460021BDE8F0878D
:108FC000C3F1200102FA03FC20FA01F225FA01F1B3
:108FD0009D402A434FEA1C471FFA8CFEB1FBF7F075
:108FE00007FB1015110C41EA054100FB0EF58D42FF
:108FF00004FA03F408D91CEB010100F1FF382FD269
:109000008D422DD902386144491B92B2B1FBF7F56C
:1090100007FB151142EA014205FB0EF1914208D906
:109020001CEB020205F1FF3816D2914214D9023D21
:109030006244521A45EA004138E73146304608E7B3
:109040003946E6E61046FBE64845A9D2B9EB0208E8
:1090500065EB0C0E013BA3E74546EAE72B4694E798
:109060004046D1E7D0467BE7023D624432E70846FE
:109070000AE76444023842E7704700BF80B584B015
:1090800000AF3B4600221A605A609A60DA606B4B70
:109090006B4A1A60694B4FF480325A60674B00226A
:1090A0009A60664B01221A61644B00221A76634B68
:1090B000012283F82020614B01225A625F4B4FF05E
:1090C0008052DA625D4B4FF000729A625B4B002275
:1090D000DA605A4B0C22DA61584B012283F83020B7
:1090E000564B00225A61554801F0AEFA0346002B58
:1090F00001D000F0E5FA08233B6001237B600523E3
:10910000BB603B4619464D4801F0E6FB0346002B89
:1091100001D000F0D5FA02237B603B461946474850
:1091200001F0DAFB0346002B01D000F0C9FA04235A
:109130003B6003237B603B461946404801F0CCFB73
:109140000346002B01D000F0BBFA04237B603B46B2
:1091500019463A4801F0C0FB0346002B01D000F04D
:10916000AFFA07233B6005237B603B461946334833
:1091700001F0B2FB0346002B01D000F0A1FA062358
:109180007B603B4619462D4801F0A6FB0346002BA9
:1091900001D000F095FA05233B6007237B603B4636
:1091A0001946264801F098FB0346002B01D000F039
:1091B00087FA08237B603B461946204801F08CFB68
:1091C0000346002B01D000F07BFA06233B60092305
:1091D0007B603B461946194801F07EFB0346002B95
:1091E00001D000F06DFA0A237B603B461946134814
:1091F00001F072FB0346002B01D000F061FA082356
:109200003B600B237B603B4619460C4801F064FB36
:109210000346002B01D000F053FA0C237B603B4641
:109220001946064801F058FB0346002B01D000F018
:1092300047FA00BF1037BD4680BD00BFF4010020D3
:109240000020014080B58AB000AF786007F11403B8
:1092500000221A605A609A60DA601A617B681B68A3
:109260003C4A934272D100233B613B4B5B6C3A4AD0
:1092700043F480735364384B5B6C03F480733B613D
:109280003B690023FB60344B1B6B334A43F0010303
:109290001363314B1B6B03F00103FB60FB6800237E
:1092A000BB602D4B1B6B2C4A43F0020313632A4B0C
:1092B0001B6B03F00203BB60BB68F0237B610323DD
:1092C000BB610023FB6107F114031946234802F038
:1092D000B1FA01237B610323BB610023FB6107F12A
:1092E000140319461E4802F0A5FA1E4B1E4A1A60C6
:1092F0001C4B00225A601B4B00229A60194B002223
:10930000DA60184B4FF480621A61164B4FF400621A
:109310005A61144B4FF400529A61124B4FF4807211
:10932000DA61104B4FF480321A620E4B00225A62FF
:109330000C4801F093FE0346002B01D000F0C0F969
:109340007B68084A9A63074A7B68936300BF2837A3
:10935000BD4680BD002001400038024000000240B0
:10936000000402403C0200201064024080B582B03C
:1093700000AF00237B602B4B1B6B2A4A43F4800316
:109380001363284B1B6B03F480037B607B68002313
:109390003B60244B1B6B234A43F400131363214BA4
:1093A0001B6B03F400133B603B68002201210E207D
:1093B00001F01DFE0E2001F036FE002201210F20DB
:1093C00001F015FE0F2001F02EFE002202213820B0
:1093D00001F00DFE382001F026FE00220121392087
:1093E00001F005FE392001F01EFE002201213A2085
:1093F00001F0FDFD3A2001F016FE0022022144207A
:1094000001F0F5FD442001F00EFE0022022146206D
:1094100001F0EDFD462001F006FE00BF0837BD4615
:1094200080BD00BF0038024080B58AB000AF07F1B0
:10943000140300221A605A609A60DA601A610023ED
:109440003B614B4B1B6B4A4A43F004031363484B8D
:109450001B6B03F004033B613B690023FB60444B3F
:109460001B6B434A43F080031363414B1B6B03F0B8
:109470008003FB60FB680023BB603D4B1B6B3C4AD9
:1094800043F0010313633A4B1B6B03F00103BB6012
:10949000BB6800237B60364B1B6B354A43F00203ED
:1094A0001363334B1B6B03F002037B607B6800226A
:1094B0004FF440412F4802F041FB002203212E4887
:1094C00002F03CFB00220F212C4802F037FB002267
:1094D0004FF480512A4802F031FB4FF400537B6176
:1094E0000023BB610023FB6107F1140319462148E7
:1094F00002F0A0F94FF440437B610123BB610023DC
:10950000FB6100233B6207F114031946194802F07E
:1095100091F903237B610123BB610023FB610023DD
:109520003B6207F114031946134802F083F90F2335
:109530007B610123BB610023FB6103233B6207F1D5
:10954000140319460D4802F075F94FF480537B61FE
:109550000123BB610023FB6103233B6207F114037A
:109560001946074802F066F900BF2837BD4680BD9E
:109570000038024000080240001C02400000024087
:109580000004024080B500AF00F0C8FF00F030F8E2
:10959000FFF74AFFFFF7EAFE00F0BEFEFFF76EFDA1
:1095A00000F0E6FA00F0A0FB00F0F2FB00F044FC53
:1095B00000F0DAFC00F08AF801224CF203010B48BB
:1095C00002F0BCFA06F012FF07F044FE06F05CFF62
:1095D00007F030F807F0C8FA07F0A0F908F0A8F88B
:1095E00007F0D4FB08F0C4F8FCE700BF000002401D
:1095F00080B594B000AF07F1200330220021184657
:1096000009F0F4FA07F10C0300221A605A609A601C
:10961000DA601A610023BB60274B1B6C264A43F0BB
:1096200080531364244B1B6C03F08053BB60BB68F6
:1096300000237B60214B1B68204A43F440431360A6
:109640001E4B1B6803F440437B607B6802233B6234
:109650000123FB6210233B630223BB630023FB63F4
:1096600010233B64C0237B640223BB640423FB649C
:1096700007F12003184602F07BFA0346002B01D0C5
:1096800000F01EF80F23FB6002233B6100237B6187
:109690004FF48053BB610023FB6107F10C030321EE
:1096A000184602F0DDFC0346002B01D000F008F85C
:1096B00000BF5037BD4680BD0038024000700040FA
:1096C00080B400AF72B600BFFEE7000080B500AF07
:1096D000174B184A1A60164B4FF482725A60144B9B
:1096E00000229A60124B0022DA60114B02221A61AA
:1096F0000F4B01225A610E4B4FF400729A610C4BD2
:109700003022DA610A4B00221A62094B00225A62A7
:10971000074B00229A62064B0A22DA62044802F0E2
:109720007FFE0346002B01D0FFF7CAFF00BF80BDBC
:109730009C0200200038004080B58AB000AF7860FD
:1097400007F1140300221A605A609A60DA601A6105
:109750007B681B68474A934240F0888000233B6146
:10976000454B1B6C444A43F480431364424B1B6CCF
:1097700003F480433B613B690023FB603E4B1B6B62
:109780003D4A43F0020313633B4B1B6B03F00203A0
:10979000FB60FB684FF460437B610223BB610023E5
:1097A000FB6103233B6205237B6207F11403194627
:1097B000324802F03FF8324B324A1A60304B0022F6
:1097C0005A602F4B00229A602D4B0022DA602C4BFE
:1097D0004FF480621A612A4B00225A61284B002202
:1097E0009A61274B0022DA61254B4FF440321A620E
:1097F000234B00225A62224801F030FC0346002B22
:1098000001D0FFF75DFF7B681D4ADA641C4A7B6864
:1098100093631D4B1D4A1A601B4B00225A601A4B62
:1098200040229A60184B0022DA60174B00221A611E
:10983000154B00225A61144B00229A61124B0022F0
:10984000DA61114B4FF440321A620F4B00225A6218
:109850000D4801F003FC0346002B01D0FFF730FF59
:109860007B68094A9A64084A7B68936300BF28377B
:10987000BD4680BD00380040003802400004024070
:10988000F40200205860024054030020706002403F
:1098900080B483B000AF00237B60104B5B6C0F4A39
:1098A00043F4804353640D4B5B6C03F480437B6053
:1098B0007B6800233B60094B1B6C084A43F08053D4
:1098C0001364064B1B6C03F080533B603B6800BF86
:1098D0000C37BD465DF8047B704700BF003802407E
:1098E00080B400AFFEE780B400AFFEE780B400AF05
:1098F000FEE780B400AFFEE780B400AFFEE780B4BF
:1099000000AF00BFBD465DF8047B704780B400AF78
:1099100000BFBD465DF8047B704780B400AF00BF58
:10992000BD465DF8047B704780B500AF00F048FE8F
:1099300000BF80BD80B500AF024801F005FD00BF4B
:1099400080BD00BFF402002080B500AF024801F0E6
:10995000FBFC00BF80BD00BF5403002080B500AFFA
:10996000024801F0F1FC00BF80BD00BF3C020020B6
:1099700080B500AF024801F0E7FC00BF80BD00BF2A
:109980002005002080B500AF024801F0DDFC00BFDB
:1099900080BD00BF8005002080B500AF024801F007
:1099A000D3FC00BF80BD00BF2406002080B500AFFF
:1099B000024801F0C9FC00BF80BD00BF8406002042
:1099C00080B400AF01231846BD465DF8047B7047A4
:1099D00080B582B000AF7860396009F059F903466C
:1099E00016221A604FF0FF3318460837BD4680BD77
:1099F00080B582B000AF78604FF0FF317868FFF734
:109A0000E7FFFEE780B586B000AFF860B9607A6026
:109A100000237B610AE006F025FD0146BB685A1C65
:109A2000BA60CAB21A707B6901337B617A697B685C
:109A30009A42F0DB7B6818461837BD4680BD80B57A
:109A400086B000AFF860B9607A6000237B6109E0FE
:109A5000BB685A1CBA601B78184606F0F5FC7B6997
:109A600001337B617A697B689A42F1DB7B68184637
:109A70001837BD4680BD80B483B000AF78604FF02A
:109A8000FF3318460C37BD465DF8047B704780B441
:109A900083B000AF786039603B684FF400525A6081
:109AA000002318460C37BD465DF8047B704780B430
:109AB00083B000AF7860012318460C37BD465DF8CF
:109AC000047B704780B485B000AFF860B9607A60FD
:109AD000002318461437BD465DF8047B704700002C
:109AE00080B586B000AF7860144A154BD31A7B61FD
:109AF0007B693B61134B1B68002B02D1114B124A4F
:109B00001A60104B1A687B6813443A699A4207D26C
:109B100009F0BEF803460C221A604FF0FF3309E04B
:109B2000084B1B68FB60074B1A687B681344054AA7
:109B30001360FB6818461837BD4680BD0000022040
:109B400000040000B4030020F00C002080B400AF3B
:109B5000064BD3F88830054A43F47003C2F88830C6
:109B600000BFBD465DF8047B704700BF00ED00E01C
:109B700080B596B000AF07F1480300221A605A6022
:109B80009A60DA6007F1400300221A605A6007F118
:109B9000240300221A605A609A60DA601A615A61DE
:109BA0009A613B1D20220021184609F01FF84C4BFA
:109BB0004C4A1A604A4B00225A60494B00229A6074
:109BC000474B41F63F72DA60454B00221A61444B25
:109BD00000225A61424B00229A61414803F018F971
:109BE0000346002B01D0FFF76BFD4FF48053BB649D
:109BF00007F1480319463A4803F0BCFC0346002B22
:109C000001D0FFF75DFD364803F0B4F90346002BA1
:109C100001D0FFF755FD00233B6400237B6407F16F
:109C2000400319462E4804F039F80346002B01D0B2
:109C3000FFF746FD70237B620123BB620023FB62BA
:109C400000233B6300237B630023BB630023FB6390
:109C500007F1240300221946214803F0C9FB0346FB
:109C6000002B01D0FFF72CFD40F66113BB6207F11A
:109C70002403042219461A4803F0BAFB0346002BBA
:109C800001D0FFF71DFD40F28173BB6207F1240391
:109C900008221946124803F0ABFB0346002B01D003
:109CA000FFF70EFD00237B600023BB600023FB60F9
:109CB00000233B6100237B614FF40053BB61002311
:109CC0003B623B1D1946064804F056F80346002B3C
:109CD00001D0FFF7F5FC00BF5837BD4680BD00BF7F
:109CE000B80300200000014080B58CB000AF07F140
:109CF0000C0324220021184608F078FF3B1D0022A7
:109D00001A605A60214B4FF080421A601F4B0022AC
:109D10005A601E4B00229A601C4B4FF6FF72DA60AD
:109D20001A4B00221A61194B00229A610323FB602F
:109D300000233B6101237B610023BB610023FB61A6
:109D400000233B6201237B620023BB620023FB6292
:109D500007F10C0319460D4803F016FA0346002BD1
:109D600001D0FFF7ADFC00237B600023BB603B1DEF
:109D70001946064803F092FF0346002B01D0FFF777
:109D80009FFC00BF3037BD4680BD00BF00040020EF
:109D900080B58CB000AF07F10C03242200211846D7
:109DA00008F024FF3B1D00221A605A60204B214A14
:109DB0001A601F4B00225A601D4B00229A601C4BF8
:109DC0004FF6FF72DA601A4B00221A61184B00221C
:109DD0009A610323FB6000233B6101237B61002325
:109DE000BB610023FB6100233B6201237B620023F4
:109DF000BB620023FB6207F10C0319460C4803F019
:109E0000C3F90346002B01D0FFF75AFC00237B6007
:109E10000023BB603B1D1946054803F03FFF034686
:109E2000002B01D0FFF74CFC00BF3037BD4680BD92
:109E3000480400200004004080B58EB000AF07F158
:109E4000280300221A605A609A60DA6007F1200342
:109E500000221A605A603B1D00221A605A609A6004
:109E6000DA601A615A619A613D4B3E4A1A603C4B76
:109E700000225A603A4B00229A60394B40F2DF12BE
:109E8000DA60374B00221A61354B00229A61344860
:109E900002F0BEFF0346002B01D0FFF711FC4FF488
:109EA0008053BB6207F1280319462D4803F062FB7B
:109EB0000346002B01D0FFF703FC294803F05AF8B2
:109EC0000346002B01D0FFF7FBFB00233B6200237E
:109ED0007B6207F120031946214803F0DFFE0346A9
:109EE000002B01D0FFF7ECFB70237B600023BB60ED
:109EF0000023FB6000237B613B1D002219461848AC
:109F000003F076FA0346002B01D0FFF7D9FB3B1D87
:109F100004221946124803F06BFA0346002B01D0C5
:109F2000FFF7CEFB3B1D082219460D4803F060FAEF
:109F30000346002B01D0FFF7C3FB3B1D0C22194643
:109F4000074803F055FA0346002B01D0FFF7B8FB92
:109F5000034800F0A7F900BF3837BD4680BD00BFF9
:109F6000900400200008004080B586B000AF07F1E3
:109F7000080300221A605A609A60DA603B460022A9
:109F80001A605A601D4B1E4A1A601C4B1F225A60F1
:109F90001A4B00229A60194B4FF6FF72DA60174B8A
:109FA00000221A61154B00229A61144802F030FF1A
:109FB0000346002B01D0FFF783FB4FF48053BB60B7
:109FC00007F1080319460D4803F0D4FA0346002BA5
:109FD00001D0FFF775FB00233B6000237B603B460D
:109FE0001946064803F05AFE0346002B01D0FFF73E
:109FF00067FB00BF1837BD4680BD00BFD8040020F6
:10A00000000C004080B586B000AF78607B681B68AC
:10A010004F4A934271D100237B614E4B5B6C4D4A9A
:10A0200043F0010353644B4B5B6C03F001037B6112
:10A030007B69494B494A1A60474B4FF040625A606E
:10A04000454B40229A60444B0022DA60424B4FF469
:10A0500080621A61404B4FF480525A613E4B4FF47C
:10A0600080429A613C4B4FF48072DA613A4B4FF474
:10A0700040321A62384B00225A62374800F0EEFF35
:10A080000346002B01D0FFF71BFB7B68324A5A6264
:10A09000314A7B689363324B324A1A60304B4FF03F
:10A0A00040625A602E4B40229A602D4B0022DA60AB
:10A0B0002B4B00221A612A4B4FF480525A61284BD5
:10A0C0004FF480429A61264B4FF48072DA61244B40
:10A0D0004FF440321A62224B00225A62204800F0AC
:10A0E000BDFF0346002B01D0FFF7EAFA7B681C4A4C
:10A0F0009A621B4A7B68936326E07B681B681A4A56
:10A1000093420ED100233B61124B1B6C114A43F06A
:10A11000040313640F4B1B6C03F004033B613B69A6
:10A1200012E07B681B68114A93420DD10023FB604B
:10A13000084B1B6C074A43F008031364054B1B6C68
:10A1400003F00803FB60FB6800BF1837BD4680BD05
:10A150000000014000380240200500202864024031
:10A16000800500204064024000080040000C0040D0
:10A1700080B58CB000AF786007F11C0300221A6034
:10A180005A609A60DA601A617B681B68B3F1804F8D
:10A190004BD10023BB613F4B1B6C3E4A43F0010394
:10A1A00013643C4B1B6C03F00103BB61BB690023D0
:10A1B0007B61384B1B6B374A43F001031363354B0C
:10A1C0001B6B03F001037B617B6900233B61314B17
:10A1D0001B6B304A43F0020313632E4B1B6B03F0DF
:10A1E00002033B613B694FF40043FB6102233B6286
:10A1F00000237B620023BB620123FB6207F11C0387
:10A200001946254801F016FB0823FB6102233B6237
:10A2100000237B620023BB620123FB6207F11C0366
:10A2200019461E4801F006FB30E07B681B681C4A9B
:10A2300093422BD10023FB60164B1B6C154A43F055
:10A2400002031364134B1B6C03F00203FB60FB68F7
:10A250000023BB600F4B1B6B0E4A43F002031363DA
:10A260000C4B1B6B03F00203BB60BB683023FB612C
:10A2700002233B6200237B620023BB620223FB625A
:10A2800007F11C031946054801F0D4FA00BF303726
:10A29000BD4680BD0038024000000240000402407C
:10A2A0000004004080B588B000AF786007F10C036F
:10A2B00000221A605A609A60DA601A617B681B6833
:10A2C000124A93421ED10023BB60114B1B6B104AF4
:10A2D00043F0020313630E4B1B6B03F00203BB60DE
:10A2E000BB684FF47073FB6002233B6100237B610A
:10A2F0000323BB610223FB6107F10C0319460548E8
:10A3000001F098FA00BF2037BD4680BD000800402C
:10A31000003802400004024080B500AF114B124AE1
:10A320001A60104B4FF461225A600E4B00229A6063
:10A330000C4B0022DA600B4B00221A61094B0C22F5
:10A340005A61084B00229A61064B0022DA610548E7
:10A3500003F064FD0346002B01D0FFF7B1F900BF05
:10A3600080BD00BFE00500200010014080B58AB02C
:10A3700000AF786007F1140300221A605A609A60F7
:10A38000DA601A617B681B68484A934240F08A8011
:10A3900000233B61464B5B6C454A43F0100353641A
:10A3A000434B5B6C03F010033B613B690023FB6094
:10A3B0003F4B1B6B3E4A43F0010313633C4B1B6B4B
:10A3C00003F00103FB60FB684FF4C0637B61022371
:10A3D000BB610023FB6103233B6207237B6207F120
:10A3E00014031946334801F025FA334B334A1A60F7
:10A3F000314B4FF000625A602F4B00229A602E4B77
:10A400000022DA602C4B4FF480621A612A4B002242
:10A410005A61294B00229A61274B4FF48072DA610E
:10A42000254B00221A62244B00225A62224800F077
:10A4300015FE0346002B01D0FFF742F97B681E4A48
:10A440009A631D4A7B6893631D4B1E4A1A601C4B1E
:10A450004FF000625A601A4B40229A60184B00225B
:10A46000DA60174B4FF480621A61154B00225A6173
:10A47000134B00229A61124B0022DA61104B00222A
:10A480001A620F4B00225A620D4800F0E7FD0346A6
:10A49000002B01D0FFF714F97B68094A5A63084A78
:10A4A0007B68936300BF2837BD4680BD0010014024
:10A4B0000038024000000240240600208864024068
:10A4C00084060020B8640240DFF834D00D480E49FD
:10A4D0000E4A002302E0D458C4500433C4188C42FE
:10A4E000F9D30B4A0B4C002301E013600432A24263
:10A4F000FBD3FFF72BFB08F0D1FBFFF743F87047C6
:10A500000000022000000020D8010020F0720108A5
:10A51000D8010020F00C0020FEE7000080B500AF5D
:10A520000E4B1B680D4A43F4007313600B4B1B6802
:10A530000A4A43F480631360084B1B68074A43F4DC
:10A5400080731360032000F047FD002000F008F83E
:10A55000FFF79EF90023184680BD00BF003C024073
:10A5600080B582B000AF7860124B1A68124B1B782E
:10A5700019464FF47A73B3FBF1F3B2FBF3F31846C9
:10A5800000F05FFD0346002B01D001230EE07B6845
:10A590000F2B0AD8002279684FF0FF3000F027FD1A
:10A5A000064A7B681360002300E001231846083741
:10A5B000BD4680BD000000200800002004000020EF
:10A5C00080B400AF064B1B781A46064B1B68134439
:10A5D000044A136000BFBD465DF8047B704700BFAE
:10A5E00008000020E406002080B400AF034B1B6885
:10A5F0001846BD465DF8047B704700BFE4060020A6
:10A6000080B584B000AF7860FFF7EEFFB8607B687C
:10A61000FB60FB68B3F1FF3F05D00A4B1B781A467D
:10A62000FB681344FB6000BFFFF7DEFF0246BB6818
:10A63000D31AFA689A42F7D800BF00BF1037BD4658
:10A6400080BD00BF0800002080B584B000AF7860F6
:10A650000023FB737B68002B01D1012333E07B686F
:10A660001B6C002B09D17868FEF7ECFD7B6800229B
:10A670005A647B68002283F83C207B681B6C03F0E3
:10A680001003002B18D17B681B6C23F4885323F034
:10A69000020343F002027B681A64786800F04EFA05
:10A6A0007B6800225A647B681B6C23F0030343F031
:10A6B00001027B681A6401E00123FB737B680022BE
:10A6C00083F83C20FB7B18461037BD4680BD000058
:10A6D00080B586B000AFF860B9607A6000233B6156
:10A6E000FB6893F83C30012B01D10223CEE0FB68DC
:10A6F000012283F83C20FB681B689B6803F0010380
:10A70000012B18D0FB681B689A68FB681B6842F035
:10A7100001029A605F4B1B685F4AA2FB03239A0CFD
:10A7200013465B0013443B6102E03B69013B3B6124
:10A730003B69002BF9D1FB681B689B6803F48073AD
:10A74000B3F5807F07D1FB681B689A68FB681B68BC
:10A7500022F480729A60FB681B689B6803F0010317
:10A76000012B40F08680FB681B6C23F4E06323F030
:10A77000010343F48072FB681A64FB681B685B6822
:10A7800003F48063002B07D0FB681B6C23F4405359
:10A7900043F48052FB681A64FB681B6C03F480531B
:10A7A000B3F5805F06D1FB685B6C23F00602FB68A3
:10A7B0005A6402E0FB6800225A64FB68002283F8B6
:10A7C0003C20364B7B61FB689B6B354ADA63FB6848
:10A7D0009B6B344A1A64FB689B6B334ADA64FB68F0
:10A7E0001B686FF022021A60FB681B685A68FB68DE
:10A7F0001B6842F080625A60FB681B689A68FB68BD
:10A800001B6842F480729A60FB68986BFB681B6857
:10A810004C331946BA687B6800F0CEFC7B695B68F4
:10A8200003F01F03002B0FD1FB681B689B6803F02C
:10A830004053002B29D1FB681B689A68FB681B6892
:10A8400042F080429A6020E0FB681B68174A9342FE
:10A850001BD1FB681B689B6803F04053002B14D18D
:10A86000FB681B689A68FB681B6842F080429A602C
:10A870000BE0FB681B6C43F01002FB681A64FB687A
:10A880005B6C43F00102FB685A64002318461837DA
:10A89000BD4680BD0000002083DE1B430023014035
:10A8A00035AD0008EFAD00080BAE000800200140F8
:10A8B00080B483B000AF786000BF0C37BD465DF850
:10A8C000047B704780B483B000AF786000BF0C3762
:10A8D000BD465DF8047B704780B485B000AF7860FA
:10A8E00039600023BB607B6893F83C30012B01D1B9
:10A8F000022313E17B68012283F83C203B681B683C
:10A90000092B25D97B681B68D9683B681B689BB2FB
:10A910001A4613465B0013441E3B072202FA03F358
:10A92000DA437B681B680A40DA607B681B68D96879
:10A930003B689A683B681B689BB2184603465B00FD
:10A9400003441E3B9A407B681B680A43DA6022E09E
:10A950007B681B6819693B681B689BB21A461346E3
:10A960005B001344072202FA03F3DA437B681B6897
:10A970000A401A617B681B6819693B689A683B68E2
:10A980001B689BB2184603465B0003449A407B68F1
:10A990001B680A431A613B685B68062B24D87B68F6
:10A9A0001B68596B3B685A6813469B001344053B70
:10A9B0001F2202FA03F3DA437B681B680A405A63DA
:10A9C0007B681B68596B3B681B689BB218463B68E9
:10A9D0005A6813469B001344053B00FA03F27B6858
:10A9E0001B680A435A634CE03B685B680C2B24D815
:10A9F0007B681B68196B3B685A6813469B001344BD
:10AA0000233B1F2202FA03F3DA437B681B680A40E8
:10AA10001A637B681B68196B3B681B689BB21846FE
:10AA20003B685A6813469B001344233B00FA03F229
:10AA30007B681B680A431A6323E07B681B68D96A3A
:10AA40003B685A6813469B001344413B1F2202FA9D
:10AA500003F3DA437B681B680A40DA627B681B6891
:10AA6000D96A3B681B689BB218463B685A68134614
:10AA70009B001344413B00FA03F27B681B680A43C6
:10AA8000DA62294BFB607B681B68284A93420FD12E
:10AA90003B681B68122B0BD1FB685B6823F4000238
:10AAA000FB685A60FB685B6843F48002FB685A608D
:10AAB0007B681B681D4A93422BD13B681B681C4A6C
:10AAC000934203D03B681B68112B22D1FB685B6863
:10AAD00023F48002FB685A60FB685B6843F4000261
:10AAE000FB685A603B681B68114A934211D1114BB5
:10AAF0001B68114AA2FB03239A0C13469B001344C4
:10AB00005B00BB6002E0BB68013BBB60BB68002B25
:10AB1000F9D17B68002283F83C20002318461437C3
:10AB2000BD465DF8047B70470023014000200140D2
:10AB3000120000100000002083DE1B4380B485B0AB
:10AB400000AF7860794BFB60FB685B6823F44032B0
:10AB5000FB685A60FB685A687B685B681A43FB684D
:10AB60005A607B681B685A687B681B6822F4807295
:10AB70005A607B681B6859687B681B691A027B688E
:10AB80001B680A435A607B681B685A687B681B68AD
:10AB900022F040725A607B681B6859687B689A682B
:10ABA0007B681B680A435A607B681B689A687B68ED
:10ABB0001B6822F400629A607B681B6899687B6856
:10ABC000DA687B681B680A439A607B689B6A584A0C
:10ABD000934222D07B681B689A687B681B6822F0CE
:10ABE00070629A607B681B6899687B689A6A7B6868
:10ABF0001B680A439A607B681B689A687B681B68BD
:10AC000022F040529A607B681B6899687B68DA6A18
:10AC10007B681B680A439A600FE07B681B689A6830
:10AC20007B681B6822F070629A607B681B689A6878
:10AC30007B681B6822F040529A607B681B689A68A8
:10AC40007B681B6822F002029A607B681B68996827
:10AC50007B681B7E5A007B681B680A439A607B688E
:10AC600093F82030002B1BD07B681B685A687B68E8
:10AC70001B6842F400625A607B681B685A687B68F4
:10AC80001B6822F460425A607B681B6859687B68C5
:10AC90005B6A013B5A037B681B680A435A6007E002
:10ACA0007B681B685A687B681B6822F400625A60E4
:10ACB0007B681B68DA6A7B681B6822F47002DA62C0
:10ACC0007B681B68D96A7B68DB69013B1A057B6876
:10ACD0001B680A43DA627B681B689A687B681B689A
:10ACE00022F400729A607B681B6899687B6893F80D
:10ACF00030305A027B681B680A439A607B681B6885
:10AD00009A687B681B6822F480629A607B681B6883
:10AD100099687B685B699A027B681B680A439A6042
:10AD200000BF1437BD465DF8047B70470023014027
:10AD30000100000F80B584B000AF78607B689B6B2A
:10AD4000FB60FB681B6C03F05003002B3CD1FB68DD
:10AD50001B6C43F40072FB681A64FB681B689B68F9
:10AD600003F04053002B2BD1FB681B7E002B27D117
:10AD7000FB681B68DB6A03F47003002B06D0FB68DA
:10AD80001B689B6803F48063002B19D1FB681B6868
:10AD90005A68FB681B6822F020025A60FB681B6C33
:10ADA00023F48072FB681A64FB681B6C03F4805305
:10ADB000002B05D1FB681B6C43F00102FB681A6491
:10ADC000F86805F08FFE0EE0FB681B6C03F01003C3
:10ADD000002B03D0F868FFF775FD04E0FB689B6B60
:10ADE000DB6C7868984700BF1037BD4680BD80B5E2
:10ADF00084B000AF78607B689B6BFB60F868FFF7FE
:10AE000057FD00BF1037BD4680BD80B584B000AF90
:10AE100078607B689B6BFB60FB6840221A64FB6870
:10AE20005B6C43F00402FB685A64F868FFF74AFD64
:10AE300000BF1037BD4680BD80B485B000AF7860DC
:10AE40007B6803F00703FB600C4BDB68BB60BA68F0
:10AE50004FF6FF031340BB60FB681A02BB68134345
:10AE600043F0BF6343F40033BB60044ABB68D36064
:10AE700000BF1437BD465DF8047B704700ED00E06D
:10AE800080B400AF044BDB681B0A03F007031846CD
:10AE9000BD465DF8047B704700ED00E080B483B0F0
:10AEA00000AF0346FB7197F90730002B0BDBFB79F2
:10AEB00003F01F02074997F907305B09012000FAE8
:10AEC00002F241F8232000BF0C37BD465DF8047B39
:10AED000704700BF00E100E080B483B000AF0346DC
:10AEE0003960FB7197F90730002B0ADB3B68DAB257
:10AEF0000C4997F907301201D2B20B4483F80023B2
:10AF00000AE03B68DAB20849FB7903F00F03043B1F
:10AF10001201D2B20B441A7600BF0C37BD465DF861
:10AF2000047B704700E100E000ED00E080B489B0F0
:10AF300000AFF860B9607A60FB6803F00703FB615B
:10AF4000FB69C3F10703042B28BF0423BB61FB6922
:10AF50000433062B02D9FB69033B00E000237B612D
:10AF60004FF0FF32BB6902FA03F3DA43BB681A40C1
:10AF70007B699A404FF0FF317B6901FA03F3D943B3
:10AF80007B680B40134318462437BD465DF8047BAD
:10AF90007047000080B582B000AF78607B68013BED
:10AFA000B3F1807F01D301230FE00A4A7B68013BA4
:10AFB00053600F214FF0FF30FFF78EFF054B00224B
:10AFC0009A60044B07221A60002318460837BD46D2
:10AFD00080BD00BF10E000E080B582B000AF7860B7
:10AFE0007868FFF729FF00BF0837BD4680BD80B5F0
:10AFF00086B000AF0346B9607A60FB7300237B61C3
:10B00000FFF73EFF78617A68B9687869FFF78EFFCD
:10B01000024697F90F3011461846FFF75DFF00BF53
:10B020001837BD4680BD80B582B000AF0346FB71C6
:10B0300097F907301846FFF731FF00BF0837BD46C4
:10B0400080BD80B582B000AF78607868FFF7A2FF5E
:10B05000034618460837BD4680BD000080B586B05F
:10B0600000AF786000237B61FFF7BEFA38617B6830
:10B07000002B01D1012399E07B68022283F835205F
:10B080007B68002283F834207B681B681A687B6821
:10B090001B6822F001021A600FE0FFF7A5FA0246D2
:10B0A0003B69D31A052B08D97B6820225A657B6837
:10B0B000032283F83520032378E07B681B681B6834
:10B0C00003F00103002BE8D17B681B681B687B61E0
:10B0D0007A69384B13407B617B685A687B689B6850
:10B0E0001A437B68DB681A437B681B691A437B68D9
:10B0F0005B691A437B689B691A437B68DB691A4367
:10B100007B681B6A13437A6913437B617B685B6AC4
:10B11000042B07D17B68DA6A7B681B6B13437A695F
:10B1200013437B617B681B687A691A607B681B68C4
:10B130005B697B617B6923F007037B617B685B6AEA
:10B140007A6913437B617B685B6A042B17D17B6848
:10B150009B6A7A6913437B617B68DB6A002B0ED0A4
:10B16000786800F0EBFA0346002B08D07B68402299
:10B170005A657B68012283F83520012316E07B683D
:10B180001B687A695A61786800F0A2FA0346FB608E
:10B190007B68DB6D3F229A40FB689A607B680022E7
:10B1A0005A657B68012283F835200023184618373A
:10B1B000BD4680BD3F8010F080B586B000AFF8601E
:10B1C000B9607A603B600023FB75FB689B6D3B6157
:10B1D000FB6893F83430012B01D1022340E0FB6877
:10B1E000012283F83420FB6893F83530DBB2012B61
:10B1F0002FD1FB68022283F83520FB6800225A65B4
:10B200003B687A68B968F86800F034FAFB68DB6D6F
:10B210003F229A403B699A60FB681B681A68FB688A
:10B220001B6842F016021A60FB681B6C002B07D0EB
:10B23000FB681B681A68FB681B6842F008021A600A
:10B24000FB681B681A68FB681B6842F001021A6001
:10B2500005E0FB68002283F834200223FB75FB7DA8
:10B2600018461837BD4680BD80B584B000AF786001
:10B270007B689B6DFB60FFF7B7F9B8607B6893F85C
:10B280003530DBB2022B08D07B6880225A657B68A0
:10B29000002283F83420012352E07B681B681A687F
:10B2A0007B681B6822F016021A607B681B685A696B
:10B2B0007B681B6822F080025A617B681B6C002B44
:10B2C00003D17B689B6C002B07D07B681B681A68D6
:10B2D0007B681B6822F008021A607B681B681A688A
:10B2E0007B681B6822F001021A6013E0FFF77CF90B
:10B2F0000246BB68D31A052B0CD97B6820225A65FD
:10B300007B68032283F835207B68002283F8342091
:10B31000032315E07B681B681B6803F00103002B07
:10B32000E4D17B68DB6D3F229A40FB689A607B68C2
:10B33000012283F835207B68002283F83420002323
:10B3400018461037BD4680BD80B586B000AF786026
:10B350000023BB608E4B1B688E4AA2FB03239B0A13
:10B360007B617B689B6D3B613B691B68FB607B6815
:10B37000DB6D08229A40FB681340002B1AD07B68D3
:10B380001B681B6803F00403002B13D07B681B6849
:10B390001A687B681B6822F004021A607B68DB6D08
:10B3A00008229A403B699A607B685B6D43F001021A
:10B3B0007B685A657B68DB6D01229A40FB6813400D
:10B3C000002B12D07B681B685B6903F08003002BA5
:10B3D0000BD07B68DB6D01229A403B699A607B68E9
:10B3E0005B6D43F002027B685A657B68DB6D04226B
:10B3F0009A40FB681340002B12D07B681B681B68C7
:10B4000003F00203002B0BD07B68DB6D04229A4013
:10B410003B699A607B685B6D43F004027B685A6508
:10B420007B68DB6D10229A40FB681340002B43D0F1
:10B430007B681B681B6803F00803002B3CD07B680B
:10B44000DB6D10229A403B699A607B681B681B6821
:10B4500003F48023002B18D07B681B681B6803F45F
:10B460000023002B08D17B681B6C002B24D07B6849
:10B470001B6C786898471FE07B689B6C002B1BD087
:10B480007B689B6C7868984716E07B681B681B6834
:10B4900003F48073002B07D17B681B681A687B68F4
:10B4A0001B6822F008021A607B681B6C002B03D01B
:10B4B0007B681B6C786898477B68DB6D20229A401C
:10B4C000FB681340002B00F08F807B681B681B68B3
:10B4D00003F01003002B00F087807B68DB6D2022D7
:10B4E0009A403B699A607B6893F83530DBB2052B54
:10B4F00036D17B681B681A687B681B6822F01602CD
:10B500001A607B681B685A697B681B6822F080029E
:10B510005A617B681B6C002B03D17B689B6C002BF2
:10B5200007D07B681B681A687B681B6822F00802DA
:10B530001A607B68DB6D3F229A403B699A607B68AA
:10B54000012283F835207B68002283F834207B6851
:10B550001B6D002B7ED07B681B6D7868984779E067
:10B560007B681B681B6803F48023002B1DD07B685D
:10B570001B681B6803F40023002B0DD17B685B6CF8
:10B58000002B31D07B685B6C786898472CE000BF5B
:10B5900000000020B5814E1B7B68DB6B002B23D0A5
:10B5A0007B68DB6B786898471EE07B681B681B68CC
:10B5B00003F48073002B0FD17B681B681A687B68CB
:10B5C0001B6822F010021A607B68012283F8352084
:10B5D0007B68002283F834207B68DB6B002B03D070
:10B5E0007B68DB6B786898477B685B6D002B32D09B
:10B5F0007B685B6D03F00103002B22D07B68052282
:10B6000083F835207B681B681A687B681B6822F00A
:10B6100001021A60BB680133BB607A699A4207D3A2
:10B620007B681B681B6803F00103002BF2D100E06C
:10B6300000BF7B68012283F835207B68002283F8F5
:10B6400034207B68DB6C002B05D07B68DB6C786872
:10B65000984700E000BF1837BD4680BD80B483B076
:10B6600000AF78607B685B6D18460C37BD465DF8AF
:10B67000047B704780B485B000AFF860B9607A6031
:10B680003B60FB681B681A68FB681B6822F4802219
:10B690001A60FB681B683A685A60FB689B68402B1D
:10B6A00008D1FB681B687A689A60FB681B68BA68F7
:10B6B000DA6007E0FB681B68BA689A60FB681B6881
:10B6C0007A68DA6000BF1437BD465DF8047B7047C6
:10B6D00080B485B000AF78607B681B68DBB2103B3C
:10B6E000144AA2FB03231B09FB60134AFB681344A3
:10B6F0001B781A467B68DA65FB68032B09D97B68DF
:10B700001B6823F47F7323F003031A1D7B689A657B
:10B7100007E07B681B6823F47F7323F003037A68D8
:10B7200093657B689B6D18461437BD465DF8047BB6
:10B73000704700BFABAAAAAA6865010880B485B0AB
:10B7400000AF78600023FB737B689B6ABB607B68FB
:10B750009B69002B1FD1BB68032B56D801A252F85E
:10B7600023F000BF75B7000887B7000875B7000859
:10B770000BB800087B68DB6A03F08073002B46D0AF
:10B780000123FB7343E07B68DB6AB3F1C07F40D1E8
:10B790000123FB733DE07B689B69B3F5005F21D11A
:10B7A000BB68032B37D801A252F823F0BDB70008BD
:10B7B000C3B70008BDB70008D5B700080123FB7365
:10B7C00030E07B68DB6A03F08073002B25D0012317
:10B7D000FB7322E07B68DB6AB3F1C07F1FD10123DA
:10B7E000FB731CE0BB68022B03D9BB68032B03D09F
:10B7F00018E00123FB7315E07B68DB6A03F08073BC
:10B80000002B0ED00123FB730BE000BF0AE000BF4A
:10B8100008E000BF06E000BF04E000BF02E000BF98
:10B8200000E000BFFB7B18461437BD465DF8047B83
:10B83000704700BF80B489B000AF786039600023E2
:10B840007B6100233B610023BB610023FB6159E165
:10B850000122FB6902FA03F37B613B681B687A698A
:10B8600013403B613A697B699A4240F048813B68EA
:10B870005B6803F00303012B05D03B685B6803F0B2
:10B880000303022B30D17B689B68BB61FB695B00C3
:10B89000032202FA03F3DB43BA691340BB613B683E
:10B8A000DA68FB695B0002FA03F3BA691343BB6110
:10B8B0007B68BA699A607B685B68BB610122FB693F
:10B8C00002FA03F3DB43BA691340BB613B685B6870
:10B8D0001B0903F00102FB6902FA03F3BA6913437F
:10B8E000BB617B68BA695A603B685B6803F003031D
:10B8F000032B17D07B68DB68BB61FB695B0003220D
:10B9000002FA03F3DB43BA691340BB613B689A68F0
:10B91000FB695B0002FA03F3BA691343BB617B68FE
:10B92000BA69DA603B685B6803F00303022B23D13A
:10B93000FB69DA087B68083253F82230BB61FB6987
:10B9400003F007039B000F2202FA03F3DB43BA69FB
:10B950001340BB613B681A69FB6903F007039B0056
:10B9600002FA03F3BA691343BB61FB69DA087B6827
:10B970000832B96943F822107B681B68BB61FB6918
:10B980005B00032202FA03F3DB43BA691340BB6195
:10B990003B685B6803F00302FB695B0002FA03F398
:10B9A000BA691343BB617B68BA691A603B685B681C
:10B9B00003F44033002B00F0A2800023FB60574BC0
:10B9C0005B6C564A43F480435364544B5B6C03F402
:10B9D0008043FB60FB68524AFB699B08023352F8C4
:10B9E0002330BB61FB6903F003039B000F2202FAC3
:10B9F00003F3DB43BA691340BB617B68494A934256
:10BA000019D07B68484A934213D07B68474A9342D7
:10BA10000DD07B68464A934207D07B68454A9342E3
:10BA200001D1042308E0072306E0032304E00223F6
:10BA300002E0012300E00023FA6902F00302920011
:10BA40009340BA691343BB613549FB699B080233D4
:10BA5000BA6941F82320384B9B68BB613B69DB43E3
:10BA6000BA691340BB613B685B6803F48013002B29
:10BA700003D0BA693B691343BB612F4ABB6993602A
:10BA80002D4BDB68BB613B69DB43BA691340BB618B
:10BA90003B685B6803F40013002B03D0BA693B6971
:10BAA0001343BB61244ABB69D360234B5B68BB6112
:10BAB0003B69DB43BA691340BB613B685B6803F4D5
:10BAC0000033002B03D0BA693B691343BB611A4AA8
:10BAD000BB695360184B1B68BB613B69DB43BA69A8
:10BAE0001340BB613B685B6803F48033002B03D0D9
:10BAF000BA693B691343BB610F4ABB691360FB69B9
:10BB00000133FB61FB690F2B7FF6A2AE00BF00BFC4
:10BB10002437BD465DF8047B704700BF0038024003
:10BB200000380140000002400004024000080240CA
:10BB3000000C024000100240003C014080B483B081
:10BB400000AF78600B467B8013467B707B78002BC0
:10BB500003D07A887B689A6103E07B881A047B684B
:10BB60009A6100BF0C37BD465DF8047B704700004A
:10BB700080B586B000AF78607B68002B01D10123CF
:10BB800067E27B681B6803F00103002B75D0884BCC
:10BB90009B6803F00C03042B0CD0854B9B6803F0CF
:10BBA0000C03082B12D1824B5B6803F48003B3F5BE
:10BBB000800F0BD17E4B1B6803F40033002B5BD04E
:10BBC0007B685B68002B57D1012342E27B685B688E
:10BBD000B3F5803F06D1764B1B68754A43F480333A
:10BBE00013601DE07B685B68B3F5A02F0CD1704B30
:10BBF0001B686F4A43F4802313606D4B1B686C4ACB
:10BC000043F4803313600BE0694B1B68684A23F4EC
:10BC100080331360664B1B68654A23F480231360EE
:10BC20007B685B68002B13D0FEF7DEFC386108E010
:10BC3000FEF7DAFC02463B69D31A642B01D90323D1
:10BC400007E25B4B1B6803F40033002BF0D014E0D9
:10BC5000FEF7CAFC386108E0FEF7C6FC02463B6905
:10BC6000D31A642B01D90323F3E1514B1B6803F46E
:10BC70000033002BF0D100E000BF7B681B6803F0AD
:10BC80000203002B63D04A4B9B6803F00C03002B8C
:10BC90000BD0474B9B6803F00C03082B1CD1444B83
:10BCA0005B6803F48003002B16D1414B1B6803F043
:10BCB0000203002B05D07B68DB68012B01D0012338
:10BCC000C7E13B4B1B6823F0F8027B681B69DB0074
:10BCD000374913430B603AE07B68DB68002B20D0C8
:10BCE000344B01221A60FEF77FFC386108E0FEF752
:10BCF0007BFC02463B69D31A022B01D90323A8E13E
:10BD00002B4B1B6803F00203002BF0D0284B1B6861
:10BD100023F0F8027B681B69DB00254913430B60A5
:10BD200015E0244B00221A60FEF75EFC386108E043
:10BD3000FEF75AFC02463B69D31A022B01D90323B2
:10BD400087E11B4B1B6803F00203002BF0D17B68DB
:10BD50001B6803F00803002B36D07B685B69002B5F
:10BD600016D0154B01221A60FEF73EFC386108E040
:10BD7000FEF73AFC02463B69D31A022B01D9032392
:10BD800067E10B4B5B6F03F00203002BF0D01BE06D
:10BD9000094B00221A60FEF727FC38610EE0FEF71F
:10BDA00023FC02463B69D31A022B07D9032350E137
:10BDB0000038024000004742800E4742884B5B6FCC
:10BDC00003F00203002BEAD17B681B6803F0040335
:10BDD000002B00F097800023FB75814B1B6C03F058
:10BDE0008053002B0FD10023BB607D4B1B6C7C4A22
:10BDF00043F0805313647A4B1B6C03F08053BB6099
:10BE0000BB680123FB75774B1B6803F48073002B21
:10BE100018D1744B1B68734A43F480731360FEF7A8
:10BE2000E3FB386108E0FEF7DFFB02463B69D31A0B
:10BE3000022B01D903230CE16A4B1B6803F48073C6
:10BE4000002BF0D07B689B68012B06D1644B1B6FE5
:10BE5000634A43F0010313671CE07B689B68052B72
:10BE60000CD15F4B1B6F5E4A43F0040313675C4BBE
:10BE70001B6F5B4A43F0010313670BE0584B1B6FCA
:10BE8000574A23F001031367554B1B6F544A23F0A5
:10BE9000040313677B689B68002B15D0FEF7A4FB97
:10BEA00038610AE0FEF7A0FB02463B69D31A41F273
:10BEB0008832934201D90323CBE0494B1B6F03F037
:10BEC0000203002BEED014E0FEF78EFB38610AE08F
:10BED000FEF78AFB02463B69D31A41F2883293424D
:10BEE00001D90323B5E03E4B1B6F03F00203002B87
:10BEF000EED1FB7D012B05D1394B1B6C384A23F069
:10BF0000805313647B689B69002B00F0A180344B45
:10BF10009B6803F00C03082B5CD07B689B69022BA9
:10BF200041D1314B00221A60FEF75EFB386108E018
:10BF3000FEF75AFB02463B69D31A022B01D90323B1
:10BF400087E0274B1B6803F00073002BF0D17B6860
:10BF5000DA697B681B6A1A437B685B6A9B011A4338
:10BF60007B689B6A5B08013B1B041A437B68DB6AA6
:10BF70001B061B4913434B601B4B01221A60FEF743
:10BF800033FB386108E0FEF72FFB02463B69D31A0A
:10BF9000022B01D903235CE0114B1B6803F00073F3
:10BFA000002BF0D054E0104B00221A60FEF71CFB6F
:10BFB000386108E0FEF718FB02463B69D31A022BF2
:10BFC00001D9032345E0064B1B6803F00073002BE7
:10BFD000F0D13DE07B689B69012B07D1012338E05C
:10BFE0000038024000700040600047421B4B5B6815
:10BFF000FB607B689B69012B28D0FB6803F48002FF
:10C000007B68DB699A4221D1FB6803F03F027B68C1
:10C010001B6A9A421AD1FA6847F6C07313407A68CD
:10C02000526A9201934211D1FB6803F440327B685B
:10C030009B6A5B08013B1B049A4207D1FB6803F033
:10C0400070627B68DB6A1B069A4201D0012300E024
:10C05000002318461837BD4680BD00BF0038024097
:10C0600080B584B000AF786039607B68002B01D167
:10C070000123CCE0684B1B6803F007033A689A423F
:10C080000CD9654B3A68D2B21A70634B1B6803F047
:10C0900007033A689A4201D00123B8E07B681B6825
:10C0A00003F00203002B20D07B681B6803F004031D
:10C0B000002B05D0594B9B68584A43F4E0539360DA
:10C0C0007B681B6803F00803002B05D0534B9B686B
:10C0D000524A43F460439360504B9B6823F0F00254
:10C0E0007B689B684D4913438B607B681B6803F03A
:10C0F0000103002B44D07B685B68012B07D1474BC1
:10C100001B6803F40033002B19D101237FE07B6807
:10C110005B68022B03D07B685B68032B07D13F4B26
:10C120001B6803F00073002B09D101236FE03B4B28
:10C130001B6803F00203002B01D1012367E0374B9A
:10C140009B6823F003027B685B68344913438B6070
:10C15000FEF74AFAF8600AE0FEF746FA0246FB6884
:10C16000D31A41F28832934201D903234FE02B4B7B
:10C170009B6803F00C027B685B689B009A42EBD1E2
:10C18000254B1B6803F007033A689A420CD2224BF6
:10C190003A68D2B21A70204B1B6803F007033A6862
:10C1A0009A4201D0012332E07B681B6803F004034C
:10C1B000002B08D0194B9B6823F4E0527B68DB68A6
:10C1C000164913438B607B681B6803F00803002B40
:10C1D00009D0124B9B6823F460427B681B69DB002B
:10C1E0000E4913438B6000F021F802460B4B9B680D
:10C1F0001B0903F00F030A49CB5C22FA03F3094A37
:10C200001360094B1B681846FEF7AAF9002318466D
:10C210001037BD4680BD00BF003C024000380240E0
:10C220005065010800000020040000202DE9B04FF7
:10C2300090B000AF00237B630023FB6300233B63CC
:10C240000023BB63594B9B6803F00C03082B0DD0F4
:10C25000082B00F2A180002B02D0042B03D09BE01E
:10C26000534BBB639BE0534BBB6398E04F4B5B6806
:10C2700003F03F037B634D4B5B6803F48003002BAB
:10C2800028D04A4B5B689B0900223B627A623B6A7A
:10C29000C3F308000021474B03FB01F2002300FB1E
:10C2A00003F31344434AA0FB0212FA620A46BA623D
:10C2B000FA6A1344FB627B6B0022BB61FA61D7E927
:10C2C0000623D7E90A01FCF725FD02460B46134673
:10C2D000FB6353E0354B5B689B0900223B617A614D
:10C2E0003B69C3F3080A4FF0000B52465B464FF020
:10C2F00000004FF00001590141EAD26150010246AD
:10C300000B46B2EB0A0863EB0B094FF000024FF04B
:10C3100000034FEA891343EA98634FEA8812B2EBAD
:10C32000080463EB09054FF000024FF00003EB0037
:10C3300043EA5473E20014461D4614EB0A033B60C3
:10C3400045EB0B037B604FF000024FF00003D7E991
:10C35000004529468B02214643EA915321468A0231
:10C36000104619467B6B0022BB60FA60D7E90223B6
:10C37000FCF7D0FC02460B461346FB630B4B5B6895
:10C380001B0C03F0030301335B003B63FA6B3B6B55
:10C39000B2FBF3F3BB6302E0054BBB6300BFBB6BB7
:10C3A00018464037BD46BDE8B08F00BF0038024098
:10C3B0000024F40040787D0180B400AF034B1B687B
:10C3C0001846BD465DF8047B704700BF00000020A2
:10C3D00080B500AFFFF7F0FF0246054B9B689B0A54
:10C3E00003F007030349CB5C22FA03F3184680BD30
:10C3F000003802406065010880B500AFFFF7DCFF40
:10C400000246054B9B685B0B03F007030349CB5CBB
:10C4100022FA03F3184680BD003802406065010827
:10C4200080B582B000AF78607B68002B01D101231A
:10C430007BE07B685B6A002B08D17B685B68B3F5A7
:10C44000827F09D07B680022DA6105E07B680022E8
:10C450001A617B6800225A617B6800229A627B68BD
:10C4600093F85130DBB2002B06D17B68002283F8B1
:10C4700050207868FDF760F97B68022283F851202C
:10C480007B681B681A687B681B6822F040021A6090
:10C490007B685B6803F482727B689B6803F40443E7
:10C4A0001A437B68DB6803F400631A437B681B69EB
:10C4B00003F002031A437B685B6903F001031A432C
:10C4C0007B689B6903F400731A437B68DB6903F0A4
:10C4D00038031A437B681B6A03F0800342EA0301B6
:10C4E0007B689B6A03F400527B681B680A431A60EE
:10C4F0007B689B691B0C03F004017B685B6A03F09B
:10C5000010027B681B680A435A607B681B68DA6903
:10C510007B681B6822F40062DA617B6800225A653E
:10C520007B68012283F85120002318460837BD4656
:10C5300080BD80B588B000AFF860B9603B6013463D
:10C54000FB800023FB77FB6893F85030012B01D16F
:10C55000022326E1FB68012283F85020FEF744F80D
:10C56000B861FB88FB82FB6893F85130DBB2012B8A
:10C5700002D00223FB770BE1BB68002B02D0FB88C3
:10C58000002B02D10123FB7702E1FB68032283F831
:10C590005120FB6800225A65FB68BA681A63FB6881
:10C5A000FA889A86FB68FA88DA86FB6800229A6322
:10C5B000FB6800229A87FB680022DA87FB6800226A
:10C5C0005A64FB6800221A64FB689B68B3F5004F4D
:10C5D0000FD1FB681B681A68FB681B6822F04002D9
:10C5E0001A60FB681B681A68FB681B6842F480428B
:10C5F0001A60FB681B681B6803F04003402B07D0E0
:10C60000FB681B681A68FB681B6842F040021A60EE
:10C61000FB68DB68B3F5006F4BD1FB685B68002BF0
:10C6200002D0FB8A012B3ED1FB681B6B1A88FB688A
:10C630001B68DA60FB681B6B9A1CFB681A63FB685B
:10C64000DB8E9BB2013B9AB2FB68DA862BE0FB687B
:10C650001B689B6803F00203022B12D1FB681B6B63
:10C660001A88FB681B68DA60FB681B6B9A1CFB6806
:10C670001A63FB68DB8E9BB2013B9AB2FB68DA86D9
:10C6800011E0FDF7B1FF0246BB69D31A3A689A423E
:10C6900003D83B68B3F1FF3F02D13B68002B02D1C6
:10C6A0000323FB7774E0FB68DB8E9BB2002BCED1BB
:10C6B0004CE0FB685B68002B02D0FB8A012B40D169
:10C6C000FB681A6BFB681B680C3312781A70FB68E6
:10C6D0001B6B5A1CFB681A63FB68DB8E9BB2013B29
:10C6E0009AB2FB68DA862CE0FB681B689B6803F053
:10C6F0000203022B13D1FB681A6BFB681B680C3317
:10C7000012781A70FB681B6B5A1CFB681A63FB6873
:10C71000DB8E9BB2013B9AB2FB68DA8611E0FDF733
:10C7200063FF0246BB69D31A3A689A4203D83B6852
:10C73000B3F1FF3F02D13B68002B02D10323FB770B
:10C7400026E0FB68DB8E9BB2002BCDD1BA6939683D
:10C75000F86800F01BFB0346002B02D0FB68202288
:10C760005A65FB689B68002B0AD100233B61FB687C
:10C770001B68DB683B61FB681B689B683B613B692E
:10C78000FB685B6D002B02D00123FB7700E000BF4C
:10C79000FB68012283F85120FB68002283F85020B7
:10C7A000FB7F18462037BD4680BD000080B586B0AF
:10C7B00000AFF860B9607A607B800023FB75FB688E
:10C7C00093F85030012B01D10223E3E0FB680122F2
:10C7D00083F85020FB6893F85130BB75FB685B68A9
:10C7E0003B61BB7D012B0DD03B69B3F5827F06D148
:10C7F000FB689B68002B02D1BB7D042B02D0022377
:10C80000FB75C2E0BB68002B05D07B68002B02D013
:10C810007B88002B02D10123FB75B6E0FB6893F8FF
:10C820005130DBB2042B03D0FB68052283F8512082
:10C83000FB6800225A65FB68BA681A63FB687A884D
:10C840009A86FB687A88DA86FB687A689A63FB685E
:10C850007A889A87FB687A88DA87FB6800221A64EC
:10C86000FB6800225A64FB6893F85130DBB2042B5A
:10C8700008D1FB68DB6C494A1A64FB68DB6C484AE8
:10C88000DA6307E0FB68DB6C464A1A64FB68DB6C22
:10C89000454ADA63FB68DB6C444ADA64FB68DB6CAC
:10C8A00000221A65FB68D86CFB681B680C331946BC
:10C8B000FB689B6B1A46FB68DB8F9BB2FEF77CFC28
:10C8C0000346002B0CD0FB685B6D43F01002FB6845
:10C8D0005A650123FB75FB68012283F8512054E05F
:10C8E000FB681B685A68FB681B6842F001025A60CB
:10C8F000FB689B6C00221A64FB689B6C0022DA6365
:10C90000FB689B6C0022DA64FB689B6C00221A6552
:10C91000FB68986CFB681B6B1946FB681B680C3343
:10C920001A46FB68DB8E9BB2FEF746FC0346002BE3
:10C930000CD0FB685B6D43F01002FB685A65012365
:10C94000FB75FB68012283F851201EE0FB681B6821
:10C950001B6803F04003402B07D0FB681B681A6874
:10C96000FB681B6842F040021A60FB681B685A684B
:10C97000FB681B6842F020025A60FB681B685A681B
:10C98000FB681B6842F002025A60FB68002283F8D1
:10C990005020FB7D18461837BD4680BD39CB0008B6
:10C9A00001CA000855CB0008A9CA000871CB0008CD
:10C9B00080B483B000AF786000BF0C37BD465DF82F
:10C9C000047B704780B483B000AF786000BF0C3741
:10C9D000BD465DF8047B704780B483B000AF7860DB
:10C9E00000BF0C37BD465DF8047B704780B483B050
:10C9F00000AF786000BF0C37BD465DF8047B704720
:10CA000080B584B000AF78607B689B6BFB60FDF7FE
:10CA1000EBFDB8607B681B681B6803F48073B3F59B
:10CA2000807F3BD0FB681B685A68FB681B6822F05C
:10CA300020025A60FB689B68002B0DD1FB685B6885
:10CA4000B3F5827F08D1FB681B685A68FB681B68D6
:10CA500022F003025A6007E0FB681B685A68FB6813
:10CA60001B6822F001025A60BA686421F86800F07D
:10CA700027F90346002B02D0FB6820225A65FB6889
:10CA80000022DA87FB68012283F85120FB685B6D86
:10CA9000002B03D0F868FFF7A9FF02E0F868FFF762
:10CAA00087FF1037BD4680BD80B584B000AF786089
:10CAB0007B689B6BFB60FDF797FDB8607B681B682C
:10CAC0001B6803F48073B3F5807F2FD0FB681B686D
:10CAD0005A68FB681B6822F020025A60BA68642119
:10CAE000F86800F053F90346002B05D0FB685B6D36
:10CAF00043F02002FB685A65FB681B685A68FB68B4
:10CB00001B6822F003025A60FB680022DA86FB6889
:10CB10000022DA87FB68012283F85120FB685B6DF5
:10CB2000002B03D0F868FFF761FF02E0F86803F01C
:10CB3000BDFD1037BD4680BD80B584B000AF7860C4
:10CB40007B689B6BFB60F868FFF73CFF00BF10370A
:10CB5000BD4680BD80B584B000AF78607B689B6BBC
:10CB6000FB60F868FFF738FF00BF1037BD4680BD97
:10CB700080B584B000AF78607B689B6BFB60FB681E
:10CB80001B685A68FB681B6822F003025A60FB6846
:10CB90005B6D43F01002FB685A65FB68012283F865
:10CBA0005120F868FFF722FF00BF1037BD4680BD57
:10CBB00080B588B000AFF860B9603B601346FB7188
:10CBC000FDF712FD0246BB6A9B1A3A681344FB61EB
:10CBD000FDF70AFDB861394B1B685B011B0DFA6953
:10CBE00002FB03F37B6154E03B68B3F1FF3F50D09D
:10CBF000FDF7FAFC0246BB69D31AFA699A4202D9D8
:10CC0000FB69002B3DD1FB681B685A68FB681B68F9
:10CC100022F0E0025A60FB685B68B3F5827F11D1B5
:10CC2000FB689B68B3F5004F04D0FB689B68B3F5C5
:10CC3000806F07D1FB681B681A68FB681B6822F0CD
:10CC400040021A60FB689B6AB3F5005F0FD1FB6876
:10CC50001B681A68FB681B6822F400521A60FB68A4
:10CC60001B681A68FB681B6842F400521A60FB6874
:10CC7000012283F85120FB68002283F8502003230F
:10CC800017E07B69002B01D10023FB617B69013B2D
:10CC90007B61FB681B689A68BB681340BA689A425C
:10CCA0000CBF01230023DBB21A46FB799A429BD1C9
:10CCB000002318462037BD4680BD00BF000000207D
:10CCC00080B586B002AFF860B9607A60FB685B68D7
:10CCD000B3F5827F11D1FB689B68B3F5004F04D098
:10CCE000FB689B68B3F5806F07D1FB681B681A6807
:10CCF000FB681B6822F040021A60FB685B68B3F5B2
:10CD0000827F2AD1FB689B68B3F5806F12D07B6865
:10CD10000093BB6800228021F868FFF749FF0346B3
:10CD2000002B2DD0FB685B6D43F02002FB685A6539
:10CD3000032326E07B680093BB6800220121F8688A
:10CD4000FFF736FF0346002B1AD0FB685B6D43F0FC
:10CD50002002FB685A65032313E07B680093BB68DD
:10CD600000220121F868FFF723FF0346002B07D0BC
:10CD7000FB685B6D43F02002FB685A65032300E00B
:10CD8000002318461037BD4680BD000080B588B02E
:10CD900002AFF860B9607A601B4B1B681B4AA2FBAC
:10CDA00003235B0D4FF47A7202FB03F37B61FB6894
:10CDB0005B68B3F5827F12D17B680093BB68002269
:10CDC0008021F868FFF7F4FE0346002B16D0FB68BD
:10CDD0005B6D43F02002FB685A6503230FE07B691B
:10CDE000002B0AD07B69013B7B61FB681B689B6859
:10CDF00003F08003802BF2D000E000BF0023184630
:10CE00001837BD4680BD00BF00000020819F5E1620
:10CE100080B582B000AF78607B68002B01D1012320
:10CE200041E07B6893F83D30DBB2002B06D17B6894
:10CE3000002283F83C207868FDF7E4F87B68022242
:10CE400083F83D207B681A687B68043319461046D6
:10CE500000F058FC7B68012283F846207B680122A1
:10CE600083F83E207B68012283F83F207B68012203
:10CE700083F840207B68012283F841207B680122EF
:10CE800083F842207B68012283F843207B680122DB
:10CE900083F844207B68012283F845207B680122C7
:10CEA00083F83D20002318460837BD4680BD0000AA
:10CEB00080B485B000AF78607B6893F83D30DBB21A
:10CEC000012B01D0012344E07B68022283F83D203E
:10CED0007B681B68DA687B681B6842F00102DA60D5
:10CEE0007B681B681E4A934218D07B681B68B3F1AD
:10CEF000804F13D07B681B681A4A93420ED07B6820
:10CF00001B68194A934209D07B681B68174A9342F1
:10CF100004D07B681B68164A934211D17B681B685A
:10CF20009B6803F00703FB60FB68062B10D07B684F
:10CF30001B681A687B681B6842F001021A6007E0F0
:10CF40007B681B681A687B681B6842F001021A60E4
:10CF5000002318461437BD465DF8047B704700BFB8
:10CF6000000001400004004000080040000C0040A8
:10CF70000040014080B582B000AF78607B68002B34
:10CF800001D1012341E07B6893F83D30DBB2002BF7
:10CF900006D17B68002283F83C20786800F039F8DD
:10CFA0007B68022283F83D207B681A687B68043323
:10CFB0001946104600F0A6FB7B68012283F8462044
:10CFC0007B68012283F83E207B68012283F83F20A2
:10CFD0007B68012283F840207B68012283F841208E
:10CFE0007B68012283F842207B68012283F843207A
:10CFF0007B68012283F844207B68012283F8452066
:10D000007B68012283F83D20002318460837BD467F
:10D0100080BD80B483B000AF786000BF0C37BD46E0
:10D020005DF8047B7047000080B584B000AF786085
:10D0300039603B68002B09D17B6893F83E30DBB246
:10D04000012B14BF01230023DBB222E03B68042B39
:10D0500009D17B6893F83F30DBB2012B14BF012369
:10D060000023DBB215E03B68082B09D17B6893F8FD
:10D070004030DBB2012B14BF01230023DBB208E0F8
:10D080007B6893F84130DBB2012B14BF01230023EE
:10D09000DBB2002B01D0012368E03B68002B04D1F8
:10D0A0007B68022283F83E2013E03B68042B04D106
:10D0B0007B68022283F83F200BE03B68082B04D1F9
:10D0C0007B68022283F8402003E07B68022283F819
:10D0D00041207B681B6801223968184600F0B8FDC2
:10D0E0007B681B68234A934207D17B681B685A6C94
:10D0F0007B681B6842F400425A647B681B681D4AC7
:10D10000934218D07B681B68B3F1804F13D07B68C3
:10D110001B68194A93420ED07B681B68174A9342DA
:10D1200009D07B681B68164A934204D07B681B6851
:10D13000144A934211D17B681B689B6803F0070374
:10D14000FB60FB68062B10D07B681B681A687B6845
:10D150001B6842F001021A6007E07B681B681A68CE
:10D160007B681B6842F001021A60002318461037E2
:10D17000BD4680BD000001400004004000080040A2
:10D18000000C00400040014080B586B000AF7860E0
:10D1900039607B68002B01D1012397E07B6893F80D
:10D1A0003D30DBB2002B06D17B68002283F83C20A7
:10D1B0007868FCF7DDFF7B68022283F83D207B68FE
:10D1C0001B689B687A68126823F4804323F0070386
:10D1D00093607B681A687B6804331946104600F038
:10D1E00091FA7B681B689B687B617B681B689B6905
:10D1F0003B617B681B681B6AFB603B681B687A6944
:10D2000013437B613B6923F4407323F003033B61C9
:10D210003B689A683B689B691B0213433A69134356
:10D220003B613B6923F4406323F00C033B613B69A2
:10D2300023F4704323F0F0033B613B68DA683B68FA
:10D24000DB691B0213433A6913433B613B681B696B
:10D250001A013B681B6A1B0313433A6913433B6182
:10D26000FB6823F02203FB60FB6823F08803FB606C
:10D270003B685A683B685B691B011343FA681343B8
:10D28000FB607B681B687A699A607B681B683A69F7
:10D290009A617B681B68FA681A627B68012283F8CE
:10D2A00046207B68012283F83E207B68012283F8B8
:10D2B0003F207B68012283F842207B68012283F8AB
:10D2C00043207B68012283F83D200023184618374D
:10D2D000BD4680BD80B584B000AF786039607B68A2
:10D2E00093F83E30FB737B6893F83F30BB737B68E9
:10D2F00093F842307B737B6893F843303B733B6811
:10D30000002B10D1FB7B012B02D17B7B012B01D0A9
:10D31000012369E07B68022283F83E207B680222B9
:10D3200083F8422031E03B68042B10D1BB7B012BFA
:10D3300002D13B7B012B01D0012355E07B68022207
:10D3400083F83F207B68022283F843201DE0FB7BAB
:10D35000012B08D1BB7B012B05D17B7B012B02D19B
:10D360003B7B012B01D001233EE07B68022283F846
:10D370003E207B68022283F83F207B68022283F8EC
:10D3800042207B68022283F843203B68002B03D0B5
:10D390003B68042B08D00FE07B681B68012200214A
:10D3A000184600F055FC16E07B681B68012204213A
:10D3B000184600F04DFC0EE07B681B68012200213E
:10D3C000184600F045FC7B681B68012204211846C2
:10D3D00000F03EFC00BF7B681B681A687B681B6816
:10D3E00042F001021A60002318461037BD4680BD86
:10D3F00080B586B000AFF860B9607A600023FB7535
:10D40000FB6893F83C30012B01D10223AEE0FB68AE
:10D41000012283F83C207B680C2B00F29F8001A244
:10D4200052F823F059D400085DD500085DD50008F6
:10D430005DD5000899D400085DD500085DD50008C9
:10D440005DD50008DBD400085DD500085DD5000877
:10D450005DD500081BD50008FB681B68B968184635
:10D4600000F0D0F9FB681B689A69FB681B6842F002
:10D4700008029A61FB681B689A69FB681B6822F0C6
:10D4800004029A61FB681B689969BB681A69FB68AA
:10D490001B680A439A6164E0FB681B68B968184618
:10D4A00000F016FAFB681B689A69FB681B6842F477
:10D4B00000629A61FB681B689A69FB681B6822F42A
:10D4C00080629A61FB681B689969BB681B691A02D4
:10D4D000FB681B680A439A6143E0FB681B68B968F4
:10D4E000184600F061FAFB681B68DA69FB681B6884
:10D4F00042F00802DA61FB681B68DA69FB681B68A6
:10D5000022F00402DA61FB681B68D969BB681A69FA
:10D51000FB681B680A43DA6123E0FB681B68B96893
:10D52000184600F0ABFAFB681B68DA69FB681B68F9
:10D5300042F40062DA61FB681B68DA69FB681B6809
:10D5400022F48062DA61FB681B68D969BB681B69D9
:10D550001A02FB681B680A43DA6102E00123FB75CB
:10D5600000BFFB68002283F83C20FB7D184618377B
:10D57000BD4680BD80B584B000AF786039600023BF
:10D58000FB737B6893F83C30012B01D10223B4E09C
:10D590007B68012283F83C207B68022283F83D20CF
:10D5A0007B681B689B68BB60BB6823F07703BB602C
:10D5B000BB6823F47F43BB607B681B68BA689A60D2
:10D5C0003B681B68B3F5005F3ED0B3F5005F00F227
:10D5D0008780B3F5805F00F08680B3F5805F7FD8E9
:10D5E000702B1AD0702B7BD8602B50D0602B77D843
:10D5F000502B3CD0502B73D8402B58D0402B6FD899
:10D60000302B64D0302B6BD8202B60D0202B67D8E8
:10D61000002B5CD0102B5AD062E07B6818683B6806
:10D6200099683B685A683B68DB6800F0F1FA7B68F0
:10D630001B689B68BB60BB6843F07703BB607B687B
:10D640001B68BA689A604FE07B6818683B68996805
:10D650003B685A683B68DB6800F0DAFA7B681B6855
:10D660009A687B681B6842F480429A603CE07B6861
:10D6700018683B6859683B68DB681A4600F04EFA48
:10D680007B681B685021184600F0A7FA2CE07B68E5
:10D6900018683B6859683B68DB681A4600F06DFA09
:10D6A0007B681B686021184600F097FA1CE07B68D5
:10D6B00018683B6859683B68DB681A4600F02EFA28
:10D6C0007B681B684021184600F087FA0CE07B68F5
:10D6D0001A683B681B681946104600F07EFA03E0A2
:10D6E0000123FB7300E000BF7B68012283F83D202B
:10D6F0007B68002283F83C20FB7B18461037BD4630
:10D7000080BD000080B485B000AF786039607B6870
:10D710001B68FB607B68344A93420FD07B68B3F18F
:10D72000804F0BD07B68314A934207D07B68304AE8
:10D73000934203D07B682F4A934208D1FB6823F0C1
:10D740007003FB603B685B68FA681343FB607B68AF
:10D75000254A93421BD07B68B3F1804F17D07B687A
:10D76000224A934213D07B68214A93420FD07B68B0
:10D77000204A93420BD07B681F4A934207D07B68B4
:10D780001E4A934203D07B681D4A934208D1FB682E
:10D7900023F44073FB603B68DB68FA681343FB606B
:10D7A000FB6823F080023B685B691343FB607B6886
:10D7B000FA681A603B689A687B68DA623B681A68A4
:10D7C0007B689A627B68084A934203D13B681A6976
:10D7D0007B681A637B6801225A6100BF1437BD461B
:10D7E0005DF8047B704700BF00000140000400406A
:10D7F00000080040000C004000400140004401408F
:10D800000048014080B487B000AF786039607B6821
:10D810001B6A23F001027B681A627B681B6A7B61CA
:10D820007B685B683B617B689B69FB60FB6823F0FE
:10D830007003FB60FB6823F00303FB603B681B681D
:10D84000FA681343FB607B6923F002037B613B684A
:10D850009B687A6913437B617B681C4A93420CD1B5
:10D860007B6923F008037B613B68DB687A691343BB
:10D870007B617B6923F004037B617B68134A9342DD
:10D8800011D13B6923F480733B613B6923F400733E
:10D890003B613B685B693A6913433B613B689B6949
:10D8A0003A6913433B617B683A695A607B68FA685E
:10D8B0009A613B685A687B685A637B687A691A6226
:10D8C00000BF1C37BD465DF8047B70470000014077
:10D8D00080B487B000AF786039607B681B6A23F042
:10D8E00010027B681A627B681B6A7B617B685B68DD
:10D8F0003B617B689B69FB60FB6823F4E043FB6052
:10D90000FB6823F44073FB603B681B681B02FA68EA
:10D910001343FB607B6923F020037B613B689B68BA
:10D920001B017A6913437B617B681E4A93420DD1C8
:10D930007B6923F080037B613B68DB681B017A69AC
